:0300000002080BE8
:0C080B00787FE4F6D8FD758120020852C9
:030003000206BB37
:1006BB00C0E0C0F0C083C082C0D075D000C000C005
:1006CB0001C002C003C004C005C006C00720A0368D
:1006DB00E4FFFEFDFC900000E0F8A3E0F9A3E0FAD4
:1006EB00A3E0FBD3120192405E900000E0FCA3E07C
:1006FB00FDA3E0FEA3E024FFFFEE34FFFEED34FF8D
:10070B00FDEC34FF803A90002EE0FCA3E0FDA3E06B
:10071B00FEA3E0FF900000E0F8A3E0F9A3E0FAA34A
:10072B00E0FBD3120192501F900000E0FCA3E0FD10
:10073B00A3E0FEA3E02401FFE43EFEE43DFDE43C28
:10074B00FC9000001201A3D007D006D005D004D036
:10075B0003D002D001D000D0D0D082D083D0F0D043
:02076B00E0327A
:070BD700D288D2A8D2AF22A0
:10036F00900028E0FCA3E0FD7F017E00120AD090F0
:10037F000022E0FCA3E0FD7F037E00120AD0900074
:10038F0004E0FCA3E0FD7F057E00120AD09000067A
:10039F00E0FCA3E0FD7F077E00120AD0900008E08A
:1003AF00FCA3E0FD7F097E00120AD090000AE0FC5A
:1003BF00A3E0FD7F0B7E00120AD090000CE0FCA39F
:1003CF00E0FD7F307E00120AD090000EE0FCA3E02B
:1003DF00FD7F0D7E00120AD0900010E0FCA3E0FD1F
:1003EF007F0F7E00120AD0900012E0FCA3E0FD7F89
:1003FF00327E00120AD0900014E0FCA3E0FD7F11C2
:10040F007E00120AD0900016E0FCA3E0FD7F137E61
:10041F0000120AD0900018E0FCA3E0FD7F347E00AC
:10042F00120AD090001AE0FCA3E0FD7F157E0012A7
:10043F000AD090001CE0FCA3E0FD7F177E00120A9B
:10044F00D090001EE0FCA3E0FD7F367E00120AD0A4
:10045F00900020E0FCA3E0FD7F197E00120AD090EF
:10046F000024E07002A3E0700D900034E07002A34E
:10047F00E07003FD802E900024E07002A3E0700E68
:10048F00900034E07002A3E060047D01801B9000B7
:10049F0024E07002A3E0600F900034E07002A3E04C
:1004AF0070057D02FC80057D037C00E4FFFE120ACF
:1004BF00D090002CE0FCA3E0FD7F1B7E00120AD041
:1004CF00900032E0FCA3E0FD7F1D7E00120AD09069
:1004DF000026E0FCA3E0FD7F1F7E00120AD09000F3
:0D04EF002AE0FCA3E0FD7F217E00020AD080
:10076D00120BD7120BB2120897900028E0FEA3E0EF
:10077D00FFE4FCFD7BFF7AFFF9F8120075E47BE8DE
:10078D007A03F9F8120A2AEF2430FFEE34F8FEED61
:10079D0034FFFDEC34FFFC90002E1201A3E47FE842
:1007AD007E03FDFC900000E0F8A3E0F9A3E0FAA3BE
:1007BD00E0FB120075C006C007900028E0FEA3E024
:1007CD00FBAA06E4F9F8D007D00612010090002626
:1007DD00EEF0A3EFF012036F300002C200B2A730AB
:1007ED00830A900034E4F0A304F08007E490003411
:0E07FD00F0A3F01209191205E11204FC809F0E
:100B2300EF1FAC0670011E4C6010900050E004F003
:0A0B330070EE90004FE004F080E641
:010B3D002295
:080AFC00900051EEF0A3EFF0B1
:100B0400E4FBFAD3900052E09B900051E09A400E2F
:0E0B14007FDE7E01120B230BBB00010A80E581
:010B220022B0
:020006007F0178
:0100080022D5
:10089700E4900024F0A3F0900034F0A3F090002837
:1008A7007403F0A374E8F0900022E4F0A37464F0FA
:1008B700E4900004F0A3F0A3F0A3F0A3F0A3F0A347
:1008C700F0A3F0A3F0A3F0A3F0A3F0A3F0A3F0A389
:1008D700F0A3F0A3F0A3F0A3F0A3F0A3F0A3F0A379
:1008E700F0A3F0A3F0A3F0A3F0A3F0A3F0A3F0907C
:1008F700002CF0A3F0900032F0A3F0900026F0A3B4
:10090700F090002AF0A3F09000001201AF00000061
:020917000022BC
:020BDE007F0195
:010BE00022F2
:100B9E00AE071FEE600DE4FCFD0DED70010C4C6018
:030BAE00EF80F6DF
:010BB1002221
:0D0BC100E4F5C7F5C5F5C675C380F5C4227F
:100B710075C78375C5018FC4EEF5C375C65A75C6B1
:070B8100A500AFC2120BC179
:010B8800224A
:100B580075C78375C5028FC4EEF5C3AF058FC2751F
:090B6800C65A75C6A500020BC1B6
:100B890075C78375C5038FC4EEF5C375C65A75C697
:050B9900A500020BC1E4
:10000E00C1004F0038FFFFFFFFFFFFFFFFFFFFFFA5
:10001E00FFFFFFFF4100470041003700410036005F
:0F0BB200759A50759CFD758E1475AF01D2AF22E8
:03004300020AA10D
:100AA100C0E0C0F0C083C082C0D075D008E59A30E4
:100AB100E008539AFEAF9B120986E59A30E105538F
:0F0AC1009AFDC201D0D0D082D083D0F0D0E032E5
:090BCE002001FDEFD201F59B228C
:100A6E0090004CEBF0A3EAF0A3E9F090004CE0FB11
:100A7E00A3E0FAA3E0F9120046601790004CA3E43D
:100A8E0075F00112005FA9F0FA120046FF120BCEAC
:030A9E0080D922DA
:100AD000AB07AA067F5A120BCE7FA5120BCE7F055D
:100AE000120BCE7F82120BCEEAFF120BCEAF031297
:0C0AF0000BCEECFF120BCEAF05020BCEBC
:10098600900047E01460111460161460222403706E
:1009960043EF645A70448010EFB4A502800A803594
:1009A600900036EFF0E4A3F0900047E004F02290C8
:1009B6000037E02438F582E43400F583EFF0900048
:1009C60037E004F0900036E0FFA3E0C39F400B122F
:0B09D60001E0800100E4900047F022E7
:1001E00090003CE0FEA3E0FDEDFF900055EEF0A393
:1001F000EFF090003AE0B4013F900055E0FEA3E03C
:10020000FF900028EEF0A3EFF0E4FCFD7BFF7AFF07
:10021000F9F8120075E47BE87A03F9F8120A2AEF7C
:100220002430FFEE34F8FEED34FFFDEC34FFFC909B
:10023000002E1201A302036C90003AE0FFB4030DFC
:10024000900055E0FDA3E0900022020352EFB405B8
:100250000D900055E0FFA3E09000040203399000E8
:100260003AE0FFB4070D900055E0FDA3E0900006D2
:10027000020352EFB4090D900055E0FFA3E0900097
:100280000802033990003AE0FFB40B0D900055E0EE
:10029000FDA3E090000A020352EFB40D0D9000554B
:1002A000E0FFA3E090000E02033990003AE0FFB4B3
:1002B0000F0D900055E0FDA3E0900010020352EFF7
:1002C000B4110C900055E0FFA3E0900014806A90F8
:1002D000003AE0FFB4130C900055E0FDA3E090005D
:1002E00016806FEFB4150C900055E0FFA3E090006E
:1002F0001A804690003AE0FFB4170C900055E0FDDC
:10030000A3E090001C804BEFB4190C900055E0FF67
:10031000A3E0900020802290003AE0FFB4300C90DF
:100320000055E0FDA3E090000C8027EFB43211905F
:100330000055E0FFA3E0900012CFF0A3EFF0802C77
:1003400090003AE0FFB43411900055E0FDA3E09036
:100350000018CDF0A3EDF08013EFB4360F900055E8
:0E036000E0FFA3E090001ECFF0A3EFF0D2006C
:01036E00226C
:03000B000209E106
:1009E100C0E0C0F0C083C082C0D075D008758ACD88
:1009F100758CD490005374FFF5F012005F45F070D0
:100A01001D900053F0A37409F0B2A7900034E430B4
:100A11008306F0A304F08003F0A3F0120919D0D0EB
:090A2100D082D083D0F0D0E03285
:100B3E00758E80758901758ACD758CD4D28CD2A9AB
:0A0B4E00D2AFE4900053F0A3F022B0
:04002E004100570036
:10091900900057E014601A14602714604F24037084
:100929005A3082063084032085529000577401F0B2
:100939002230820630840320853B9000577402F0F0
:1009490022208217900034E07002A3E0600D90002D
:1009590024E4F0A304F0E4900049F0208407E49033
:100969000024F0A3F09000577403F02230820D3078
:0D097900840A308507E4900057F022002228
:100032004100491441004B1441004A144100481444
:1005E100900049E014602F14606614607714700362
:1005F100020685240460030206B9E490004AF0E093
:1006010075F006A4240EF582E43400F583A3E0908E
:100611000048F0A3806A90004AE0FF75F006A42428
:100621000EF582E43400F583E0FCA3E04C601AEFA0
:1006310075F006A4240AF582E43400F583E0FEA3F4
:10064100E04E600590004980379000497404F02223
:10065100E490004BF09000001201AF000000009008
:100661000049801C90004BE06414704D900048E0FC
:1006710014F0E0D394004005A37402F022900049E5
:10068100E004F02290004AE004F0E0FF75F006A4D7
:10069100240EF582E43400F583A3E0900048F0EFE6
:1006A100C394045005A37401F0229000497414F01E
:0A06B100E4900024F0A3F0220022E0
:1004FC0090004BE014602714605B14700302059DA0
:10050C001470030205C91470030205D52405600399
:10051C000205DFD295D296C290D2910205CC900002
:10052C004AE075F006A4240AF582E43400F583E071
:10053C00FEA3E07803CEC313CE13D8F9FDAC06D3DB
:10054C00900027E09D900026E09C50030205E0D22D
:10055C0090C295806D90004AE075F006A4240AF5CF
:10056C0082E43400F583E0FCA3E0FDAE047803CE16
:10057C00C313CE13D8F9FFC3ED9FFDEC9EFCD390B3
:10058C000027E09D900026E09C4049C290D29580C7
:10059C003190004AE075F006A4240AF582E4340098
:1005AC00F583E0FEA3E0FFD3900027E09F900026A8
:1005BC00E09E4020D29020801BC2948005208114A4
:1005CC00D29490004BE004F02220800890004B74F1
:0405DC0014F02200F5
:0105E00022F8
:1008170002076DE493A3F8E493A34003F68001F283
:1008270008DFF48029E493A3F85407240CC8C333E2
:10083700C4540F4420C8834004F456800146F6DFB1
:10084700E4800B010204081020408090000EE47E33
:10085700019360BCA3FF543F30E509541FFEE493A6
:10086700A360010ECF54C025E060A840B8E493A36D
:10087700FAE493A3F8E493A3C8C582C8CAC583CA98
:10088700F0A3C8C582C8CAC583CADFE9DEE780BE50
:0100420000BD
:10004600BB010689828A83E0225002E722BBFE02B8
:09005600E32289828A83E49322EB
:10005F00A3F8E0C5F025F0F0E58215827002158354
:06006F00E0C838F0E822B1
:10007500E88FF0A4CC8BF0A42CFCE98EF0A42CFC2A
:100085008AF0EDA42CFCEA8EF0A4CDA8F08BF0A4A8
:100095002DCC3825F0FDE98FF0A42CCD35F0FCEB07
:1000A5008EF0A4FEA9F0EB8FF0A4CFC5F02ECD39CC
:0F00B500FEE43CFCEAA42DCE35F0FDE43CFC2239
:1000C40075F008758200EF2FFFEE33FECD33CDCCF3
:1000D40033CCC58233C5829BED9AEC99E582984076
:1000E4000CF582EE9BFEED9AFDEC99FC0FD5F0D653
:1000F400E4CEFBE4CDFAE4CCF9A88222B800C1B97D
:100104000059BA002DEC8BF084CFCECDFCE5F0CBBA
:10011400F97818EF2FFFEE33FEED33FDEC33FCEBF3
:1001240033FB10D703994004EB99FB0FD8E5E4F9AE
:10013400FA227818EF2FFFEE33FEED33FDEC33FC9B
:10014400C933C910D7059BE99A4007EC9BFCE99A8F
:10015400F90FD8E0E4C9FAE4CCFB2275F010EF2FD4
:10016400FFEE33FEED33FDCC33CCC833C810D707D4
:100174009BEC9AE899400AED9BFDEC9AFCE899F80F
:0E0184000FD5F0DAE4CDFBE4CCFAE4C8F922A2
:100A2A00C2D5E830E70FB2D5E4C39BFBE49AFAE4F7
:100A3A0099F9E498F8EC30E717B2D5120A60120176
:100A4A0000E4C39BFBE49AFAE499F9E498F880037A
:100A5A0012010030D50DE4C39FFFE49EFEE49DFD24
:040A6A00E49CFC22EA
:10019200EB9FF5F0EA9E42F0E99D42F0E89C45F0C3
:0101A200223A
:0C01A300ECF0A3EDF0A3EEF0A3EFF022CF
:1001AF00A8828583F0D083D0821201C61201C612B5
:1001BF0001C61201C6E473E493A3C583C5F0C583DA
:1001CF00C8C582C8F0A3C583C5F0C583C8C582C89A
:0101DF0022FD
:00000001FF
