:03000000020D5599
:0C0D5500787FE4F6D8FD758120020D9C2B
:03000300020AC826
:100AC800C0E0C0F0C083C082C0D075D000C000C0F4
:100AD80001C002C003C004C005C006C00720A0367C
:100AE800E4FFFEFDFC900000E0F8A3E0F9A3E0FAC3
:100AF800A3E0FBD31204B4405E900000E0FCA3E046
:100B0800FDA3E0FEA3E024FFFFEE34FFFEED34FF7B
:100B1800FDEC34FF803A900034E0FCA3E0FDA3E054
:100B2800FEA3E0FF900000E0F8A3E0F9A3E0FAA339
:100B3800E0FBD31204B4501F900000E0FCA3E0FDDA
:100B4800A3E0FEA3E02401FFE43EFEE43DFDE43C17
:100B5800FC9000001204C5D202D007D006D005D000
:100B680004D003D002D001D000D0D0D082D083D01E
:040B7800F0D0E032A7
:07111900D288D2A8D2AF2258
:1008570090002EE0FCA3E0FD7F017E0012101390B4
:100867000028E0FCA3E0FD7F037E00121013900038
:1008770008E0FCA3E0FD7F057E0012101390000A3C
:10088700E0FCA3E0FD7F077E0012101390000CE050
:10089700FCA3E0FD7F097E00121013900010E0FC1E
:1008A700A3E0FD7F0B7E00121013900012E0FCA363
:1008B700E0FD7F307E00121013900014E0FCA3E0EF
:1008C700FD7F0D7E00121013900016E0FCA3E0FDE3
:1008D7007F0F7E00121013900018E0FCA3E0FD7F4D
:1008E700327E0012101390001AE0FCA3E0FD7F1186
:1008F7007E0012101390001CE0FCA3E0FD7F137E26
:100907000012101390001EE0FCA3E0FD7F347E0070
:10091700121013900020E0FCA3E0FD7F157E00126B
:100927001013900022E0FCA3E0FD7F177E00121059
:1009370013900024E0FCA3E0FD7F367E0012101325
:10094700900026E0FCA3E0FD7F197E0012101390B3
:10095700002AE0FCA3E0FDE4FFFE12101390000E56
:10096700E0FCA3E0FD7F387E00121013900004E046
:10097700FCA3E0FD7F3A7E00121013900032E0FCEA
:10098700A3E0FD7F1B7E00121013900038E0FCA34C
:10099700E0FD7F1D7E0012101390002CE0FCA3E009
:1009A700FD7F1F7E00121013900030E0FCA3E0FDD6
:0709B7007F217E00021013F6
:100B7C001211191210F412109A120CC590002EE0DA
:100B8C00FEA3E0FFE4FCFD7BFF7AFFF9F81203976C
:100B9C00E47BE87A03F9F8120FA0EF2430FFEE346F
:100BAC00F8FEED34FFFDEC34FFFC9000341204C56C
:100BBC00900028E0FEA3E0FF7C037DE812031A906E
:100BCC00002EE0FCA3E0FD12032C900006EEF0A337
:100BDC00EFF0D202E47FE87E03FDFC900000E0F829
:100BEC00A3E0F9A3E0FAA3E0FB120397C006C00749
:100BFC0090002EE0FEA3E0FBAA06E4F9F8D007D0A3
:100C0C000612042290002CEEF0A3EFF0300205C285
:0E0C1C00021208573000BD120EFCC20080B656
:10106600EF1FAC0670011E4C601090005CE004F0AF
:0A10760070EE90005BE004F080E6ED
:01108000224D
:08103F00900059EEF0A3EFF060
:10104700E4FBFAD390005AE09B900059E09A400ED7
:0E1057007FDE7E011210660BBB00010A80E5F1
:011065002268
:100DE1009000587401F07FC87E001210B3EF64EEDA
:100DF100704BFFFE1210B3EF7F00FEC007C0060F5D
:100E01007E001210B3EFFDD0E0FFD0E04D90002E38
:100E1100CFF0A3EFF07F027E001210B3EF7F00FE50
:100E2100C007C0067F037E001210B3EFFDD0E0FFC4
:100E3100D0E04D900028CFF0A3EFF08005E49000C2
:070E410058F0900058E0FF9B
:010E48002287
:100CC500E490002AF0A3F090000EF0A3F090000449
:100CD500F0A3F0120DE1EF701390002E7403F0A352
:100CE50074E8F0900028E4F0A37464F0E490000840
:100CF500F0A3F0A3F0A3F0A3F0A3F0900010F0A3ED
:100D0500F0A3F0A3F0A3F0A3F0A3F0A3F0A3F0A346
:100D1500F0A3F0A3F0A3F0A3F0A3F0A3F0A3F0A336
:100D2500F0A3F0A3F0A3F0A3F0A3F0A3F09000329A
:100D3500F0A3F0900038F0A3F090002CF0A3F09011
:100D45000030F0A3F09000001204D1000000002252
:100EFC009000587401F07F0A7E0012103FE4FFFE50
:100F0C001210CB90002EE0FDE4FFFE121081900039
:100F1C002EA3E0FD7F017E00121081900028E0FDE1
:100F2C007F027E00121081900028A3E0FD7F037EDB
:100F3C00001210817DEE7FC87E0012108190005847
:020F4C00E0FFC4
:010F4E002280
:1010E000AE071FEE600DE4FCFD0DED70010C4C60D1
:0310F000EF80F698
:0110F30022DA
:0D110300E4F5C7F5C5F5C675C380F5C42237
:1010B30075C78375C5018FC4EEF5C375C65A75C66A
:0710C300A500AFC2121103EA
:0110CA002203
:1010810075C78375C5028FC4EEF5C3AF058FC275F1
:09109100C65A75C6A50002110340
:1010CB0075C78375C5038FC4EEF5C375C65A75C650
:0510DB00A50002110355
:100F4F00C102C10041004B004F003CFFFFFFFFFFFC
:100F5F00FFFFFFFFFFFFFFFFFFFF41004C004100BE
:060F6F003B0041003A00C6
:0F10F400759A50759CFD438E1475AF01D2AF22D3
:03004300020FE4C5
:100FE400C0E0C0F0C083C082C0D075D008E59A309C
:100FF400E008539AFEAF9B120E49E59A30E105537F
:0F1004009AFDC201D0D0D082D083D0F0D0E0329C
:091110002001FDEFD201F59B2244
:10000E00900063EBF0A3EAF0A3E9F0900063E0FB4D
:10001E00A3E0FAA3E0F91203016017900063A3E4D2
:10002E0075F001120381A9F0FA120301FF121110EB
:03003E0080D92244
:10101300AB07AA067F5A1211107FA51211107F0584
:101023001211107F82121110EAFF121110AF031276
:0C1033001110ECFF121110AF050211109B
:100E490090004CE0146011146016146022240370A1
:100E590043EF645A70448010EFB4A502800A8035CC
:100E690090003AEFF0E4A3F090004CE004F02290F7
:100E7900003BE0243CF582E43400F583EFF0900078
:100E89003BE004F090003AE0FFA3E0C39F400B125F
:0B0E99000046800100E490004CF022B5
:10004600900040E0FEA3E0FDEDFF90005DEEF0A322
:10005600EFF090003EE0B4014190005DE0FEA3E0C9
:10006600FF90002EEEF0A3EFF0E4FCFD7BFF7AFF9D
:10007600F9F8120397E47BE87A03F9F8120FA0EF78
:100086002430FFEE34F8FEED34FFFDEC34FFFC9037
:1000960000341204C5D2000202FE90003EE0FFB416
:1000A600031490005DE0FDA3E0900028CDF0A3EDE1
:1000B600F0D2000202FEEFB4050D90005DE0FFA352
:1000C600E09000080201D390003EE0FFB4070D90D7
:1000D600005DE0FDA3E090000A0201BDEFB4090D4A
:1000E60090005DE0FFA3E090000C0201D390003E7B
:1000F600E0FFB40B0D90005DE0FDA3E09000100260
:1001060001BDEFB40D0D90005DE0FFA3E09000147B
:100116000201D390003EE0FFB40F0D90005DE0FDBC
:10012600A3E09000160201BDEFB4110D90005DE052
:10013600FFA3E090001A0201D390003EE0FFB41343
:100146000C90005DE0FDA3E090001C806AEFB41502
:100156000C90005DE0FFA3E0900020807090003ED0
:10016600E0FFB4170C90005DE0FDA3E09000228054
:1001760046EFB4190C90005DE0FFA3E090002680E6
:100186004C90003EE0FFB4300C90005DE0FDA3E033
:100196009000128022EFB4320C90005DE0FFA3E0E5
:1001A600900018802890003EE0FFB4341290005D65
:1001B600E0FDA3E090001ECDF0A3EDF00202FEEFFD
:1001C600B4361290005DE0FFA3E0900024CFF0A3C8
:1001D600EFF00202FE90003EE0FFB4381D90000EE4
:1001E600E07004A3E0640190000E7006F0A3F00234
:1001F60002FEE4F0A304F00202FEEFB43A219000FE
:1002060004E07004A3E064019000047008F0A3F019
:10021600D2A40202FEE4F0A304F0C2A40202FE90FD
:10022600003EE0FFB4231990002AE07002A3E060CC
:10023600030202FE90004FF090004B04F00202FE13
:10024600EFB4241A90002AE07002A3E060030202D1
:10025600FE90004F7402F090004BF00202FE9000F8
:100266003EE0FFB4251A90002AE07002A3E0600386
:100276000202FE90004F7404F090004B14F0807858
:10028600EFB4261890002AE07002A3E0706A90008E
:100296004F7406F090004B7404F0805C90003EE0D2
:1002A600FFB4271890002AE07002A3E0704A90007D
:1002B6004F7408F090004B7405F0803CEFB428387A
:1002C6009000507414F0900057F0E490002AF0A3C8
:1002D600F0900032F0A3F0900038F0A3F090000008
:1002E6001204D100000000E4900030F0A3F090006A
:0A02F60051F090004D7414F0D20294
:0103000022DA
:03000B00020EA43E
:100EA400C0E0C0F0C083C082C0D075D008758ACDC0
:100EB400758CD4900066E0FF14F0EF70309000540D
:100EC400E004F07006900053E004F0900056E00453
:100ED400F07006900055E004F0B2A71209BE1206A5
:100EE400E5120502120C2A9000667409F0D0D0D0E5
:080EF40082D083D0F0D0E0327F
:10109A00438E80758901758ACD758CD4D28CD2A97C
:0910AA00D2AF9000667409F02237
:040F750041006700D0
:1009BE00900067E0146023146033147003020AB7CA
:1009CE0024036003020AC630820930840630850390
:1009DE00020AC79000677401F02230820630840349
:1009EE002085079000677402F022020AC020822F31
:1009FE0090002AE07004A3E06401602390002AE4D2
:100A0E00F0A304F0900051E0900050F090004DE003
:100A1E00900057F0E4900053F0A3F0D2A5D202203C
:100A2E00846290002AE0FEA3E0FF64014E702C90D9
:100A3E000050E0900051F0900057E090004DF09083
:100A4E0000507414F0900057F0D296D294D295D2F2
:100A5E0097D290D291E490002A8024EF64024E70D7
:100A6E0023900051E0900050F090004DE090005720
:100A7E00F090002AE4F0A304F0D2A5E4900053F025
:100A8E00A3F0D20220851B900057E0B416122080EE
:100A9E000FC290E4900053F0A3F09000577404F04E
:100AAE00D2029000677403F02230820D30840A3037
:0A0ABE008507E4900067F022002293
:100F790041005014410051004100571441004D14E3
:100F89004100521441004E14420053000041004FE9
:060F9900144200550000A7
:100C2A0090004FE0B40A004003020CC3900C3DF858
:100C3A00282873020C5B020C5D020C6E020C720215
:100C4A000C5B020C90020CA3020CA7020CAE020C65
:100C5A00B78028D3900056E0940A900055E094009B
:100C6A0040588031C2978015D3900056E0940A907C
:100C7A000055E094004043D2978037C295E4900033
:100C8A0055F0A3F08020D3900056E0940A900055C6
:100C9A00E094004025D2958019C291800920801ADB
:100CAA00D291800EC29090004FE004F02220810A77
:0B0CBA00D29090004F7414F022002232
:1006E500900050E01460401460781470030207BE57
:1006F5001470030207F124046003020855E4900016
:1007050052F0E075F006A42414F582E43400F58374
:10071500A3E0FE90004EF0E4900030F0A3F09000CE
:1007250038F0A3CEF0802E900052E0FF75F006A4BD
:100735002414F582E43400F583E0FCA3E04C601B4F
:10074500EF75F006A42410F582E43400F583E0FE8D
:10075500A3E04E60069000500207ED90005074042F
:10076500F022900052E0FB75F006A42412F582E415
:100775003400F583E0FCA3E0FD900030E0FEA3E04B
:10078500FF12031AEB75F006A42410F582E4340079
:10079500F583E0FCA3E0C39FFFEC9E900032F0A33D
:1007A500EFF0E4900057F09000001204D100000033
:1007B50000900050E004020851900057E064146076
:1007C5000302085690004EE014F0900031E004F06A
:1007D5007006900030E004F090004EE0D394009055
:1007E500005040047402F022E004F022900052E030
:1007F50004F0E0FFC39404502AEF75F006A4241416
:10080500F582E43400F583A3E0FE90004EF0E49019
:100815000030F0A3F0900038F0A3CEF090005074B3
:1008250001F0229000507414F0E490002AF0A3F037
:10083500900032F0A3F0900038F0A3F09000001281
:1008450004D100000000E4900030F0A3F0D20222B1
:0208550000227F
:10050200900057E0F924EC70030206E424FE700325
:100512000206E12416B4060040030206E390052613
:10052200F82828730205380205470205960205ECF1
:1005320002063F02068CC296D294C295D297D290FE
:10054200D291020685C295C296900006E0FEA3E013
:10055200FFC3900033E09FFF900032E09E90005F67
:10056200F0A3EFF090005FE0FEA3E07803CEC313A8
:10057200CE13D8F9FF900061EEF0A3EFF0D3900014
:100582002DE09F90002CE09E50030206E4C295C22B
:1005920096020685C295C296900006E0FEA3E0FF91
:1005A200C3900033E09FFD900032E09EFC90005F1C
:1005B200F0A3EDF090005FE0FEA3E07803CEC3135A
:1005C200CE13D8F9FFC3ED9FFFEC9EFE900061F0C1
:1005D200A3EFF0D390002DE09F90002CE09E5003FB
:1005E2000206E4C295D296020685C295900006E004
:1005F200FEA3E0FFC3900033E09FFF900032E09E35
:10060200FE90005FF0A3EFF0D390002DE09F9000EA
:100612002CE09E50030206E4D2953080030206E4E9
:1006220090000EE07004A3E06401700AC290900092
:1006320053F0A3F0804D9000577416F022C290D36D
:10064200900054E094E8900053E09403402E900010
:1006520050E0A3F090004DE9F09000507414F09037
:100662000057F0D296D294D295D297D290D291C21C
:10067200A590002AE4F0A37402F0D202208163D292
:1006820090C291900057E004F022C291D39000549E
:10069200E094E8900053E09403402E900050E0A3D1
:1006A200F090004DE9F09000507414F0900057F073
:1006B200D296D294D295D297D290D291C2A59000DE
:1006C2002AE4F0A37402F0D202208016D2919000A4
:1006D200577414F09000001204D1000000002200B0
:0206E2002200F4
:0106E40022F3
:100D6100020B7CE493A3F8E493A34003F68001F221
:100D710008DFF48029E493A3F85407240CC8C33393
:100D8100C4540F4420C8834004F456800146F6DF62
:100D9100E4800B0102040810204080900F4FE47E94
:100DA100019360BCA3FF543F30E509541FFEE49357
:100DB100A360010ECF54C025E060A840B8E493A31E
:100DC100FAE493A3F8E493A3C8C582C8CAC583CA49
:100DD100F0A3C8C582C8CAC583CADFE9DEE780BE01
:010F9F000051
:10030100BB010689828A83E0225002E722BBFE02FA
:09031100E32289828A83E493222D
:10031A00EF8DF0A4A8F0CF8CF0A428CE8DF0A42EF7
:02032A00FE22B1
:10032C00BC000BBE0029EF8DF084FFADF022E4CCB5
:10033C00F875F008EF2FFFEE33FEEC33FCEE9DEC7E
:10034C00984005FCEE9DFE0FD5F0E9E4CEFD22EDC4
:10035C00F8F5F0EE8420D21CFEADF075F008EF2F0E
:10036C00FFED33FD4007985006D5F0F222C398FDFF
:05037C000FD5F0EA229C
:10038100A3F8E0C5F025F0F0E5821582700215832F
:06039100E0C838F0E8228C
:10039700E88FF0A4CC8BF0A42CFCE98EF0A42CFC05
:1003A7008AF0EDA42CFCEA8EF0A4CDA8F08BF0A483
:1003B7002DCC3825F0FDE98FF0A42CCD35F0FCEBE2
:1003C7008EF0A4FEA9F0EB8FF0A4CFC5F02ECD39A7
:0F03D700FEE43CFCEAA42DCE35F0FDE43CFC2214
:1003E60075F008758200EF2FFFEE33FECD33CDCCCE
:1003F60033CCC58233C5829BED9AEC99E582984051
:100406000CF582EE9BFEED9AFDEC99FC0FD5F0D62D
:10041600E4CEFBE4CDFAE4CCF9A88222B800C1B957
:100426000059BA002DEC8BF084CFCECDFCE5F0CB95
:10043600F97818EF2FFFEE33FEED33FDEC33FCEBCE
:1004460033FB10D703994004EB99FB0FD8E5E4F989
:10045600FA227818EF2FFFEE33FEED33FDEC33FC76
:10046600C933C910D7059BE99A4007EC9BFCE99A6A
:10047600F90FD8E0E4C9FAE4CCFB2275F010EF2FAF
:10048600FFEE33FEED33FDCC33CCC833C810D707AF
:100496009BEC9AE899400AED9BFDEC9AFCE899F8EA
:0E04A6000FD5F0DAE4CDFBE4CCFAE4C8F9227D
:100FA000C2D5E830E70FB2D5E4C39BFBE49AFAE47C
:100FB00099F9E498F8EC30E717B2D5120FD612047D
:100FC00022E4C39BFBE49AFAE499F9E498F88003DD
:100FD00012042230D50DE4C39FFFE49EFEE49DFD84
:040FE000E49CFC226F
:1004B400EB9FF5F0EA9E42F0E99D42F0E89C45F09E
:0104C4002215
:0C04C500ECF0A3EDF0A3EEF0A3EFF022AA
:1004D100A8828583F0D083D0821204E81204E81246
:1004E10004E81204E8E473E493A3C583C5F0C5836B
:1004F100C8C582C8F0A3C583C5F0C583C8C582C875
:0105010022D7
:00000001FF
