:030000000204AE49
:0C04AE00787FE4F6D8FD75810F0204F59C
:0A077400D295D296C2B4B2B480FC54
:1006FF00EF1FAC0670011E4C6010900055E004F027
:0A070F0070EE900054E004F080E664
:0107190022BD
:0806D800900056EEF0A3EFF0D4
:1006E000E4FBFAD3900057E09B900056E09A400E4E
:0E06F0007FDE7E011206FF0BBB00010A80E5D3
:0106FE0022D9
:1004040090004BE4F0A304F07F0A1207607F007EA3
:1004140001120733EF64EE60030204A0900049F078
:10042400A3F0900049E0FEA3E0FFC39408EE94001B
:100434005060EF25E0FFEE33FE120733EF7F00FE3E
:10044400C007C00690004AE025E0FF900049E03371
:10045400FEEF2401FFE43EFE120733EFFDD0E0FC83
:10046400D0E04DFD900049E0FEA3E07803C333CE15
:1004740033CED8F9240AF58274003EF583ECF0A358
:10048400EDF090004AE004F07098900049E004F028
:10049400809090004BE4F0A304F08007E490004BBC
:0904A400F0A3F090004BA3E0FF6F
:0104AD00222C
:10035800E4900007F0900000F0FFEF75F008A42487
:1003680009F582E43400F5837401F0EF75F008A410
:10037800240CF582E43400F583E4F0A3F00FEFB425
:1003880008D8E4900011F0900019F0120404EF70FE
:100398004E90000A7407F0A304F09000127402F063
:1003A800A374D0F090001A7402F0A374D0F09000F7
:1003B800227401F0A3742CF090002A7401F0A37445
:1003C8002CF09000327401F0A3742CF090003A7471
:1003D80001F0A3742CF09000427407F0A304F0E439
:1003E800900002F0A37402F0E4A3F0900006F090ED
:0B03F8000008F0900001F0900005F0FC
:0104030022D6
:10001E0090004FE4F0A304F07F0A120760E4FFFEA5
:10002E0012074BE490004DF0A3F090004DE0FEA3BC
:10003E00E0FFC3EE9402501E120733EFF46007E4A4
:10004E0090004FF0A3F090004EE004F070DC9000B2
:10005E004DE004F080D47F0A120760E490004DF06A
:10006E00A3F090004DE0FCA3E0FD25E0FFEC33FE95
:10007E00C006C007EDAE047803C333CE33CED8F935
:10008E00240EF58274003EF583E0FDD007D00612F3
:10009E00071A90004DE0FCA3E0FD25E0FFEC33FED7
:1000AE00EF2401FFE43EFEC006C007EDAE04780368
:1000BE00C333CE33CED8F9240EF58274003EF583C9
:1000CE00A3E0FDD007D00612071A90004EE004F010
:1000DE00700690004DE004F0C390004EE09408903E
:1000EE00004DE0940050030200707DEE7F007E0113
:1000FE0012071A7F0A120760E490004DF0A3F090E9
:10010E00004DE0FEA3E0FFC39408EE9400507CEF98
:10011E0025E0FFEE33FE120733AD0790004DE0FAF7
:10012E00A3E0FBAE027803C333CE33CED8F9240E50
:10013E00F58274003EF583E06D6007E490004FF0A9
:10014E00A3F0EB25E0FFEA33FEEF2401FFE43EFED1
:10015E00120733AD0790004DE0FEA3E07803C333E2
:10016E00CE33CED8F9240EF58274003EF583A3E08B
:10017E006D6007E490004FF0A3F090004EE004F0A5
:10018E00700690004DE004F002010DE490004DF079
:10019E00A3F090004DE0FEA3E0FFC39408EE9400A0
:1001AE005038EF7803C333CE33CED8F9FF240EF593
:1001BE008274003EF583E0FCA3E0FD740A2FF58205
:1001CE0074003EF583ECF0A3EDF090004EE004F0E9
:1001DE0070C090004DE004F080B890004FA3E0FF97
:0101EE0022EE
:10076000AE071FEE600DE4FCFD0DED70010C4C605A
:03077000EF80F621
:010773002263
:0D000E00E4F5C7F5C5F5C675C380F5C4223D
:1007330075C78375C5018FC4EEF5C375C65A75C6F3
:07074300A500AFC212000E79
:01074A00228C
:10071A0075C78375C5028FC4EEF5C3AF058FC27561
:09072A00C65A75C6A50002000EB6
:10074B0075C78375C5038FC4EEF5C375C65A75C6D9
:05075B00A50002000EE4
:1001EF00E4FBEB75F008A42409F582E43400F583F1
:1001FF00E0FF64016008EF6402600302029CEB758C
:10020F00F008A4240CF582E43400F583E475F001C2
:10021F00120602EB75F008A4240AF582E43400F507
:10022F0083E0FEA3E0FFEB75F008A4240CF582E455
:10023F003400F583E0FCA3E0C39FEC9E402CEB6001
:10024F001764076013EB75F008A42409F582E434F2
:10025F0000F5837402F08012EB75F008A4240CF5FE
:10026F0082E43400F583E4F0A3F0EB75F008A424E6
:10027F000CF582E43400F583E0FEA3E0FF7C007D03
:10028F003C1205ADED4C700590000804F00BEB64CB
:06029F000860030201F1FA
:0102A5002236
:03000B0002067C6E
:10067C00C0E0C0F0C083C082C0D075D008758A209D
:10068C00758CD1900051E004F0900006E0FF6402FC
:10069C006004EFB401031202A6D0D0D082D083D074
:0406AC00F0D0E03278
:03001B0002053AA1
:10053A00C0E0C0F0C083C082C0D075D008758BA05F
:10054A00758D15900053E004F0900000E06404609B
:10055A0047900053E0B4C828E4F01201EF9000007D
:10056A00E004F07006900000E004F0900052E0040D
:10057A00F0E0B4050B9000087403F0900052E4F028
:10058A00900053E020E011900007E070051200008F
:10059A008003120000120618D0D0D082D083D0F087
:0305AA00D0E0326C
:1006B000758EC0758911758A20758CD1D28CD2A99E
:1006C000758BA0758D15D28ED2ABD2AFE49000534E
:0806D000F0900051F0A3F022AC
:04077E0041005800DE
:1002A600900058E0FF700930B40302035704F022AF
:1002B600EF6401704920B444900006E0FFB4021ACE
:1002C600900004E004F09000087401F0900004E04F
:1002D600D3940E4020740EF0801BEFB401179000EB
:1002E60004E014F09000087401F0900004E0D39448
:1002F600C84002E4F09000587402F022804E90004C
:1003060058E0B4020730B4497403F02230B4429086
:100316000006E0FFB4021A900004E004F090000822
:100326007401F0900004E0D3940E4020740EF08027
:100336001BEFB40117900004E014F090000874015C
:10034600F0900004E0D394C84002E4F0E490005832
:02035600F02293
:0407820041005900D9
:10061800900059E014601714602114604924037095
:100628005130950320964C9000597401F022309572
:10063800032096389000597402F02220950F9000FC
:1006480041E0B401087402F090000814F020960FFD
:10065800900009E0B401087402F090000814F090CA
:1006680000597403F02230950A309607E490005937
:04067800F02200224A
:1004BA00020774E493A3F8E493A34003F68001F2DD
:1004CA0008DFF48029E493A3F85407240CC8C33343
:1004DA00C4540F4420C8834004F456800146F6DF12
:1004EA00E4800B010204081020408090077EE47E1D
:1004FA00019360BCA3FF543F30E509541FFEE49307
:10050A00A360010ECF54C025E060A840B8E493A3CD
:10051A00FAE493A3F8E493A3C8C582C8CAC583CAF8
:10052A00F0A3C8C582C8CAC583CADFE9DEE780BEB0
:010786000072
:1005AD00BC000BBE0029EF8DF084FFADF022E4CC32
:1005BD00F875F008EF2FFFEE33FEEC33FCEE9DECFB
:1005CD00984005FCEE9DFE0FD5F0E9E4CEFD22ED41
:1005DD00F8F5F0EE8420D21CFEADF075F008EF2F8B
:1005ED00FFED33FD4007985006D5F0F222C398FD7C
:0505FD000FD5F0EA2219
:10060200C5F0F8A3E028F0C5F0F8E5821582700283
:060612001583E038F02220
:00000001FF
