:0300000002078371
:0C078300787FE4F6D8FD7581200207CADB
:03000300020633BF
:10063300C0E0C0F0C083C082C0D075D000C000C08D
:1006430001C002C003C004C005C006C00720A43611
:10065300E4FFFEFDFC900000E0F8A3E0F9A3E0FA5C
:10066300A3E0FBD3120192405E900000E0FCA3E004
:10067300FDA3E0FEA3E024FFFFEE34FFFEED34FF15
:10068300FDEC34FF803A900026E0FCA3E0FDA3E0FC
:10069300FEA3E0FF900000E0F8A3E0F9A3E0FAA3D3
:1006A300E0FBD3120192501F900000E0FCA3E0FD99
:1006B300A3E0FEA3E02401FFE43EFEE43DFDE43CB1
:1006C300FC9000001201A3D007D006D005D004D0BF
:1006D30003D002D001D000D0D0D082D083D0F0D0CC
:0206E300E03203
:070B3F00D288D2A8D2AF2238
:1001E000900020E0FCA3E0FD7F017E00120A389021
:1001F000001AE0FCA3E0FD7F037E00120A389000A5
:1002000004E0FCA3E0FD7F057E00120A38900006A2
:10021000E0FCA3E0FD7F077E00120A38900008E0B2
:10022000FCA3E0FD7F097E00120A3890000AE0FC82
:10023000A3E0FD7F0B7E00120A3890000CE0FCA3C7
:10024000E0FD7F0D7E00120A3890000EE0FCA3E076
:10025000FD7F0F7E00120A38900010E0FCA3E0FD45
:100260007F117E00120A38900012E0FCA3E0FD7FAF
:10027000137E00120A38900014E0FCA3E0FD7F1505
:100280007E00120A38900016E0FCA3E0FD7F177E86
:1002900000120A38900018E0FCA3E0FD7F197E00F0
:1002A000120A3890001CE07002A3E0700D90002C40
:1002B000E07002A3E07003FD802E90001CE070024D
:1002C000A3E0700E90002CE07002A3E060047D01BA
:1002D000801B90001CE07002A3E0600F90002CE0F7
:1002E0007002A3E070057D02FC80057D037C00E4C4
:1002F000FFFE120A38900024E0FCA3E0FD7F1B7E85
:1003000000120A3890002AE0FCA3E0FD7F1D7E0069
:10031000120A3890001EE0FCA3E0FD7F1F7E001251
:100320000A38900022E0FCA3E0FD7F217E00020A53
:010330003894
:1006E500120B3F120B1A12080F900020E0FEA3E038
:1006F500FFE4FCFD7BFF7AFFF9F8120075E47BE867
:100705007A03F9F8120992EF2430FFEE34F8FEED82
:1007150034FFFDEC34FFFC9000261201A3E47FE8D2
:100725007E03FDFC900000E0F8A3E0F9A3E0FAA346
:10073500E0FB120075C006C007900020E0FEA3E0B4
:10074500FBAA06E4F9F8D007D00612010090001EB6
:10075500EEF0A3EFF01201E0300002C200B2A730C4
:10076500830A90002CE4F0A304F08007E490002CA9
:0E077500F0A3F0120881120559120474809F3F
:100A8B00EF1FAC0670011E4C6010900048E004F0A4
:0A0A9B0070EE900047E004F080E6E2
:010AA500222E
:080A6400900049EEF0A3EFF051
:100A6C00E4FBFAD390004AE09B900049E09A400ED8
:0E0A7C007FDE7E01120A8B0BBB00010A80E5B3
:010A8A002249
:020006007F0178
:0100080022D5
:10080F00E490001CF0A3F090002CF0A3F0900020D7
:10081F007403F0A374E8F090001AE4F0A37464F08A
:10082F00E4900004F0A3F0A3F0A3F0A3F0A3F0A3CF
:10083F00F0A3F0A3F0A3F0A3F0A3F0A3F0A3F0A311
:10084F00F0A3F0A3F0A3F0A3F0A3F0A3F0A3F09014
:10085F000024F0A3F090002AF0A3F090001EF0A364
:10086F00F0900022F0A3F09000001201AF00000002
:02087F00002255
:020B46007F012D
:010B4800228A
:100B0600AE071FEE600DE4FCFD0DED70010C4C60B0
:030B1600EF80F677
:010B190022B9
:0D0B2900E4F5C7F5C5F5C675C380F5C42217
:100AD90075C78375C5018FC4EEF5C375C65A75C64A
:070AE900A500AFC2120B29AA
:010AF00022E3
:100AC00075C78375C5028FC4EEF5C3AF058FC275B8
:090AD000C65A75C6A500020B29E7
:100AF10075C78375C5038FC4EEF5C375C65A75C630
:050B0100A500020B2914
:10000E00C1004F0030FFFFFFFFFFFFFFFFFFFFFFAD
:10001E00FFFFFFFF41003F0041002F0041002E0077
:0F0B1A00759A50759CFD758E1475AF01D2AF2280
:03004300020A09A5
:100A0900C0E0C0F0C083C082C0D075D008E59A307C
:100A1900E008539AFEAF9B1208EEE59A30E10553C0
:0F0A29009AFDC201D0D0D082D083D0F0D0E0327D
:090B36002001FDEFD201F59B2224
:1009D600900044EBF0A3EAF0A3E9F0900044E0FBBA
:1009E600A3E0FAA3E0F91200466017900044A3E4DE
:1009F60075F00112005FA9F0FA120046FF120B36DD
:030A060080D92272
:100A3800AB07AA067F5A120B367FA5120B367F0525
:100A4800120B367F82120B36EAFF120B36AF0312F7
:0C0A58000B36ECFF120B36AF05020B361C
:1008EE0090003FE01460111460161460222403700F
:1008FE0043EF645A70448010EFB4A502800A80352D
:10090E0090002EEFF0E4A3F090003FE004F0229070
:10091E00002FE02430F582E43400F583EFF09000F0
:10092E002FE004F090002EE0FFA3E0C39F400B12D7
:0B093E000331800100E490003FF02234
:10033100900034E0FEA3E0FDEDFF90004DEEF0A350
:10034100EFF0900032E0B4013F90004DE0FEA3E0F9
:10035100FF900020EEF0A3EFF0E4FCFD7BFF7AFFBD
:10036100F9F8120075E47BE87A03F9F8120992EFC3
:100371002430FFEE34F8FEED34FFFDEC34FFFC9049
:1003810000261201A3020471900032E0FFB4030DB4
:1003910090004DE0FDA3E090001A020457EFB40570
:1003A1000D90004DE0FFA3E090000402043E900098
:1003B10032E0FFB4070D90004DE0FDA3E090000690
:1003C100020457EFB4090C90004DE0FFA3E0900048
:1003D10008806A900032E0FFB40B0C90004DE0FD04
:1003E100A3E090000A806FEFB40D0C90004DE0FF88
:1003F100A3E090000C8046900032E0FFB40F0C9017
:10040100004DE0FDA3E090000E804BEFB4110C9085
:10041100004DE0FFA3E09000108022900032E0FF49
:10042100B4130C90004DE0FDA3E09000128027EF83
:10043100B4151190004DE0FFA3E0900014CFF0A39C
:10044100EFF0802C900032E0FFB4171190004DE0E6
:10045100FDA3E0900016CDF0A3EDF08013EFB419E9
:100461000F90004DE0FFA3E0900018CFF0A3EFF054
:02047100D200B7
:010473002266
:03000B000209499E
:10094900C0E0C0F0C083C082C0D075D008758ACD20
:10095900758CD490004B74FFF5F012005F45F07070
:100969001D90004BF0A37409F0B2A790002CE4305D
:100979008306F0A304F08003F0A3F0120881D0D01D
:09098900D082D083D0F0D0E0321E
:100AA600758E80758901758ACD758CD4D28CD2A944
:0A0AB600D2AFE490004BF0A3F02251
:04002E0041004F003E
:1008810090004FE014601A14602714604F24037025
:100891005A30820630840320855290004F7401F053
:1008A1002230820630840320853B90004F7402F091
:1008B1002220821790002CE07002A3E0600D9000CE
:1008C1001CE4F0A304F0E4900041F0208407E490DC
:1008D100001CF0A3F090004F7403F02230820D3021
:0D08E100840A308507E490004FF0220022C9
:100032004100411441004314410042144100401464
:10055900900041E014602F146066146077147003F2
:100569000205FD24046003020631E4900042F0E034
:1005790025E025E0240CF582E43400F583A3E0901E
:100589000040F0A3806A900042E0FF25E025E024C6
:100599000CF582E43400F583E0FCA3E04C601AEF2B
:1005A90025E025E0240AF582E43400F583E0FEA382
:1005B900E04E600590004180379000417404F022BC
:1005C900E4900043F09000001201AF000000009099
:1005D9000041801C900043E06414704D900040E09D
:1005E90014F0E0D394004005A37402F02290004176
:1005F900E004F022900042E004F0E0FF25E025E06D
:10060900240CF582E43400F583A3E0900040F0EF78
:10061900C394045005A37401F0229000417414F0AE
:0A062900E490001CF0A3F022002270
:10047400900043E014602714605B147003020515B8
:1004840014700302054114700302054D2405600332
:10049400020557D295D296C290D29102054490009B
:1004A40042E025E025E0240AF582E43400F583E007
:1004B400FEA3E07803CEC313CE13D8F9FDAC06D364
:1004C40090001FE09D90001EE09C5003020558D24E
:1004D40090C295806D900042E025E025E0240AF565
:1004E40082E43400F583E0FCA3E0FDAE047803CE9F
:1004F400C313CE13D8F9FFC3ED9FFDEC9EFCD3903C
:10050400001FE09D90001EE09C4049C290D295805F
:1005140031900042E025E025E0240AF582E434002D
:10052400F583E0FEA3E0FFD390001FE09F90001E40
:10053400E09E4020D29020801BC29480052081142C
:10054400D294900043E004F0222080089000437489
:0405540014F022007D
:010558002280
:10078F000206E5E493A3F8E493A34003F68001F295
:10079F0008DFF48029E493A3F85407240CC8C3336B
:1007AF00C4540F4420C8834004F456800146F6DF3A
:1007BF00E4800B010204081020408090000EE47EBC
:1007CF00019360BCA3FF543F30E509541FFEE4932F
:1007DF00A360010ECF54C025E060A840B8E493A3F6
:1007EF00FAE493A3F8E493A3C8C582C8CAC583CA21
:1007FF00F0A3C8C582C8CAC583CADFE9DEE780BED9
:0100420000BD
:10004600BB010689828A83E0225002E722BBFE02B8
:09005600E32289828A83E49322EB
:10005F00A3F8E0C5F025F0F0E58215827002158354
:06006F00E0C838F0E822B1
:10007500E88FF0A4CC8BF0A42CFCE98EF0A42CFC2A
:100085008AF0EDA42CFCEA8EF0A4CDA8F08BF0A4A8
:100095002DCC3825F0FDE98FF0A42CCD35F0FCEB07
:1000A5008EF0A4FEA9F0EB8FF0A4CFC5F02ECD39CC
:0F00B500FEE43CFCEAA42DCE35F0FDE43CFC2239
:1000C40075F008758200EF2FFFEE33FECD33CDCCF3
:1000D40033CCC58233C5829BED9AEC99E582984076
:1000E4000CF582EE9BFEED9AFDEC99FC0FD5F0D653
:1000F400E4CEFBE4CDFAE4CCF9A88222B800C1B97D
:100104000059BA002DEC8BF084CFCECDFCE5F0CBBA
:10011400F97818EF2FFFEE33FEED33FDEC33FCEBF3
:1001240033FB10D703994004EB99FB0FD8E5E4F9AE
:10013400FA227818EF2FFFEE33FEED33FDEC33FC9B
:10014400C933C910D7059BE99A4007EC9BFCE99A8F
:10015400F90FD8E0E4C9FAE4CCFB2275F010EF2FD4
:10016400FFEE33FEED33FDCC33CCC833C810D707D4
:100174009BEC9AE899400AED9BFDEC9AFCE899F80F
:0E0184000FD5F0DAE4CDFBE4CCFAE4C8F922A2
:10099200C2D5E830E70FB2D5E4C39BFBE49AFAE490
:1009A20099F9E498F8EC30E717B2D51209C81201A8
:1009B20000E4C39BFBE49AFAE499F9E498F8800313
:1009C20012010030D50DE4C39FFFE49EFEE49DFDBD
:0409D200E49CFC2283
:10019200EB9FF5F0EA9E42F0E99D42F0E89C45F0C3
:0101A200223A
:0C01A300ECF0A3EDF0A3EEF0A3EFF022CF
:1001AF00A8828583F0D083D0821201C61201C612B5
:1001BF0001C61201C6E473E493A3C583C5F0C583DA
:1001CF00C8C582C8F0A3C583C5F0C583C8C582C89A
:0101DF0022FD
:00000001FF
