:0300000002083BB8
:0C083B00787FE4F6D8FD75812002088269
:030003000206EB07
:1006EB00C0E0C0F0C083C082C0D075D000C000C0D5
:1006FB0001C002C003C004C005C006C00720A0365D
:10070B00E4FFFEFDFC900000E0F8A3E0F9A3E0FAA3
:10071B00A3E0FBD31204DE405E900000E0FCA3E0FC
:10072B00FDA3E0FEA3E024FFFFEE34FFFEED34FF5C
:10073B00FDEC34FF803A900030E0FCA3E0FDA3E039
:10074B00FEA3E0FF900000E0F8A3E0F9A3E0FAA31A
:10075B00E0FBD31204DE501F900000E0FCA3E0FD91
:10076B00A3E0FEA3E02401FFE43EFEE43DFDE43CF8
:10077B00FC9000001204EFD007D006D005D004D0B7
:10078B0003D002D001D000D0D0D082D083D0F0D013
:02079B00E0324A
:070C0F00D288D2A8D2AF2267
:1001F60090002AE0FCA3E0FD7F017E00120B089030
:100206000024E0FCA3E0FD7F037E00120B089000B3
:1002160004E0FCA3E0FD7F057E00120B08900006BB
:10022600E0FCA3E0FD7F077E00120B08900008E0CB
:10023600FCA3E0FD7F097E00120B0890000CE0FC99
:10024600A3E0FD7F0B7E00120B0890000EE0FCA3DE
:10025600E0FD7F307E00120B08900010E0FCA3E06A
:10026600FD7F0D7E00120B08900012E0FCA3E0FD5E
:100276007F0F7E00120B08900014E0FCA3E0FD7FC8
:10028600327E00120B08900016E0FCA3E0FD7F1101
:100296007E00120B08900018E0FCA3E0FD7F137EA1
:1002A60000120B0890001AE0FCA3E0FD7F347E00EC
:1002B600120B0890001CE0FCA3E0FD7F157E0012E7
:1002C6000B0890001EE0FCA3E0FD7F177E00120BDA
:1002D60008900020E0FCA3E0FD7F367E00120B08AC
:1002E600900022E0FCA3E0FD7F197E00120B08902F
:1002F6000026E07002A3E0700D900036E07002A3C5
:10030600E07003FD802E900026E07002A3E0700EE0
:10031600900036E07002A3E060047D01801B90002F
:1003260026E07002A3E0600F900036E07002A3E0C2
:1003360070057D02FC80057D037C00E4FFFE120B48
:100346000890000AE0FCA3E0FD7F387E00120B084F
:1003560090002EE0FCA3E0FD7F1B7E00120B0890B0
:100366000034E0FCA3E0FD7F1D7E00120B08900028
:1003760028E0FCA3E0FD7F1F7E00120B0890002CF6
:0C038600E0FCA3E0FD7F217E00020B08DC
:10079D00120C0F120BEA1208C790002AE0FEA3E01C
:1007AD00FFE4FCFD7BFF7AFFF9F81203C1E47BE85F
:1007BD007A03F9F8120A62EF2430FFEE34F8FEEDF9
:1007CD0034FFFDEC34FFFC9000301204EFE47FE8C1
:1007DD007E03FDFC900000E0F8A3E0F9A3E0FAA38E
:1007ED00E0FB1203C1C006C00790002AE0FEA3E0A3
:1007FD00FBAA06E4F9F8D007D00612044C900028A5
:10080D00EEF0A3EFF01201F6300002C200B2A730F5
:10081D00830A900036E4F0A304F08007E4900036DC
:0E082D00F0A3F012095112061112052C809F43
:100B5B00EF1FAC0670011E4C6010900052E004F0C9
:0A0B6B0070EE900051E004F080E607
:010B7500225D
:080B3400900053EEF0A3EFF076
:100B3C00E4FBFAD3900054E09B900053E09A400EF3
:0E0B4C007FDE7E01120B5B0BBB00010A80E511
:010B5A002278
:020006007F0178
:0100080022D5
:1008C700E4900026F0A3F0900036F0A3F090000A21
:1008D700F0A3F090002A7403F0A374E8F0900024CA
:1008E700E4F0A37464F0E4900004F0A3F0A3F0A391
:1008F700F0A3F0A3F090000CF0A3F0A3F0A3F0A3F3
:10090700F0A3F0A3F0A3F0A3F0A3F0A3F0A3F0A348
:10091700F0A3F0A3F0A3F0A3F0A3F0A3F0A3F0A338
:10092700F0A3F0A3F0A3F090002EF0A3F090003412
:10093700F0A3F0900028F0A3F090002CF0A3F09023
:0A09470000001204FB000000002273
:020C16007F015C
:010C180022B9
:100BD600AE071FEE600DE4FCFD0DED70010C4C60E0
:030BE600EF80F6A7
:010BE90022E9
:0D0BF900E4F5C7F5C5F5C675C380F5C42247
:100BA90075C78375C5018FC4EEF5C375C65A75C679
:070BB900A500AFC2120BF909
:010BC0002212
:100B900075C78375C5028FC4EEF5C3AF058FC275E7
:090BA000C65A75C6A500020BF946
:100BC10075C78375C5038FC4EEF5C375C65A75C65F
:050BD100A500020BF974
:10000E00C1004F003AFFFFFFFFFFFFFFFFFFFFFFA3
:10001E00FFFFFFFF41004900410039004100380059
:0F0BEA00759A50759CFD758E1475AF01D2AF22B0
:03004300020AD9D5
:100AD900C0E0C0F0C083C082C0D075D008E59A30AC
:100AE900E008539AFEAF9B1209BEE59A30E105531F
:0F0AF9009AFDC201D0D0D082D083D0F0D0E032AD
:090C06002001FDEFD201F59B2253
:100AA60090004EEBF0A3EAF0A3E9F090004EE0FBD5
:100AB600A3E0FAA3E0F9120392601790004EA3E4B4
:100AC60075F0011203ABA9F0FA120392FF120C069D
:030AD60080D922A2
:100B0800AB07AA067F5A120C067FA5120C067F05B2
:100B1800120C067F82120C06EAFF120C06AF0312B3
:0C0B28000C06ECFF120C06AF05020C06D8
:1009BE00900049E014601114601614602224037034
:1009CE0043EF645A70448010EFB4A502800A80355C
:1009DE00900038EFF0E4A3F0900049E004F022908C
:1009EE000039E0243AF582E43400F583EFF090000C
:1009FE0039E004F0900038E0FFA3E0C39F400B12F3
:0B0A0E000046800100E4900049F02247
:1000460090003EE0FEA3E0FDEDFF900057EEF0A32A
:10005600EFF090003CE0B4013F900057E0FEA3E0D3
:10006600FF90002AEEF0A3EFF0E4FCFD7BFF7AFFA1
:10007600F9F81203C1E47BE87A03F9F8120A62EF91
:100086002430FFEE34F8FEED34FFFDEC34FFFC9037
:1000960000301204EF0201F390003CE0FFB4030DC0
:1000A600900057E0FDA3E09000240201B4EFB405F0
:1000B6000D900057E0FFA3E09000040201C99000F4
:1000C6003CE0FFB4070D900057E0FDA3E09000066A
:1000D6000201B4EFB4090D900057E0FFA3E09000D1
:1000E600080201C990003CE0FFB40B0D900057E0F8
:1000F600FDA3E090000C0201B4EFB40D0D90005783
:10010600E0FFA3E09000100201C990003CE0FFB4BC
:100116000F0D900057E0FDA3E09000120201B4EF2E
:10012600B4110D900057E0FFA3E09000160201C93C
:1001360090003CE0FFB4130C900057E0FDA3E09064
:100146000018806AEFB4150C900057E0FFA3E0900A
:10015600001C806F90003CE0FFB4170C900057E045
:10016600FDA3E090001E8046EFB4190C900057E006
:10017600FFA3E0900022804B90003CE0FFB4300CDF
:10018600900057E0FDA3E090000E8022EFB4320C01
:10019600900057E0FFA3E0900014802790003CE019
:1001A600FFB43411900057E0FDA3E090001ACDF0A3
:1001B600A3EDF08038EFB43611900057E0FFA3E0CE
:1001C600900020CFF0A3EFF0802390003CE0B438FD
:1001D6001C90000AE07004A3E06401700890000A15
:0F01E600F0A3F0800890000AE4F0A304F0D20028
:0101F50022E7
:03000B00020A19CD
:100A1900C0E0C0F0C083C082C0D075D008758ACD4F
:100A2900758CD490005574FFF5F01203AB45F07046
:100A39001D900055F0A37409F0B2A7900036E43078
:100A49008306F0A304F08003F0A3F0120951D0D07B
:090A5900D082D083D0F0D0E0324D
:100B7600758E80758901758ACD758CD4D28CD2A973
:0A0B8600D2AFE4900055F0A3F02276
:04002E004100590034
:10095100900059E014601A14602714604F2403704A
:100961005A3082063084032085529000597401F078
:100971002230820630840320853B9000597402F0B6
:1009810022208217900036E07002A3E0600D9000F3
:1009910026E4F0A304F0E490004BF0208407E490F7
:1009A1000026F0A3F09000597403F02230820D303C
:0D09B100840A308507E4900059F0220022EE
:1000320041004B1441004D1441004C1441004A143C
:1006110090004BE014602F1460661460771470032F
:100621000206B5240460030206E9E490004CF0E000
:1006310075F006A42410F582E43400F583A3E0905C
:10064100004AF0A3806A90004CE0FF75F006A424F4
:1006510010F582E43400F583E0FCA3E04C601AEF6E
:1006610075F006A4240CF582E43400F583E0FEA3C2
:10067100E04E600590004B803790004B7404F022EF
:10068100E490004DF09000001204FB000000009087
:10069100004B801C90004DE06414704D90004AE0C6
:1006A10014F0E0D394004005A37402F02290004BB3
:1006B100E004F02290004CE004F0E0FF75F006A4A5
:1006C1002410F582E43400F583A3E090004AF0EFB2
:1006D100C394045005A37401F02290004B7414F0EC
:0A06E100E4900026F0A3F0220022AE
:10052C0090004DE014602714605B1470030205CD3D
:10053C001470030205F91470030206052405600308
:10054C0002060FD295D296C290D2910205FC900071
:10055C004CE075F006A4240CF582E43400F583E03D
:10056C00FEA3E07803CEC313CE13D8F9FDAC06D3AB
:10057C00900029E09D900028E09C5003020610D2C8
:10058C0090C295806D90004CE075F006A4240CF59B
:10059C0082E43400F583E0FCA3E0FDAE047803CEE6
:1005AC00C313CE13D8F9FFC3ED9FFDEC9EFCD39083
:1005BC000029E09D900028E09C4049C290D2958093
:1005CC003190004CE075F006A4240CF582E4340064
:1005DC00F583E0FEA3E0FFD3900029E09F90002874
:1005EC00E09E4020D29020801BC294800520811474
:1005FC00D29490004DE004F02220800890004D74BD
:04060C0014F02200C4
:0106100022C7
:1008470002079DE493A3F8E493A34003F68001F223
:1008570008DFF48029E493A3F85407240CC8C333B2
:10086700C4540F4420C8834004F456800146F6DF81
:10087700E4800B010204081020408090000EE47E03
:10088700019360BCA3FF543F30E509541FFEE49376
:10089700A360010ECF54C025E060A840B8E493A33D
:1008A700FAE493A3F8E493A3C8C582C8CAC583CA68
:1008B700F0A3C8C582C8CAC583CADFE9DEE780BE20
:0100420000BD
:10039200BB010689828A83E0225002E722BBFE0269
:0903A200E32289828A83E493229C
:1003AB00A3F8E0C5F025F0F0E58215827002158305
:0603BB00E0C838F0E82262
:1003C100E88FF0A4CC8BF0A42CFCE98EF0A42CFCDB
:1003D1008AF0EDA42CFCEA8EF0A4CDA8F08BF0A459
:1003E1002DCC3825F0FDE98FF0A42CCD35F0FCEBB8
:1003F1008EF0A4FEA9F0EB8FF0A4CFC5F02ECD397D
:0F040100FEE43CFCEAA42DCE35F0FDE43CFC22E9
:1004100075F008758200EF2FFFEE33FECD33CDCCA3
:1004200033CCC58233C5829BED9AEC99E582984026
:100430000CF582EE9BFEED9AFDEC99FC0FD5F0D603
:10044000E4CEFBE4CDFAE4CCF9A88222B800C1B92D
:100450000059BA002DEC8BF084CFCECDFCE5F0CB6B
:10046000F97818EF2FFFEE33FEED33FDEC33FCEBA4
:1004700033FB10D703994004EB99FB0FD8E5E4F95F
:10048000FA227818EF2FFFEE33FEED33FDEC33FC4C
:10049000C933C910D7059BE99A4007EC9BFCE99A40
:1004A000F90FD8E0E4C9FAE4CCFB2275F010EF2F85
:1004B000FFEE33FEED33FDCC33CCC833C810D70785
:1004C0009BEC9AE899400AED9BFDEC9AFCE899F8C0
:0E04D0000FD5F0DAE4CDFBE4CCFAE4C8F92253
:100A6200C2D5E830E70FB2D5E4C39BFBE49AFAE4BF
:100A720099F9E498F8EC30E717B2D5120A98120403
:100A82004CE4C39BFBE49AFAE499F9E498F88003F6
:100A920012044C30D50DE4C39FFFE49EFEE49DFD9D
:040AA200E49CFC22B2
:1004DE00EB9FF5F0EA9E42F0E99D42F0E89C45F074
:0104EE0022EB
:0C04EF00ECF0A3EDF0A3EEF0A3EFF02280
:1004FB00A8828583F0D083D08212051212051212C6
:10050B000512120512E473E493A3C583C5F0C583EA
:10051B00C8C582C8F0A3C583C5F0C583C8C582C84A
:01052B0022AD
:00000001FF
