:030000000200BD3E
:0C00BD00787FE4F6D8FD7581070200A2F0
:030003000200C92F
:0500C900C2A7D2A7321E
:0E00A200D288D2A8D2AFC295D296C2A780FE55
:10002D00EF1FAC0670011E4C6010900023E004F031
:0A003D0070EE900022E004F080E66F
:010047002296
:08000600900024EEF0A3EFF0DE
:10000E00E4FBFAD3900025E09B900024E09A400E8A
:0E001E007FDE7E0112002D0BBB00010A80E583
:01002C0022B1
:0200CE007F01B0
:0100D000220D
:0100D4002209
:0200D1007F01AD
:0100D300220A
:10008E00AE071FEE600DE4FCFD0DED70010C4C6033
:03009E00EF80F6FA
:0100A100223C
:0D00B000E4F5C7F5C5F5C675C380F5C4229B
:1000610075C78375C5018FC4EEF5C375C65A75C6CC
:07007100A500AFC21200B0B0
:010078002265
:1000480075C78375C5028FC4EEF5C3AF058FC2753A
:09005800C65A75C6A5000200B0ED
:1000790075C78375C5038FC4EEF5C375C65A75C6B2
:05008900A5000200B01B
:00000001FF
