:03000000020D9A54
:0C0D9A00787FE4F6D8FD758120020DE1A1
:03000300020BBB32
:100BBB00C0E0C0F0C083C082C0D075D000C000C000
:100BCB0001C002C003C004C005C006C00720A03688
:100BDB00E4FFFEFDFC900000E0F8A3E0F9A3E0FACF
:100BEB00A3E0FBD3120498405E900000E0FCA3E06E
:100BFB00FDA3E0FEA3E024FFFFEE34FFFEED34FF88
:100C0B00FDEC34FF803A900034E0FCA3E0FDA3E060
:100C1B00FEA3E0FF900000E0F8A3E0F9A3E0FAA345
:100C2B00E0FBD3120498501F900000E0FCA3E0FD02
:100C3B00A3E0FEA3E02401FFE43EFEE43DFDE43C23
:100C4B00FC9000001204A9D202D007D006D005D028
:100C5B0004D003D002D001D000D0D0D082D083D02A
:040C6B00F0D0E032B3
:0710FD00D288D2A8D2AF2275
:1006B10090002EE0FCA3E0FD7F017E00120FF79079
:1006C1000028E0FCA3E0FD7F037E00120FF79000FD
:1006D10008E0FCA3E0FD7F057E00120FF790000A01
:1006E100E0FCA3E0FD7F077E00120FF790000CE015
:1006F100FCA3E0FD7F097E00120FF7900010E0FCE3
:10070100A3E0FD7F0B7E00120FF7900012E0FCA327
:10071100E0FD7F307E00120FF7900014E0FCA3E0B3
:10072100FD7F0D7E00120FF7900016E0FCA3E0FDA7
:100731007F0F7E00120FF7900018E0FCA3E0FD7F11
:10074100327E00120FF790001AE0FCA3E0FD7F114A
:100751007E00120FF790001CE0FCA3E0FD7F137EEA
:1007610000120FF790001EE0FCA3E0FD7F347E0035
:10077100120FF7900020E0FCA3E0FD7F157E001230
:100781000FF7900022E0FCA3E0FD7F177E00120F1F
:10079100F7900024E0FCA3E0FD7F367E00120FF706
:1007A100900026E0FCA3E0FD7F197E00120FF79078
:1007B100002AE07002A3E0700D90003AE07002A3FD
:1007C100E07003FD802E90002AE07002A3E0700E1D
:1007D10090003AE07002A3E060047D01801B90006C
:1007E1002AE07002A3E0600F90003AE07002A3E0FB
:1007F10070057D02FC80057D037C00E4FFFE120F85
:10080100F790000EE0FCA3E0FD7F387E00120FF7A9
:10081100900004E0FCA3E0FD7F3A7E00120FF79008
:100821000032E0FCA3E0FD7F1B7E00120FF7900079
:1008310038E0FCA3E0FD7F1D7E00120FF790002C35
:10084100E0FCA3E0FD7F1F7E00120FF7900030E077
:0B085100FCA3E0FD7F217E00020FF7FA
:100AC9001210FD1210D812107E120C6F90002EE039
:100AD900FEA3E0FFE4FCFD7BFF7AFFF9F812037B3C
:100AE900E47BE87A03F9F8120F84EF2430FFEE343F
:100AF900F8FEED34FFFDEC34FFFC9000341204A93C
:100B0900900028E0FEA3E0FF7C037DE81202FE903E
:100B1900002EE0FCA3E0FD120310900006EEF0A306
:100B2900EFF0E47FE87E03FDFC900000E0F8A3E02D
:100B3900F9A3E0FAA3E0FB12037BC006C00790000B
:100B49002EE0FEA3E0FBAA06E4F9F8D007D00612CE
:100B5900040690002CEEF0A3EFF0300205C2021259
:100B690006B1300005120EE9C20090004DE0B40153
:100B790002801B90004DE0B4020DC2917F587E1B8C
:100B8900121023D291801290004DE0B40312C2904A
:100B99007F587E1B121023D290E490004DF0808282
:100BA90090004DE0FF64047003020B2BEF64050213
:020BB9000B2B04
:10104A00EF1FAC0670011E4C6010900053E004F0D4
:0A105A0070EE900052E004F080E612
:011064002269
:08102300900050EEF0A3EFF085
:10102B00E4FBFAD3900051E09B900050E09A400E05
:0E103B007FDE7E0112104A0BBB00010A80E529
:011049002284
:100E260090004F7401F07FC87E00121097EF64EEB9
:100E3600704BFFFE121097EF7F00FEC007C0060F33
:100E46007E00121097EFFDD0E0FFD0E04D90002E0F
:100E5600CFF0A3EFF07F027E00121097EF7F00FE27
:100E6600C007C0067F037E00121097EFFDD0E0FF9B
:100E7600D0E04D900028CFF0A3EFF08005E490007D
:070E86004FF090004FE0FF68
:010E8D002242
:100C6F00E490002AF0A3F090003AF0A3F090000E69
:100C7F00F0A3F0900004F0A3F0120E26EF70139083
:100C8F00002E7403F0A374E8F0900028E4F0A3742E
:100C9F0064F0E4900008F0A3F0A3F0A3F0A3F0A396
:100CAF00F0900010F0A3F0A3F0A3F0A3F0A3F0A333
:100CBF00F0A3F0A3F0A3F0A3F0A3F0A3F0A3F0A38D
:100CCF00F0A3F0A3F0A3F0A3F0A3F0A3F0A3F0A37D
:100CDF00F0A3F0900032F0A3F0900038F0A3F09062
:100CEF00002CF0A3F0900030F0A3F090000012045D
:060CFF00B5000000002218
:100EE90090004F7401F07F0A7E00121023E4FFFE88
:100EF9001210AF90002EE0FDE4FFFE121065900085
:100F09002EA3E0FD7F017E00121065900028E0FD10
:100F19007F027E00121065900028A3E0FD7F037E0A
:100F2900001210657DEE7FC87E0012106590004F9B
:020F3900E0FFD7
:010F3B002293
:1010C400AE071FEE600DE4FCFD0DED70010C4C60ED
:0310D400EF80F6B4
:0110D70022F6
:0D10E700E4F5C7F5C5F5C675C380F5C42254
:1010970075C78375C5018FC4EEF5C375C65A75C686
:0710A700A500AFC21210E723
:0110AE00221F
:1010650075C78375C5028FC4EEF5C3AF058FC2750D
:09107500C65A75C6A5000210E779
:1010AF0075C78375C5038FC4EEF5C375C65A75C66C
:0510BF00A5000210E78E
:100F3C00C102C10041004D004F003EFFFFFFFFFF0B
:100F4C00FFFFFFFFFFFFFFFFFFFF41004E004100CF
:060F5C003D0041003C00D5
:0F10D800759A50759CFD438E1475AF01D2AF22EF
:03004300020FC8E1
:100FC800C0E0C0F0C083C082C0D075D008E59A30B8
:100FD800E008539AFEAF9B120E8EE59A30E1055356
:0F0FE8009AFDC201D0D0D082D083D0F0D0E032B9
:0910F4002001FDEFD201F59B2261
:10000E00900062EBF0A3EAF0A3E9F0900062E0FB4F
:10001E00A3E0FAA3E0F91202E56017900062A3E4F0
:10002E0075F001120365A9F0FA1202E5FF1210F441
:03003E0080D92244
:100FF700AB07AA067F5A1210F47FA51210F47F05DB
:101007001210F47F821210F4EAFF1210F4AF0312E9
:0C10170010F4ECFF1210F4AF050210F40E
:100E8E0090004EE01460111460161460222403705A
:100E9E0043EF645A70448010EFB4A502800A803587
:100EAE0090003CEFF0E4A3F090004EE004F02290AE
:100EBE00003DE0243EF582E43400F583EFF090002F
:100ECE003DE004F090003CE0FFA3E0C39F400B1216
:0B0EDE000046800100E490004EF0226E
:10004600900042E0FEA3E0FDEDFF900054EEF0A329
:10005600EFF0900040E0B40141900054E0FEA3E0D0
:10006600FF90002EEEF0A3EFF0E4FCFD7BFF7AFF9D
:10007600F9F812037BE47BE87A03F9F8120F84EFB0
:100086002430FFEE34F8FEED34FFFDEC34FFFC9037
:1000960000341204A9D2000202E2900040E0FFB44C
:1000A6000314900054E0FDA3E0900028CDF0A3EDEA
:1000B600F0D2000202E2EFB4050D900054E0FFA377
:1000C600E09000080201D3900040E0FFB4070D90D5
:1000D6000054E0FDA3E090000A0201BDEFB4090D53
:1000E600900054E0FFA3E090000C0201D390004082
:1000F600E0FFB40B0D900054E0FDA3E09000100269
:1001060001BDEFB40D0D900054E0FFA3E090001484
:100116000201D3900040E0FFB40F0D900054E0FDC3
:10012600A3E09000160201BDEFB4110D900054E05B
:10013600FFA3E090001A0201D3900040E0FFB41341
:100146000C900054E0FDA3E090001C806AEFB4150B
:100156000C900054E0FFA3E09000208070900040D7
:10016600E0FFB4170C900054E0FDA3E0900022805D
:1001760046EFB4190C900054E0FFA3E090002680EF
:100186004C900040E0FFB4300C900054E0FDA3E03A
:100196009000128022EFB4320C900054E0FFA3E0EE
:1001A6009000188028900040E0FFB434129000546C
:1001B600E0FDA3E090001ECDF0A3EDF00202E2EF19
:1001C600B43612900054E0FFA3E0900024CFF0A3D1
:1001D600EFF00202E2900040E0FFB4381D90000EFE
:1001E600E07004A3E0640190000E7006F0A3F00234
:1001F60002E2E4F0A304F00202E2EFB43A21900036
:1002060004E07004A3E064019000047008F0A3F019
:10021600D2970202E2E4F0A304F0C2970202E2904F
:100226000040E0FFB4231590003AE07002A3E060BE
:10023600030202E290004D04F00202E2EFB424163B
:1002460090003AE07002A3E060030202E290004DE3
:100256007402F00202E2900040E0FFB42512900022
:100266003AE07002A3E0707490004D7403F0806C65
:10027600EFB4261290003AE07002A3E0705E9000A0
:100286004D7404F08056900040E0FFB427129000B1
:100296003AE07002A3E0704490004D7405F0803C93
:1002A600EFB4283890005C7414F0900061F0E4908C
:1002B600002AF0A3F0900032F0A3F0900038F0A3EB
:1002C600F09000001204B500000000E4900030F049
:0E02D600A3F090005DF090005A7414F0D20274
:0102E40022F7
:03000B00020D05DE
:100D0500C0E0C0F0C083C082C0D075D008758ACD60
:100D1500758CD4900065E0FF14F0EF706D90006065
:100D2500E004F0700690005FE004F0B2A730830C99
:100D350090003AE4F0A304F0D202803F90005C7486
:100D450014F0900061F0900032E4F0A3F0900038C8
:100D5500F0A3F09000001204B500000000900030F0
:100D6500E4F0A3F090005DF090005A7414F0900048
:100D75003AE4F0A3F090002AF0A3F01209C5120896
:100D85005C1204E69000657409F0D0D0D082D0835F
:050D9500D0F0D0E032B7
:10107E00438E80758901758ACD758CD4D28CD2A998
:09108E00D2AF9000657409F02254
:040F620041006600E4
:1009C500900066E0146023146033147003020AB8C3
:1009D50024036003020AC730820930840630850388
:1009E500020AC89000667401F02230820630840342
:1009F5002085079000667402F022020AC120822B2E
:100A050090003AE07002A3E0602190002AE4F0A390
:100A150004F090005DE090005CF090005AE09000DA
:100A250061F0E490005FF0A3F0D2022084569000BC
:100A35002AE0FEA3E0FF64014E702090005CE09088
:100A4500005DF0900061E090005AF090005C741435
:100A5500F0900061F0E490002A8024EF64024E706B
:100A65002390005DE090005CF090005AE0900061FA
:100A7500F090002AE4F0A304F0D2A4E490005FF023
:100A8500A3F0D20220852590003AE07002A3E06031
:100A950019900061E0B4161220800FC294E4900012
:100AA5005FF0A3F09000617404F0D20290006674C8
:100AB50003F02230820D30840A308507E490006609
:040AC500F0220022F9
:100F660041005C1441005D004100611441005A14C7
:0D0F760041005E1441005B1442005F00006A
:10085C0090005CE014604114607614700302092D62
:10086C00147003020961240460030209C3E49000BC
:10087C005EF0E075F006A42414F582E43400F583F0
:10088C00A3E0FE90005BF0E4900030F0A3F0900049
:10089C0038F0A3CEF002095A90005EE0FF75F00626
:1008AC00A42414F582E43400F583E0FCA3E04C604E
:1008BC0018EF75F006A42410F582E43400F583E0FB
:1008CC00FEA3E04E600302095A90005C7404F0220F
:1008DC0090005EE0FB75F006A42412F582E434006F
:1008EC00F583E0FCA3E0FD900030E0FEA3E0FF12F6
:1008FC0002FEEB75F006A42410F582E43400F583B7
:10090C00E0FCA3E0C39FFFEC9E900032F0A3EFF05D
:10091C00E4900061F09000001204B500000000802B
:10092C002D900061E0641460030209C490005BE048
:10093C0014F0900031E004F07006900030E004F008
:10094C0090005BE0D394004005A37402F022900069
:10095C005CE004F02290005EE004F0E0FFC394043D
:10096C00502AEF75F006A42414F582E43400F583C4
:10097C00A3E0FE90005BF0E4900030F0A3F0900058
:10098C0038F0A3CEF090005C7401F02290005C74FF
:10099C0014F0E490002AF0A3F0900032F0A3F09051
:1009AC000038F0A3F09000001204B500000000E441
:0909BC00900030F0A3F0220022AB
:1004E600900061E0F924EC70030206A024FE70037C
:1004F6000206AD2416B4060040030206AF90050AB4
:10050600F828287302051C02052B02057A0205D07D
:10051600020624020663D295D296C290D291D29454
:10052600D2A502065CC290D295900006E0FEA3E03A
:10053600FFC3900033E09FFF900032E09E9000568C
:10054600F0A3EFF0900056E0FEA3E07803CEC313CD
:10055600CE13D8F9FF900058EEF0A3EFF0D3900039
:100566002DE09F90002CE09E50030206B0C290C280
:100576009502065CC290C295900006E0FEA3E0FFDD
:10058600C3900033E09FFD900032E09EFC90005641
:10059600F0A3EDF0900056E0FEA3E07803CEC3137F
:1005A600CE13D8F9FFC3ED9FFFEC9EFE900058F0E6
:1005B600A3EFF0D390002DE09F90002CE09E500317
:1005C6000206B0C290D29502065CC290900006E088
:1005D600FEA3E0FFC3900033E09FFF900032E09E51
:1005E600FE900056F0A3EFF0D390002DE09F900010
:1005F6002CE09E50030206B0D2903080030206B073
:1006060090000EE07004A3E06401700BC2949000A9
:100616005FF0A3F0A380429000617416F022C294AA
:10062600D3900060E094E890005FE094034020904F
:10063600005CE0A3F090005AE9F090005C7414F0BE
:10064600900061F0C2A490002AE4F0A37402F020A6
:100656008158D294C2A5900061E004F022C2A5D3CD
:10066600900060E094E890005FE0940340209000E2
:100676005CE0A3F090005AE9F090005C7414F090EE
:100686000061F0C2A490002AE4F0A37402F0208076
:1006960019D2A59000617414F022D295D296D29008
:0A06A600D291D294D2A522002200C6
:0106B0002227
:100DA600020AC9E493A3F8E493A34003F68001F290
:100DB60008DFF48029E493A3F85407240CC8C3334E
:100DC600C4540F4420C8834004F456800146F6DF1D
:100DD600E4800B0102040810204080900F3CE47E62
:100DE600019360BCA3FF543F30E509541FFEE49312
:100DF600A360010ECF54C025E060A840B8E493A3D9
:100E0600FAE493A3F8E493A3C8C582C8CAC583CA03
:100E1600F0A3C8C582C8CAC583CADFE9DEE780BEBB
:010F8300006D
:1002E500BB010689828A83E0225002E722BBFE0217
:0902F500E32289828A83E493224A
:1002FE00EF8DF0A4A8F0CF8CF0A428CE8DF0A42E14
:02030E00FE22CD
:10031000BC000BBE0029EF8DF084FFADF022E4CCD1
:10032000F875F008EF2FFFEE33FEEC33FCEE9DEC9A
:10033000984005FCEE9DFE0FD5F0E9E4CEFD22EDE0
:10034000F8F5F0EE8420D21CFEADF075F008EF2F2A
:10035000FFED33FD4007985006D5F0F222C398FD1B
:050360000FD5F0EA22B8
:10036500A3F8E0C5F025F0F0E5821582700215834B
:06037500E0C838F0E822A8
:10037B00E88FF0A4CC8BF0A42CFCE98EF0A42CFC21
:10038B008AF0EDA42CFCEA8EF0A4CDA8F08BF0A49F
:10039B002DCC3825F0FDE98FF0A42CCD35F0FCEBFE
:1003AB008EF0A4FEA9F0EB8FF0A4CFC5F02ECD39C3
:0F03BB00FEE43CFCEAA42DCE35F0FDE43CFC2230
:1003CA0075F008758200EF2FFFEE33FECD33CDCCEA
:1003DA0033CCC58233C5829BED9AEC99E58298406D
:1003EA000CF582EE9BFEED9AFDEC99FC0FD5F0D64A
:1003FA00E4CEFBE4CDFAE4CCF9A88222B800C1B974
:10040A000059BA002DEC8BF084CFCECDFCE5F0CBB1
:10041A00F97818EF2FFFEE33FEED33FDEC33FCEBEA
:10042A0033FB10D703994004EB99FB0FD8E5E4F9A5
:10043A00FA227818EF2FFFEE33FEED33FDEC33FC92
:10044A00C933C910D7059BE99A4007EC9BFCE99A86
:10045A00F90FD8E0E4C9FAE4CCFB2275F010EF2FCB
:10046A00FFEE33FEED33FDCC33CCC833C810D707CB
:10047A009BEC9AE899400AED9BFDEC9AFCE899F806
:0E048A000FD5F0DAE4CDFBE4CCFAE4C8F92299
:100F8400C2D5E830E70FB2D5E4C39BFBE49AFAE498
:100F940099F9E498F8EC30E717B2D5120FBA1204B5
:100FA40006E4C39BFBE49AFAE499F9E498F8800315
:100FB40012040630D50DE4C39FFFE49EFEE49DFDBC
:040FC400E49CFC228B
:10049800EB9FF5F0EA9E42F0E99D42F0E89C45F0BA
:0104A8002231
:0C04A900ECF0A3EDF0A3EEF0A3EFF022C6
:1004B500A8828583F0D083D0821204CC1204CC129A
:1004C50004CC1204CCE473E493A3C583C5F0C583BF
:1004D500C8C582C8F0A3C583C5F0C583C8C582C891
:0104E50022F4
:00000001FF
