:030000000209846E
:0C098400787FE4F6D8FD7581200209CBD5
:0300030002078E63
:10078E00C0E0C0F0C083C082C0D075D000C000C031
:10079E0001C002C003C004C005C006C00720A036B9
:1007AE00E4FFFEFDFC900000E0F8A3E0F9A3E0FA00
:1007BE00A3E0FBD31201F9405E900000E0FCA3E041
:1007CE00FDA3E0FEA3E024FFFFEE34FFFEED34FFB9
:1007DE00FDEC34FF803A900034E0FCA3E0FDA3E092
:1007EE00FEA3E0FF900000E0F8A3E0F9A3E0FAA377
:1007FE00E0FBD31201F9501F900000E0FCA3E0FDD6
:10080E00A3E0FEA3E02401FFE43EFEE43DFDE43C54
:10081E00FC90000012020AD202D007D006D005D0FA
:10082E0004D003D002D001D000D0D0D082D083D05B
:04083E00F0D0E032E4
:070DA000D288D2A8D2AF22D5
:1004240090002EE0FCA3E0FD7F017E00120C97906B
:100434000028E0FCA3E0FD7F037E00120C979000EF
:1004440008E0FCA3E0FD7F057E00120C9790000AF3
:10045400E0FCA3E0FD7F077E00120C9790000CE007
:10046400FCA3E0FD7F097E00120C97900010E0FCD5
:10047400A3E0FD7F0B7E00120C97900012E0FCA31A
:10048400E0FD7F307E00120C97900014E0FCA3E0A6
:10049400FD7F0D7E00120C97900016E0FCA3E0FD9A
:1004A4007F0F7E00120C97900018E0FCA3E0FD7F04
:1004B400327E00120C9790001AE0FCA3E0FD7F113D
:1004C4007E00120C9790001CE0FCA3E0FD7F137EDD
:1004D40000120C9790001EE0FCA3E0FD7F347E0028
:1004E400120C97900020E0FCA3E0FD7F157E001223
:1004F4000C97900022E0FCA3E0FD7F177E00120C15
:1005040097900024E0FCA3E0FD7F367E00120C9758
:10051400900026E0FCA3E0FD7F197E00120C97906A
:10052400002AE07002A3E0700D90003AE07002A38C
:10053400E07003FD802E90002AE07002A3E0700EAC
:1005440090003AE07002A3E060047D01801B9000FB
:100554002AE07002A3E0600F90003AE07002A3E08A
:1005640070057D02FC80057D037C00E4FFFE120C17
:100574009790000EE0FCA3E0FD7F387E00120C97FC
:10058400900004E0FCA3E0FD7F3A7E00120C9790FB
:100594000032E0FCA3E0FD7F1B7E00120C9790006C
:1005A40038E0FCA3E0FD7F1D7E00120C9790002C28
:1005B400E0FCA3E0FD7F1F7E00120C97900030E06A
:0B05C400FCA3E0FD7F217E00020C97ED
:10084200120DA0120D7B120CEA1208EE90002EE09F
:10085200FEA3E0FFE4FCFD7BFF7AFFF9F81200DC67
:10086200E47BE87A03F9F8120BEDEF2430FFEE3463
:10087200F8FEED34FFFDEC34FFFC90003412020A66
:10088200900028E0FEA3E0FF7C037DE812005F9069
:10089200002EE0FCA3E0FD120071900006EEF0A332
:1008A200EFF0E47FE87E03FDFC900000E0F8A3E0B7
:1008B200F9A3E0FAA3E0FB1200DCC006C007900037
:1008C2002EE0FEA3E0FBAA06E4F9F8D007D0061258
:1008D200016790002CEEF0A3EFF0300205C2021285
:0C08E20004243000BD120B49C20080B697
:100D0600EF1FAC0670011E4C6010900052E004F01C
:0A0D160070EE900051E004F080E65A
:010D200022B0
:080CC30090004FEEF0A3EFF0EA
:100CCB00E4FBFAD3900050E09B90004FE09A400E6B
:0E0CDB007FDE7E01120D060BBB00010A80E5D4
:010CE90022E8
:100A860090004E7401F07FC87E00120D3AEF64EEBE
:100A9600704BFFFE120D3AEF7F00FEC007C0060F37
:100AA6007E00120D3AEFFDD0E0FFD0E04D90002E13
:100AB600CFF0A3EFF07F027E00120D3AEF7F00FE2B
:100AC600C007C0067F037E00120D3AEFFDD0E0FF9F
:100AD600D0E04D900028CFF0A3EFF08005E4900021
:070AE6004EF090004EE0FF0E
:010AED0022E6
:1008EE00E490002AF0A3F090003AF0A3F090000EEE
:1008FE00F0A3F0900004F0A3F0120A86EF701390AC
:10090E00002E7403F0A374E8F0900028E4F0A374B2
:10091E0064F0E4900008F0A3F0A3F0A3F0A3F0A31A
:10092E00F0900010F0A3F0A3F0A3F0A3F0A3F0A3B7
:10093E00F0A3F0A3F0A3F0A3F0A3F0A3F0A3F0A311
:10094E00F0A3F0A3F0A3F0A3F0A3F0A3F0A3F0A301
:10095E00F0A3F0900032F0A3F0900038F0A3F090E6
:10096E00002CF0A3F0900030F0A3F09000001202E3
:06097E001600000000223B
:100B490090004E7401F07F0A7E00120CC3E4FFFE90
:100B5900120D5290002EE0FDE4FFFE120D219000CF
:100B69002EA3E0FD7F017E00120D21900028E0FDFB
:100B79007F027E00120D21900028A3E0FD7F037EF5
:100B890000120D217DEE7FC87E00120D2190004ECE
:020B9900E0FF7B
:010B9B002237
:100D6700AE071FEE600DE4FCFD0DED70010C4C604D
:030D7700EF80F614
:010D7A002256
:0D0D8A00E4F5C7F5C5F5C675C380F5C422B4
:100D3A0075C78375C5018FC4EEF5C375C65A75C6E6
:070D4A00A500AFC2120D8AE3
:010D5100227F
:100D210075C78375C5028FC4EEF5C3AF058FC27554
:090D3100C65A75C6A500020D8A20
:100D520075C78375C5038FC4EEF5C375C65A75C6CC
:050D6200A500020D8A4E
:100C3100C102C1004F003EFFFFFFFFFFFFFFFFFFAB
:100C4100FFFFFFFFFFFF41004D0041003D0041005C
:020C51003C0065
:0F0D7B00759A50759CFD438E1475AF01D2AF224F
:03004300020C6844
:100C6800C0E0C0F0C083C082C0D075D008E59A301B
:100C7800E008539AFEAF9B120AEEE59A30E105535D
:0F0C88009AFDC201D0D0D082D083D0F0D0E0321C
:090D97002001FDEFD201F59B22C1
:10000E00900059EBF0A3EAF0A3E9F0900059E0FB61
:10001E00A3E0FAA3E0F91200466017900059A3E49A
:10002E0075F0011200C6A9F0FA120046FF120D97E4
:03003E0080D92244
:100C9700AB07AA067F5A120D977FA5120D977F05FE
:100CA700120D977F82120D97EAFF120D97AF03126D
:0C0CB7000D97ECFF120D97AF05020D9792
:100AEE0090004DE0146011146016146022240370FF
:100AFE0043EF645A70448010EFB4A502800A80352B
:100B0E0090003CEFF0E4A3F090004DE004F0229052
:100B1E00003DE0243EF582E43400F583EFF09000D2
:100B2E003DE004F090003CE0FFA3E0C39F400B12B9
:0B0B3E000247800100E490004DF0220F
:10024700900042E0FEA3E0FDEDFF900053EEF0A327
:10025700EFF0900040E0B40141900053E0FEA3E0CE
:10026700FF90002EEEF0A3EFF0E4FCFD7BFF7AFF9A
:10027700F9F81200DCE47BE87A03F9F8120BEDEFEA
:100287002430FFEE34F8FEED34FFFDEC34FFFC9034
:10029700003412020AD200020421900040E0FFB4A9
:1002A7000314900053E0FDA3E0900028CDF0A3EDE8
:1002B700F0D200020421EFB4050D900053E0FFA334
:1002C700E09000080203D3900040E0FFB4070D90D0
:1002D7000053E0FDA3E090000A0203BEEFB4090D4E
:1002E700900053E0FFA3E090000C0203D39000407E
:1002F700E0FFB40B0D900053E0FDA3E09000100267
:1003070003BEEFB40D0D900053E0FFA3E09000147F
:100317000203D3900040E0FFB40F0D900053E0FDBF
:10032700A3E09000160203BEEFB4110D900053E056
:10033700FFA3E090001A0203D3900040E0FFB4133C
:100347000C900053E0FDA3E090001C806AEFB41509
:100357000C900053E0FFA3E0900020806F900040D6
:10036700E0FFB4170C900053E0FDA3E0900022805B
:1003770046EFB4190C900053E0FFA3E090002680ED
:100387004B900040E0FFB4300C900053E0FDA3E039
:100397009000128022EFB4320C900053E0FFA3E0EC
:1003A7009000188027900040E0FFB434119000536C
:1003B700E0FDA3E090001ECDF0A3EDF0805CEFB46C
:1003C7003611900053E0FFA3E0900024CFF0A3EF95
:1003D700F08047900040E0FFB4381B90000EE070BB
:1003E70004A3E0640190000E7005F0A3F0802BE4F5
:1003F700F0A304F08024EFB43A20900004E07004E6
:10040700A3E06401700A900004F0A3F0D297800A79
:0C041700900004E4F0A304F0C297D202AD
:0104230022B6
:03000B00020B9C49
:100B9C00C0E0C0F0C083C082C0D075D008758ACDCB
:100BAC00758CD490005C74FFF5F01200C645F070A3
:100BBC0025B2A790003A308305F0A3048003E4F03B
:100BCC00A3F0D202120A101206B41205CF90005CE8
:100BDC00E4F0A37409F0D0D0D082D083D0F0D0E070
:010BEC0032D6
:100CEA00438E80758901758ACD758CD4D28CD2A930
:0C0CFA00D2AF90005CE4F0A37409F0227B
:040C530041005E00FE
:100A100090005EE014601A1460271460582403707C
:100A20006330820630840320855B90005E7401F0A1
:100A30002230820630840320854490005E7402F0E8
:100A40002220821990003AE07002A3E0600F90002B
:100A50002AE4F0A304F0E4900056F0D202208409C6
:100A6000E490002AF0A3F0D202208502D202900086
:100A70005E7403F02230820D30840A308507E490E2
:060A8000005EF0220022DE
:100C570041005614410058144100571441005514DF
:1006B400900056E014602F14606614607714700381
:1006C4000207582404600302078CE4900057F0E00A
:1006D40075F006A42414F582E43400F583A3E090B5
:1006E4000055F0A3806A900057E0FF75F006A4243B
:1006F40014F582E43400F583E0FCA3E04C601AEFC7
:1007040075F006A42410F582E43400F583E0FEA31A
:10071400E04E600590005680379000567404F02235
:10072400E4900058F09000001202160000000090BF
:100734000056801C900058E06414704D900055E001
:1007440014F0E0D394004005A37402F02290005604
:10075400E004F022900057E004F0E0FF75F006A4F6
:100764002414F582E43400F583A3E0900055F0EFFF
:10077400C394045005A37401F0229000567414F03D
:0A078400E490002AF0A3F022002206
:1005CF00900058E014602714605B147003020670EB
:1005DF0014700302069C1470030206A8240560031E
:1005EF000206B2D295D296C290D29102069F900087
:1005FF0057E075F006A42410F582E43400F583E08B
:10060F00FEA3E07803CEC313CE13D8F9FDAC06D307
:10061F0090002DE09D90002CE09C50030206B3D279
:10062F0090C295806D900057E075F006A42410F5E8
:10063F0082E43400F583E0FCA3E0FDAE047803CE42
:10064F00C313CE13D8F9FFC3ED9FFDEC9EFCD390DF
:10065F00002DE09D90002CE09C4049C290D29580E7
:10066F0031900057E075F006A42410F582E43400B1
:10067F00F583E0FEA3E0FFD390002DE09F90002CC8
:10068F00E09E4020D29020801BC2948005208114D0
:10069F00D294900058E004F0222080089000587403
:0406AF0014F0220021
:0106B3002224
:10099000020842E493A3F8E493A34003F68001F233
:1009A00008DFF48029E493A3F85407240CC8C33368
:1009B000C4540F4420C8834004F456800146F6DF37
:1009C000E4800B0102040810204080900C31E47E8A
:1009D000019360BCA3FF543F30E509541FFEE4932C
:1009E000A360010ECF54C025E060A840B8E493A3F3
:1009F000FAE493A3F8E493A3C8C582C8CAC583CA1E
:100A0000F0A3C8C582C8CAC583CADFE9DEE780BED5
:010C6700008C
:10004600BB010689828A83E0225002E722BBFE02B8
:09005600E32289828A83E49322EB
:10005F00EF8DF0A4A8F0CF8CF0A428CE8DF0A42EB5
:02006F00FE226F
:10007100BC000BBE0029EF8DF084FFADF022E4CC73
:10008100F875F008EF2FFFEE33FEEC33FCEE9DEC3C
:10009100984005FCEE9DFE0FD5F0E9E4CEFD22ED82
:1000A100F8F5F0EE8420D21CFEADF075F008EF2FCC
:1000B100FFED33FD4007985006D5F0F222C398FDBD
:0500C1000FD5F0EA225A
:1000C600A3F8E0C5F025F0F0E582158270021583ED
:0600D600E0C838F0E8224A
:1000DC00E88FF0A4CC8BF0A42CFCE98EF0A42CFCC3
:1000EC008AF0EDA42CFCEA8EF0A4CDA8F08BF0A441
:1000FC002DCC3825F0FDE98FF0A42CCD35F0FCEBA0
:10010C008EF0A4FEA9F0EB8FF0A4CFC5F02ECD3964
:0F011C00FEE43CFCEAA42DCE35F0FDE43CFC22D1
:10012B0075F008758200EF2FFFEE33FECD33CDCC8B
:10013B0033CCC58233C5829BED9AEC99E58298400E
:10014B000CF582EE9BFEED9AFDEC99FC0FD5F0D6EB
:10015B00E4CEFBE4CDFAE4CCF9A88222B800C1B915
:10016B000059BA002DEC8BF084CFCECDFCE5F0CB53
:10017B00F97818EF2FFFEE33FEED33FDEC33FCEB8C
:10018B0033FB10D703994004EB99FB0FD8E5E4F947
:10019B00FA227818EF2FFFEE33FEED33FDEC33FC34
:1001AB00C933C910D7059BE99A4007EC9BFCE99A28
:1001BB00F90FD8E0E4C9FAE4CCFB2275F010EF2F6D
:1001CB00FFEE33FEED33FDCC33CCC833C810D7076D
:1001DB009BEC9AE899400AED9BFDEC9AFCE899F8A8
:0E01EB000FD5F0DAE4CDFBE4CCFAE4C8F9223B
:100BED00C2D5E830E70FB2D5E4C39BFBE49AFAE433
:100BFD0099F9E498F8EC30E717B2D5120C231201ED
:100C0D0067E4C39BFBE49AFAE499F9E498F880034E
:100C1D0012016730D50DE4C39FFFE49EFEE49DFDF8
:040C2D00E49CFC2225
:1001F900EB9FF5F0EA9E42F0E99D42F0E89C45F05C
:0102090022D2
:0C020A00ECF0A3EDF0A3EEF0A3EFF02267
:10021600A8828583F0D083D08212022D12022D127D
:10022600022D12022DE473E493A3C583C5F0C583A2
:10023600C8C582C8F0A3C583C5F0C583C8C582C832
:010246002295
:00000001FF
