:030000000203C533
:0C03C500787FE4F6D8FD75812002040C5E
:0300030002058D66
:10058D00C0E0C0F0C083C082C0D075D000C000C034
:10059D0004C005C006C007900000E0FCA3E0FDA369
:1005AD00E0FEA3E020A41024FFFFEE34FFFEED34A7
:1005BD00FFFDEC34FF800B2401FFE43EFEE43DFD26
:1005CD00E43CFC900000120192D007D006D005D07B
:0E05DD0004D000D0D0D082D083D0F0D0E03255
:0707F800D288D2A8D2AF2283
:1001CF00900020E0FCA3E0FD7F017E001206BE90B0
:1001DF00001AE0FCA3E0FD7F037E001206BE900034
:1001EF0004E0FCA3E0FD7F057E001206BE90000632
:1001FF00E0FCA3E0FD7F077E001206BE900008E042
:10020F00FCA3E0FD7F097E001206BE90000AE0FC11
:10021F00A3E0FD7F0B7E001206BE90000CE0FCA356
:10022F00E0FD7F0D7E001206BE90000EE0FCA3E005
:10023F00FD7F0F7E001206BE900010E0FCA3E0FDD4
:10024F007F117E001206BE900012E0FCA3E0FD7F3E
:10025F00137E001206BE900014E0FCA3E0FD7F1594
:10026F007E001206BE900016E0FCA3E0FD7F177E15
:10027F00001206BE900018E0FCA3E0FD7F197E007F
:10028F001206BE90001CE07002A3E0700D900028D3
:10029F00E07002A3E07003FD802E90001CE070025E
:1002AF00A3E0700E900028E07002A3E060047D01CF
:1002BF00801B90001CE07002A3E0600F900028E00C
:1002CF007002A3E070057D02FC80057D037C00E4D5
:1002DF00FFFE1206BE900024E0FCA3E0FD7F1B7E14
:1002EF00001206BE900026E0FCA3E0FD7F1D7E00FD
:1002FF001206BE90001EE0FCA3E0FD7F1F7E0012E1
:10030F0006BE900022E0FCA3E0FD7F217E000206E6
:01031F00BE1F
:100529001207F81207C9120451E47FE87E03FDFCA3
:10053900900000E0F8A3E0F9A3E0FAA3E0FB1200C1
:1005490075C006C007900020E0FEA3E0FBAA06E400
:10055900F9F8D007D00612010090001EEEF0A3EFC3
:10056900F01201CF300002C200B2A730830A900016
:1005790028E4F0A304F08007E4900028F0A3F01227
:0405890004C180A584
:10073A00EF1FAC0670011E4C6010900040E004F000
:0A074A0070EE90003FE004F080E63E
:010754002282
:08071300900041EEF0A3EFF0AD
:10071B00E4FBFAD3900042E09B900041E09A400E3C
:0E072B007FDE7E0112073A0BBB00010A80E55B
:01073900229D
:020006007F0178
:0100080022D5
:10045100E490001CF0A3F0900028F0A3F09000209D
:100461007403F0A374E8F090001AE4F0A37464F04C
:10047100E4900004F0A3F0A3F0A3F0A3F0A3F0A391
:10048100F0A3F0A3F0A3F0A3F0A3F0A3F0A3F0A3D3
:10049100F0A3F0A3F0A3F0A3F0A3F0A3F0A3F090D6
:1004A1000024F0A3F0A3F0A3F090001EF0A3F090BD
:1004B1000022F0A3F090000012019E000000002233
:0207FF007F0178
:0108010022D4
:1007B500AE071FEE600DE4FCFD0DED70010C4C6005
:0307C500EF80F6CC
:0107C800220E
:0D07D800E4F5C7F5C5F5C675C380F5C4226C
:1007880075C78375C5018FC4EEF5C375C65A75C69E
:07079800A500AFC21207D853
:01079F002237
:10076F0075C78375C5028FC4EEF5C3AF058FC2750C
:09077F00C65A75C6A5000207D890
:1007A00075C78375C5038FC4EEF5C375C65A75C684
:0507B000A5000207D8BE
:1006EA00C1004F002CFFFFFFFFFFFFFFFFFFFFFFCF
:1006FA00FFFFFFFF41003B0041002B0041002A00A1
:0F07C900759A50759CFD758E1475AF01D2AF22D5
:0300430002068F23
:10068F00C0E0C0F0C083C082C0D075D008E59A30FA
:10069F00E008539AFEAF9B1205EBE59A30E1055344
:0F06AF009AFDC201D0D0D082D083D0F0D0E032FB
:0907EF002001FDEFD201F59B226F
:10000E0090003CEBF0A3EAF0A3E9F090003CE0FB9B
:10001E00A3E0FAA3E0F9120046601790003CA3E4B7
:10002E0075F00112005FA9F0FA120046FF1207EFF9
:03003E0080D92244
:1006BE00AB07AA067F5A1207EF7FA51207EF7F0539
:1006CE001207EF7F821207EFEAFF1207EFAF031256
:0C06DE0007EFECFF1207EFAF050207EF7B
:1005EB0090003BE014601114601614602224037019
:1005FB0043EF645A70448010EFB4A502800A803533
:10060B0090002AEFF0E4A3F090003BE004F022907E
:10061B00002BE0242CF582E43400F583EFF09000FE
:10062B002BE004F090002AE0FFA3E0C39F400B12E5
:0B063B000320800100E490003BF0224F
:10032000900030E0FEA3E0FDEDFF90002EE0FDB474
:1003300001059000208075EDB4030590001A806CD3
:1003400090002EE0FDB40505900004805FEDB40739
:1003500005900006805690002EE0FDB4090590003F
:10036000088049EDB40B0590000A804090002EE013
:10037000FDB40D0590000C8033EDB40F0590000E18
:10038000802A90002EE0FDB41105900010801DED34
:10039000B41305900012801490002EE0FDB41505F2
:1003A0009000148007EDB4170A900016EEF0A3EF4A
:1003B000F0800F90002EE0B41908900018EEF0A322
:0403C000EFF0D20088
:0103C4002216
:03000B00020646A4
:10064600C0E0C0F0C083C082C0D075D008758ACD26
:10065600758CD490004374FFF5F012005F45F0707E
:100666001D900043F0A37409F0B2A7900028E4306F
:100676008306F0A304F08003F0A3F01204C1D0D0E7
:09068600D082D083D0F0D0E03224
:10075500758E80758901758ACD758CD4D28CD2A998
:0A076500D2AFE4900043F0A3F022AD
:04070A004100450065
:1004C100900045E014601A14602714604A240370F8
:1004D1005530820630840320854D9000457401F02B
:1004E100223082063084032085369000457402F064
:1004F10022208212900028E07002A3E060089000A0
:100501001CE4F0A304F0208407E490001CF0A3F0A5
:100511009000457403F02230820D30840A30850743
:08052100E4900045F0220022E5
:04070E004100460060
:0A07E500900046E06003800000224F
:1003D100020529E493A3F8E493A34003F68001F214
:1003E10008DFF48029E493A3F85407240CC8C3332D
:1003F100C4540F4420C8834004F456800146F6DFFC
:10040100E4800B01020408102040809006EAE47E9B
:10041100019360BCA3FF543F30E509541FFEE493F0
:10042100A360010ECF54C025E060A840B8E493A3B7
:10043100FAE493A3F8E493A3C8C582C8CAC583CAE2
:10044100F0A3C8C582C8CAC583CADFE9DEE780BE9A
:0107120000E6
:10004600BB010689828A83E0225002E722BBFE02B8
:09005600E32289828A83E49322EB
:10005F00A3F8E0C5F025F0F0E58215827002158354
:06006F00E0C838F0E822B1
:10007500E88FF0A4CC8BF0A42CFCE98EF0A42CFC2A
:100085008AF0EDA42CFCEA8EF0A4CDA8F08BF0A4A8
:100095002DCC3825F0FDE98FF0A42CCD35F0FCEB07
:1000A5008EF0A4FEA9F0EB8FF0A4CFC5F02ECD39CC
:0F00B500FEE43CFCEAA42DCE35F0FDE43CFC2239
:1000C40075F008758200EF2FFFEE33FECD33CDCCF3
:1000D40033CCC58233C5829BED9AEC99E582984076
:1000E4000CF582EE9BFEED9AFDEC99FC0FD5F0D653
:1000F400E4CEFBE4CDFAE4CCF9A88222B800C1B97D
:100104000059BA002DEC8BF084CFCECDFCE5F0CBBA
:10011400F97818EF2FFFEE33FEED33FDEC33FCEBF3
:1001240033FB10D703994004EB99FB0FD8E5E4F9AE
:10013400FA227818EF2FFFEE33FEED33FDEC33FC9B
:10014400C933C910D7059BE99A4007EC9BFCE99A8F
:10015400F90FD8E0E4C9FAE4CCFB2275F010EF2FD4
:10016400FFEE33FEED33FDCC33CCC833C810D707D4
:100174009BEC9AE899400AED9BFDEC9AFCE899F80F
:0E0184000FD5F0DAE4CDFBE4CCFAE4C8F922A2
:0C019200ECF0A3EDF0A3EEF0A3EFF022E0
:10019E00A8828583F0D083D0821201B51201B512E8
:1001AE0001B51201B5E473E493A3C583C5F0C5830D
:1001BE00C8C582C8F0A3C583C5F0C583C8C582C8AB
:0101CE00220E
:00000001FF
