:0300000002039662
:0C039600787FE4F6D8FD7581200201CFCD
:03000300020252A4
:10025200C0E0C0F0C083C082C0D075D000C000C072
:1002620004C005C006C007900000E0FCA3E0FDA3A7
:10027200E0FEA3E020A41024FFFFEE34FFFEED34E5
:10028200FFFDEC34FF800B2401FFE43EFEE43DFD64
:10029200E43CFC900000120192D007D006D005D0B9
:0E02A20004D000D0D0D082D083D0F0D0E03293
:0703AA00D288D2A8D2AF22D5
:1001CF001203AA12036C90000012019E000000009F
:1001DF009000227403F0A374E8F0E47FE87E03FD3F
:1001EF00FC900000E0F8A3E0F9A3E0FAA3E0FB1213
:1001FF000075C006C007900022E0FEA3E0FBAA0630
:10020F00E4F9F8D007D006120100900020EEF0A319
:10021F00EFF07F5A1200397FA51200397F051200C7
:10022F00397F82120039E4FF1200397F1F12003923
:10023F00900020E0FF120039900020A3E0FF120091
:03024F003980975C
:1002F700EF1FAC0670011E4C6010900030E004F058
:0A03070070EE90002FE004F080E695
:0103110022C9
:0802B000900031EEF0A3EFF025
:1002B800E4FBFAD3900032E09B900031E09A400EC4
:0E02C8007FDE7E011202F70BBB00010A80E50B
:0102D6002205
:0203B1007F01CA
:0103B3002227
:0803A200E490001EF0A3F0221C
:0203B4007F01C7
:0103B6002224
:10035800AE071FEE600DE4FCFD0DED70010C4C6066
:03036800EF80F62D
:01036B00226F
:0D038900E4F5C7F5C5F5C675C380F5C422BF
:10032B0075C78375C5018FC4EEF5C375C65A75C6FF
:07033B00A500AFC212038907
:010342002298
:1003120075C78375C5028FC4EEF5C3AF058FC2756D
:09032200C65A75C6A50002038944
:1003430075C78375C5038FC4EEF5C375C65A75C6E5
:05035300A50002038972
:0F036C00759A50759CFD758E1475AF01D2AF2236
:030043000202D7DF
:1002D700C0E0E59A30E00C539AFE859B80E59A547E
:1002E70004F5A0E59A30E105539AFDC200D0E0324B
:090039002000FDEFD200F59B222E
:1000060090002CEBF0A3EAF0A3E9F090002CE0FBC3
:10001600A3E0FAA3E0F9120046601790002CA3E4CF
:1000260075F00112005FA9F0FA120046FF120039BE
:0300360080D9224C
:0E037B00AD07AC06ECFF120039AF05020039E9
:10004600BB010689828A83E0225002E722BBFE02B8
:09005600E32289828A83E49322EB
:10005F00A3F8E0C5F025F0F0E58215827002158354
:06006F00E0C838F0E822B1
:10007500E88FF0A4CC8BF0A42CFCE98EF0A42CFC2A
:100085008AF0EDA42CFCEA8EF0A4CDA8F08BF0A4A8
:100095002DCC3825F0FDE98FF0A42CCD35F0FCEB07
:1000A5008EF0A4FEA9F0EB8FF0A4CFC5F02ECD39CC
:0F00B500FEE43CFCEAA42DCE35F0FDE43CFC2239
:1000C40075F008758200EF2FFFEE33FECD33CDCCF3
:1000D40033CCC58233C5829BED9AEC99E582984076
:1000E4000CF582EE9BFEED9AFDEC99FC0FD5F0D653
:1000F400E4CEFBE4CDFAE4CCF9A88222B800C1B97D
:100104000059BA002DEC8BF084CFCECDFCE5F0CBBA
:10011400F97818EF2FFFEE33FEED33FDEC33FCEBF3
:1001240033FB10D703994004EB99FB0FD8E5E4F9AE
:10013400FA227818EF2FFFEE33FEED33FDEC33FC9B
:10014400C933C910D7059BE99A4007EC9BFCE99A8F
:10015400F90FD8E0E4C9FAE4CCFB2275F010EF2FD4
:10016400FFEE33FEED33FDCC33CCC833C810D707D4
:100174009BEC9AE899400AED9BFDEC9AFCE899F80F
:0E0184000FD5F0DAE4CDFBE4CCFAE4C8F922A2
:0C019200ECF0A3EDF0A3EEF0A3EFF022E0
:10019E00A8828583F0D083D0821201B51201B512E8
:1001AE0001B51201B5E473E493A3C583C5F0C5830D
:1001BE00C8C582C8F0A3C583C5F0C583C8C582C8AB
:0101CE00220E
:00000001FF
