:03000000020C5897
:0C0C5800787FE4F6D8FD758120020C9F27
:03000300020A628C
:100A6200C0E0C0F0C083C082C0D075D000C000C05A
:100A720001C002C003C004C005C006C00720A036E2
:100A8200E4FFFEFDFC900000E0F8A3E0F9A3E0FA29
:100A9200A3E0FBD3120431405E900000E0FCA3E02F
:100AA200FDA3E0FEA3E024FFFFEE34FFFEED34FFE2
:100AB200FDEC34FF803A900034E0FCA3E0FDA3E0BB
:100AC200FEA3E0FF900000E0F8A3E0F9A3E0FAA3A0
:100AD200E0FBD3120431501F900000E0FCA3E0FDC4
:100AE200A3E0FEA3E02401FFE43EFEE43DFDE43C7E
:100AF200FC900000120442D202D007D006D005D0EA
:100B020004D003D002D001D000D0D0D082D083D084
:040B1200F0D0E0320D
:07103300D288D2A8D2AF223F
:10064A0090002EE0FCA3E0FD7F017E00120F2D90AA
:10065A000028E0FCA3E0FD7F037E00120F2D90002E
:10066A0008E0FCA3E0FD7F057E00120F2D90000A32
:10067A00E0FCA3E0FD7F077E00120F2D90000CE046
:10068A00FCA3E0FD7F097E00120F2D900010E0FC14
:10069A00A3E0FD7F0B7E00120F2D900012E0FCA359
:1006AA00E0FD7F307E00120F2D900014E0FCA3E0E5
:1006BA00FD7F0D7E00120F2D900016E0FCA3E0FDD9
:1006CA007F0F7E00120F2D900018E0FCA3E0FD7F43
:1006DA00327E00120F2D90001AE0FCA3E0FD7F117C
:1006EA007E00120F2D90001CE0FCA3E0FD7F137E1C
:1006FA0000120F2D90001EE0FCA3E0FD7F347E0067
:10070A00120F2D900020E0FCA3E0FD7F157E001261
:10071A000F2D900022E0FCA3E0FD7F177E00120F50
:10072A002D900024E0FCA3E0FD7F367E00120F2D01
:10073A00900026E0FCA3E0FD7F197E00120F2D90A9
:10074A00002AE07002A3E0700D90003AE07002A364
:10075A00E07003FD802E90002AE07002A3E0700E84
:10076A0090003AE07002A3E060047D01801B9000D3
:10077A002AE07002A3E0600F90003AE07002A3E062
:10078A0070057D02FC80057D037C00E4FFFE120FEC
:10079A002D90000EE0FCA3E0FD7F387E00120F2DA5
:1007AA00900004E0FCA3E0FD7F3A7E00120F2D903A
:1007BA000032E0FCA3E0FD7F1B7E00120F2D9000AB
:1007CA0038E0FCA3E0FD7F1D7E00120F2D90002C67
:1007DA00E0FCA3E0FD7F1F7E00120F2D900030E0A9
:0B07EA00FCA3E0FD7F217E00020F2D2C
:100B160012103312100E120FB4120BC290002EE0F8
:100B2600FEA3E0FFE4FCFD7BFF7AFFF9F812031455
:100B3600E47BE87A03F9F8120EBAEF2430FFEE34BC
:100B4600F8FEED34FFFDEC34FFFC90003412044255
:100B5600900028E0FEA3E0FF7C037DE81202979058
:100B6600002EE0FCA3E0FD1202A9900006EEF0A321
:100B7600EFF0E47FE87E03FDFC900000E0F8A3E0E0
:100B8600F9A3E0FAA3E0FB120314C006C007900025
:100B96002EE0FEA3E0FBAA06E4F9F8D007D0061281
:100BA600039F90002CEEF0A3EFF0300205C2021274
:0C0BB600064A3000BD120E23C20080B6BB
:100F8000EF1FAC0670011E4C6010900052E004F0A0
:0A0F900070EE900051E004F080E6DE
:010F9A002234
:080F590090004FEEF0A3EFF051
:100F6100E4FBFAD3900050E09B90004FE09A400ED2
:0E0F71007FDE7E01120F800BBB00010A80E5BF
:010F7F00224F
:100D600090004E7401F07FC87E00120FCDEF64EE4C
:100D7000704BFFFE120FCDEF7F00FEC007C0060FC5
:100D80007E00120FCDEFFDD0E0FFD0E04D90002EA1
:100D9000CFF0A3EFF07F027E00120FCDEF7F00FEB9
:100DA000C007C0067F037E00120FCDEFFDD0E0FF2D
:100DB000D0E04D900028CFF0A3EFF08005E4900044
:070DC0004EF090004EE0FF31
:010DC7002209
:100BC200E490002AF0A3F090003AF0A3F090000E17
:100BD200F0A3F0900004F0A3F0120D60EF701390F8
:100BE200002E7403F0A374E8F0900028E4F0A374DC
:100BF20064F0E4900008F0A3F0A3F0A3F0A3F0A344
:100C0200F0900010F0A3F0A3F0A3F0A3F0A3F0A3E0
:100C1200F0A3F0A3F0A3F0A3F0A3F0A3F0A3F0A33A
:100C2200F0A3F0A3F0A3F0A3F0A3F0A3F0A3F0A32A
:100C3200F0A3F0900032F0A3F0900038F0A3F0900F
:100C4200002CF0A3F0900030F0A3F090000012040A
:060C52004E00000000222C
:100E230090004E7401F07F0A7E00120F59E4FFFE1A
:100E3300120FE590002EE0FDE4FFFE120F9B9000E1
:100E43002EA3E0FD7F017E00120F9B900028E0FDA2
:100E53007F027E00120F9B900028A3E0FD7F037E9C
:100E630000120F9B7DEE7FC87E00120F9B90004EF9
:020E7300E0FF9E
:010E7500225A
:100FFA00AE071FEE600DE4FCFD0DED70010C4C60B8
:03100A00EF80F67E
:01100D0022C0
:0D101D00E4F5C7F5C5F5C675C380F5C4221E
:100FCD0075C78375C5018FC4EEF5C375C65A75C651
:070FDD00A500AFC212101DB8
:010FE40022EA
:100F9B0075C78375C5028FC4EEF5C3AF058FC275D8
:090FAB00C65A75C6A50002101D0E
:100FE50075C78375C5038FC4EEF5C375C65A75C637
:050FF500A50002101D23
:100E7600C102C1004F003EFFFFFFFFFFFFFFFFFF64
:100E8600FFFFFFFFFFFF41004D0041003D00410015
:020E96003C001E
:0F100E00759A50759CFD438E1475AF01D2AF22B9
:03004300020EFEAC
:100EFE00C0E0C0F0C083C082C0D075D008E59A3083
:100F0E00E008539AFEAF9B120DC8E59A30E10553E7
:0F0F1E009AFDC201D0D0D082D083D0F0D0E03283
:09102A002001FDEFD201F59B222B
:10000E00900061EBF0A3EAF0A3E9F0900061E0FB51
:10001E00A3E0FAA3E0F912027E6017900061A3E458
:10002E0075F0011202FEA9F0FA12027EFF12102ADA
:03003E0080D92244
:100F2D00AB07AA067F5A12102A7FA512102A7F0539
:100F3D0012102A7F8212102AEAFF12102AAF031212
:0C0F4D00102AECFF12102AAF0502102A37
:100DC80090004DE014601114601614602224037022
:100DD80043EF645A70448010EFB4A502800A80354E
:100DE80090003CEFF0E4A3F090004DE004F0229076
:100DF800003DE0243EF582E43400F583EFF09000F6
:100E08003DE004F090003CE0FFA3E0C39F400B12DC
:0B0E18000046800100E490004DF02235
:10004600900042E0FEA3E0FDEDFF900053EEF0A32A
:10005600EFF0900040E0B40141900053E0FEA3E0D1
:10006600FF90002EEEF0A3EFF0E4FCFD7BFF7AFF9D
:10007600F9F8120314E47BE87A03F9F8120EBAEFE2
:100086002430FFEE34F8FEED34FFFDEC34FFFC9037
:100096000034120442D20002027B900040E0FFB41A
:1000A6000314900053E0FDA3E0900028CDF0A3EDEB
:1000B600F0D20002027BEFB4050D900053E0FFA3DF
:1000C600E09000080201D3900040E0FFB4070D90D5
:1000D6000053E0FDA3E090000A0201BDEFB4090D54
:1000E600900053E0FFA3E090000C0201D390004083
:1000F600E0FFB40B0D900053E0FDA3E0900010026A
:1001060001BDEFB40D0D900053E0FFA3E090001485
:100116000201D3900040E0FFB40F0D900053E0FDC4
:10012600A3E09000160201BDEFB4110D900053E05C
:10013600FFA3E090001A0201D3900040E0FFB41341
:100146000C900053E0FDA3E090001C806AEFB4150C
:100156000C900053E0FFA3E09000208070900040D8
:10016600E0FFB4170C900053E0FDA3E0900022805E
:1001760046EFB4190C900053E0FFA3E090002680F0
:100186004C900040E0FFB4300C900053E0FDA3E03B
:100196009000128022EFB4320C900053E0FFA3E0EF
:1001A6009000188028900040E0FFB434129000536D
:1001B600E0FDA3E090001ECDF0A3EDF002027BEF80
:1001C600B43612900053E0FFA3E0900024CFF0A3D2
:1001D600EFF002027B900040E0FFB4381C90000E66
:1001E600E07004A3E0640190000E7006F0A3F00234
:1001F600027BE4F0A304F0807CEFB43A1F90000485
:10020600E07004A3E064019000047007F0A3F0D24C
:10021600978062E4F0A304F0C2978059900040E012
:10022600FF64236050EF6424604BEF64256046EF63
:1002360064266041EF6427603CEFB4283890005B89
:100246007414F0900060F0E490002AF0A3F090009F
:1002560032F0A3F0900038F0A3F090000012044EA4
:1002660000000000E4900030F0A3F090005CF090F5
:0702760000597414F0D202DC
:01027D00225E
:03000B00020CE400
:100CE400C0E0C0F0C083C082C0D075D008758ACD82
:100CF400758CD4900064E0FF14F0EF705490005FA2
:100D0400E004F0700690005EE004F0B2A7308309BE
:100D140090003AE4F0A304802690005BE090005C2D
:100D2400F0900060E0900059F090005B7414F09033
:100D34000060F090003AE4F0A3F090002AF0A3F0F1
:100D4400D20212095E1207F512047F90006474093E
:0C0D5400F0D0D0D082D083D0F0D0E032BC
:100FB400438E80758901758ACD758CD4D28CD2A963
:090FC400D2AF9000647409F02220
:040E980041006500B0
:10095E00900065E0146023146033147003020A5192
:10096E0024036003020A6030820930840630850356
:10097E00020A619000657401F02230820630840311
:10098E002085079000657402F022020A5A20822BFD
:10099E0090003AE07002A3E0602190002AE4F0A3F8
:1009AE0004F090005CE090005BF0900059E0900045
:1009BE0060F0E490005EF0A3F0D202208456900026
:1009CE002AE0FEA3E0FF64014E702090005BE090F1
:1009DE00005CF0900060E0900059F090005B7414A1
:1009EE00F0900060F0E490002A8024EF64024E70D4
:1009FE002390005CE090005BF0900059E090006066
:100A0E00F090002AE4F0A304F0D2A4E490005EF08B
:100A1E00A3F0D20220852590003AE07002A3E06098
:100A2E0019900060E0B4161220800FC294E490007A
:100A3E005EF0A3F09000607404F0D2029000657432
:100A4E0003F02230820D30840A308507E490006571
:040A5E00F022002260
:100E9C0041005B1441005C00410060144100591496
:0D0EAC0041005D1441005A1442005E000038
:1007F50090005BE01460411460761470030208C633
:100805001470030208FA2404600302095CE49000F2
:100815005DF0E075F006A42414F582E43400F58358
:10082500A3E0FE90005AF0E4900030F0A3F09000B1
:1008350038F0A3CEF00208F390005DE0FF75F006F6
:10084500A42414F582E43400F583E0FCA3E04C60B5
:1008550018EF75F006A42410F582E43400F583E062
:10086500FEA3E04E60030208F390005B7404F022DF
:1008750090005DE0FB75F006A42412F582E43400D7
:10088500F583E0FCA3E0FD900030E0FEA3E0FF125D
:100895000297EB75F006A42410F582E43400F58385
:1008A500E0FCA3E0C39FFFEC9E900032F0A3EFF0C5
:1008B500E4900060F090000012044E0000000080FB
:1008C5002D900060E06414600302095D90005AE019
:1008D50014F0900031E004F07006900030E004F070
:1008E50090005AE0D394004005A37402F0229000D2
:1008F5005BE004F02290005DE004F0E0FFC39404A7
:10090500502AEF75F006A42414F582E43400F5832B
:10091500A3E0FE90005AF0E4900030F0A3F09000C0
:1009250038F0A3CEF090005B7401F02290005B7468
:1009350014F0E490002AF0A3F0900032F0A3F090B8
:100945000038F0A3F090000012044E00000000E40F
:09095500900030F0A3F022002212
:10047F00900060E0F924EC700302063924FE70034B
:10048F000206462416B4060040030206489004A351
:10049F00F82828730204B50204C402051302056983
:1004AF000205BD0205FCD295D296C290D291D2948C
:1004BF00D2A50205F5C290D295900006E0FEA3E00A
:1004CF00FFC3900033E09FFF900032E09E900055F5
:1004DF00F0A3EFF0900055E0FEA3E07803CEC31336
:1004EF00CE13D8F9FF900057EEF0A3EFF0D39000A2
:1004FF002DE09F90002CE09E5003020649C290C24F
:10050F00950205F5C290C295900006E0FEA3E0FFAC
:10051F00C3900033E09FFD900032E09EFC900055A9
:10052F00F0A3EDF0900055E0FEA3E07803CEC313E7
:10053F00CE13D8F9FFC3ED9FFFEC9EFE900057F04E
:10054F00A3EFF0D390002DE09F90002CE09E50037E
:10055F00020649C290D2950205F5C290900006E0BE
:10056F00FEA3E0FFC3900033E09FFF900032E09EB8
:10057F00FE900055F0A3EFF0D390002DE09F900078
:10058F002CE09E5003020649D290308003020649A8
:10059F0090000EE07004A3E06401700BC294900011
:1005AF005EF0A3F0A380429000607416F022C29414
:1005BF00D390005FE094E890005EE09403402090B9
:1005CF00005BE0A3F0900059E9F090005B7414F029
:1005DF00900060F0C2A490002AE4F0A37402F0200F
:1005EF008158D294C2A5900060E004F022C2A5D336
:1005FF0090005FE094E890005EE09403402090004C
:10060F005BE0A3F0900059E9F090005B7414F09058
:10061F000060F0C2A490002AE4F0A37402F02080DE
:10062F0019D2A59000607414F022D295D296D29070
:0A063F00D291D294D2A5220022002D
:01064900228E
:100C6400020B16E493A3F8E493A34003F68001F285
:100C740008DFF48029E493A3F85407240CC8C33391
:100C8400C4540F4420C8834004F456800146F6DF60
:100C9400E4800B0102040810204080900E76E47E6C
:100CA400019360BCA3FF543F30E509541FFEE49355
:100CB400A360010ECF54C025E060A840B8E493A31C
:100CC400FAE493A3F8E493A3C8C582C8CAC583CA47
:100CD400F0A3C8C582C8CAC583CADFE9DEE780BEFF
:010EB9000038
:10027E00BB010689828A83E0225002E722BBFE027E
:09028E00E32289828A83E49322B1
:10029700EF8DF0A4A8F0CF8CF0A428CE8DF0A42E7B
:0202A700FE2235
:1002A900BC000BBE0029EF8DF084FFADF022E4CC39
:1002B900F875F008EF2FFFEE33FEEC33FCEE9DEC02
:1002C900984005FCEE9DFE0FD5F0E9E4CEFD22ED48
:1002D900F8F5F0EE8420D21CFEADF075F008EF2F92
:1002E900FFED33FD4007985006D5F0F222C398FD83
:0502F9000FD5F0EA2220
:1002FE00A3F8E0C5F025F0F0E582158270021583B3
:06030E00E0C838F0E8220F
:10031400E88FF0A4CC8BF0A42CFCE98EF0A42CFC88
:100324008AF0EDA42CFCEA8EF0A4CDA8F08BF0A406
:100334002DCC3825F0FDE98FF0A42CCD35F0FCEB65
:100344008EF0A4FEA9F0EB8FF0A4CFC5F02ECD392A
:0F035400FEE43CFCEAA42DCE35F0FDE43CFC2297
:1003630075F008758200EF2FFFEE33FECD33CDCC51
:1003730033CCC58233C5829BED9AEC99E5829840D4
:100383000CF582EE9BFEED9AFDEC99FC0FD5F0D6B1
:10039300E4CEFBE4CDFAE4CCF9A88222B800C1B9DB
:1003A3000059BA002DEC8BF084CFCECDFCE5F0CB19
:1003B300F97818EF2FFFEE33FEED33FDEC33FCEB52
:1003C30033FB10D703994004EB99FB0FD8E5E4F90D
:1003D300FA227818EF2FFFEE33FEED33FDEC33FCFA
:1003E300C933C910D7059BE99A4007EC9BFCE99AEE
:1003F300F90FD8E0E4C9FAE4CCFB2275F010EF2F33
:10040300FFEE33FEED33FDCC33CCC833C810D70732
:100413009BEC9AE899400AED9BFDEC9AFCE899F86D
:0E0423000FD5F0DAE4CDFBE4CCFAE4C8F92200
:100EBA00C2D5E830E70FB2D5E4C39BFBE49AFAE463
:100ECA0099F9E498F8EC30E717B2D5120EF012034C
:100EDA009FE4C39BFBE49AFAE499F9E498F8800347
:100EEA0012039F30D50DE4C39FFFE49EFEE49DFDEF
:040EFA00E49CFC2256
:10043100EB9FF5F0EA9E42F0E99D42F0E89C45F021
:010441002298
:0C044200ECF0A3EDF0A3EEF0A3EFF0222D
:10044E00A8828583F0D083D08212046512046512CF
:10045E000465120465E473E493A3C583C5F0C583F4
:10046E00C8C582C8F0A3C583C5F0C583C8C582C8F8
:01047E00225B
:00000001FF
