:0300000002039A5E
:0C039A00787FE4F6D8FD7581200201CFC9
:03000300020256A0
:10025600C0E0C0F0C083C082C0D075D000C000C06E
:1002660004C005C006C007900000E0FCA3E0FDA3A3
:10027600E0FEA3E020A41024FFFFEE34FFFEED34E1
:10028600FFFDEC34FF800B2401FFE43EFEE43DFD60
:10029600E43CFC900000120192D007D006D005D0B5
:0E02A60004D000D0D0D082D083D0F0D0E0328F
:0703A600D288D2A8D2AF22D9
:1001CF001203A612037090000012019E000000009F
:1001DF00C295D2969000227403F0A374E8F0E47FE6
:1001EF00E87E03FDFC900000E0F8A3E0F9A3E0FA3D
:1001FF00A3E0FB120075C006C007900022E0FEA32B
:10020F00E0FBAA06E4F9F8D007D00612010090002F
:10021F0020EEF0A3EFF07F5A1200397FA5120039BC
:10022F007F051200397F82120039E4FF1200397FF7
:10023F001F120039900020E0FF120039900020A318
:07024F00E0FF120039809767
:1002FB00EF1FAC0670011E4C6010900030E004F054
:0A030B0070EE90002FE004F080E691
:0103150022C5
:0802B400900031EEF0A3EFF021
:1002BC00E4FBFAD3900032E09B900031E09A400EC0
:0E02CC007FDE7E011202FB0BBB00010A80E503
:0102DA002201
:0203AD007F01CE
:0103AF00222B
:01004200229B
:0203B0007F01CB
:0103B2002228
:10035C00AE071FEE600DE4FCFD0DED70010C4C6062
:03036C00EF80F629
:01036F00226B
:0D038D00E4F5C7F5C5F5C675C380F5C422BB
:10032F0075C78375C5018FC4EEF5C375C65A75C6FB
:07033F00A500AFC212038DFF
:010346002294
:1003160075C78375C5028FC4EEF5C3AF058FC27569
:09032600C65A75C6A50002038D3C
:1003470075C78375C5038FC4EEF5C375C65A75C6E1
:05035700A50002038D6A
:0F037000759A50759CFD758E1475AF01D2AF2232
:030043000202DBDB
:1002DB00C0E0E59A30E00C539AFE859B80E59A547A
:1002EB0004F5A0E59A30E105539AFDC200D0E03247
:090039002000FDEFD200F59B222E
:1000060090002CEBF0A3EAF0A3E9F090002CE0FBC3
:10001600A3E0FAA3E0F9120046601790002CA3E4CF
:1000260075F00112005FA9F0FA120046FF120039BE
:0300360080D9224C
:0E037F00AD07AC06ECFF120039AF05020039E5
:10004600BB010689828A83E0225002E722BBFE02B8
:09005600E32289828A83E49322EB
:10005F00A3F8E0C5F025F0F0E58215827002158354
:06006F00E0C838F0E822B1
:10007500E88FF0A4CC8BF0A42CFCE98EF0A42CFC2A
:100085008AF0EDA42CFCEA8EF0A4CDA8F08BF0A4A8
:100095002DCC3825F0FDE98FF0A42CCD35F0FCEB07
:1000A5008EF0A4FEA9F0EB8FF0A4CFC5F02ECD39CC
:0F00B500FEE43CFCEAA42DCE35F0FDE43CFC2239
:1000C40075F008758200EF2FFFEE33FECD33CDCCF3
:1000D40033CCC58233C5829BED9AEC99E582984076
:1000E4000CF582EE9BFEED9AFDEC99FC0FD5F0D653
:1000F400E4CEFBE4CDFAE4CCF9A88222B800C1B97D
:100104000059BA002DEC8BF084CFCECDFCE5F0CBBA
:10011400F97818EF2FFFEE33FEED33FDEC33FCEBF3
:1001240033FB10D703994004EB99FB0FD8E5E4F9AE
:10013400FA227818EF2FFFEE33FEED33FDEC33FC9B
:10014400C933C910D7059BE99A4007EC9BFCE99A8F
:10015400F90FD8E0E4C9FAE4CCFB2275F010EF2FD4
:10016400FFEE33FEED33FDCC33CCC833C810D707D4
:100174009BEC9AE899400AED9BFDEC9AFCE899F80F
:0E0184000FD5F0DAE4CDFBE4CCFAE4C8F922A2
:0C019200ECF0A3EDF0A3EEF0A3EFF022E0
:10019E00A8828583F0D083D0821201B51201B512E8
:1001AE0001B51201B5E473E493A3C583C5F0C5830D
:1001BE00C8C582C8F0A3C583C5F0C583C8C582C8AB
:0101CE00220E
:00000001FF
