:03000000020A49A8
:0C0A4900787FE4F6D8FD758120020A9049
:030003000208539D
:10085300C0E0C0F0C083C082C0D075D000C000C06B
:1008630001C002C003C004C005C006C00720A036F3
:10087300E4FFFEFDFC900000E0F8A3E0F9A3E0FA3A
:10088300A3E0FBD31201F9405E900000E0FCA3E07B
:10089300FDA3E0FEA3E024FFFFEE34FFFEED34FFF3
:1008A300FDEC34FF803A900034E0FCA3E0FDA3E0CC
:1008B300FEA3E0FF900000E0F8A3E0F9A3E0FAA3B1
:1008C300E0FBD31201F9501F900000E0FCA3E0FD10
:1008D300A3E0FEA3E02401FFE43EFEE43DFDE43C8F
:1008E300FC90000012020AD202D007D006D005D035
:1008F30004D003D002D001D000D0D0D082D083D096
:04090300F0D0E0321E
:070E7B00D288D2A8D2AF22F9
:1004240090002EE0FCA3E0FD7F017E00120D72908F
:100434000028E0FCA3E0FD7F037E00120D72900013
:1004440008E0FCA3E0FD7F057E00120D7290000A17
:10045400E0FCA3E0FD7F077E00120D7290000CE02B
:10046400FCA3E0FD7F097E00120D72900010E0FCF9
:10047400A3E0FD7F0B7E00120D72900012E0FCA33E
:10048400E0FD7F307E00120D72900014E0FCA3E0CA
:10049400FD7F0D7E00120D72900016E0FCA3E0FDBE
:1004A4007F0F7E00120D72900018E0FCA3E0FD7F28
:1004B400327E00120D7290001AE0FCA3E0FD7F1161
:1004C4007E00120D7290001CE0FCA3E0FD7F137E01
:1004D40000120D7290001EE0FCA3E0FD7F347E004C
:1004E400120D72900020E0FCA3E0FD7F157E001247
:1004F4000D72900022E0FCA3E0FD7F177E00120D38
:1005040072900024E0FCA3E0FD7F367E00120D72A1
:10051400900026E0FCA3E0FD7F197E00120D72908E
:10052400002AE07002A3E0700D90003AE07002A38C
:10053400E07003FD802E90002AE07002A3E0700EAC
:1005440090003AE07002A3E060047D01801B9000FB
:100554002AE07002A3E0600F90003AE07002A3E08A
:1005640070057D02FC80057D037C00E4FFFE120D16
:100574007290000EE0FCA3E0FD7F387E00120D7245
:10058400900004E0FCA3E0FD7F3A7E00120D72901F
:100594000032E0FCA3E0FD7F1B7E00120D72900090
:1005A40038E0FCA3E0FD7F1D7E00120D7290002C4C
:1005B400E0FCA3E0FD7F1F7E00120D72900030E08E
:0B05C400FCA3E0FD7F217E00020D7211
:10090700120E7B120E56120DC51209B390002EE07F
:10091700FEA3E0FFE4FCFD7BFF7AFFF9F81200DCA1
:10092700E47BE87A03F9F8120CC8EF2430FFEE34C1
:10093700F8FEED34FFFDEC34FFFC90003412020AA0
:10094700900028E0FEA3E0FF7C037DE812005F90A3
:10095700002EE0FCA3E0FD120071900006EEF0A36C
:10096700EFF0E47FE87E03FDFC900000E0F8A3E0F1
:10097700F9A3E0FAA3E0FB1200DCC006C007900071
:100987002EE0FEA3E0FBAA06E4F9F8D007D0061292
:10099700016790002CEEF0A3EFF0300205C20212BF
:0C09A70004243000BD120C24C20080B6F5
:100DE100EF1FAC0670011E4C6010900052E004F041
:0A0DF10070EE900051E004F080E67F
:010DFB0022D5
:080D9E0090004FEEF0A3EFF00E
:100DA600E4FBFAD3900050E09B90004FE09A400E8F
:0E0DB6007FDE7E01120DE10BBB00010A80E51D
:010DC400220C
:100B610090004E7401F07FC87E00120E15EF64EE06
:100B7100704BFFFE120E15EF7F00FEC007C0060F7F
:100B81007E00120E15EFFDD0E0FFD0E04D90002E5B
:100B9100CFF0A3EFF07F027E00120E15EF7F00FE73
:100BA100C007C0067F037E00120E15EFFDD0E0FFE7
:100BB100D0E04D900028CFF0A3EFF08005E4900045
:070BC1004EF090004EE0FF32
:010BC800220A
:1009B300E490002AF0A3F090003AF0A3F090000E28
:1009C300F0A3F0900004F0A3F0120B61EF7013900A
:1009D300002E7403F0A374E8F0900028E4F0A374ED
:1009E30064F0E4900008F0A3F0A3F0A3F0A3F0A355
:1009F300F0900010F0A3F0A3F0A3F0A3F0A3F0A3F2
:100A0300F0A3F0A3F0A3F0A3F0A3F0A3F0A3F0A34B
:100A1300F0A3F0A3F0A3F0A3F0A3F0A3F0A3F0A33B
:100A2300F0A3F0900032F0A3F0900038F0A3F09020
:100A3300002CF0A3F0900030F0A3F090000012021D
:060A430016000000002275
:100C240090004E7401F07F0A7E00120D9EE4FFFED8
:100C3400120E2D90002EE0FDE4FFFE120DFC90003C
:100C44002EA3E0FD7F017E00120DFC900028E0FD44
:100C54007F027E00120DFC900028A3E0FD7F037E3E
:100C640000120DFC7DEE7FC87E00120DFC90004E3C
:020C7400E0FF9F
:010C7600225B
:100E4200AE071FEE600DE4FCFD0DED70010C4C6071
:030E5200EF80F638
:010E5500227A
:0D0E6500E4F5C7F5C5F5C675C380F5C422D8
:100E150075C78375C5018FC4EEF5C375C65A75C60A
:070E2500A500AFC2120E652B
:010E2C0022A3
:100DFC0075C78375C5028FC4EEF5C3AF058FC27579
:090E0C00C65A75C6A500020E6568
:100E2D0075C78375C5038FC4EEF5C375C65A75C6F0
:050E3D00A500020E6596
:100D0C00C102C1004F003EFFFFFFFFFFFFFFFFFFCF
:100D1C00FFFFFFFFFFFF41004D0041003D00410080
:020D2C003C0089
:0F0E5600759A50759CFD438E1475AF01D2AF2273
:03004300020D4368
:100D4300C0E0C0F0C083C082C0D075D008E59A303F
:100D5300E008539AFEAF9B120BC9E59A30E10553A5
:0F0D63009AFDC201D0D0D082D083D0F0D0E03240
:090E72002001FDEFD201F59B22E5
:10000E0090005DEBF0A3EAF0A3E9F090005DE0FB59
:10001E00A3E0FAA3E0F9120046601790005DA3E496
:10002E0075F0011200C6A9F0FA120046FF120E7208
:03003E0080D92244
:100D7200AB07AA067F5A120E727FA5120E727F056A
:100D8200120E727F82120E72EAFF120E72AF0312FD
:0C0D92000E72ECFF120E72AF05020E7222
:100BC90090004DE014601114601614602224037023
:100BD90043EF645A70448010EFB4A502800A80354F
:100BE90090003CEFF0E4A3F090004DE004F0229077
:100BF900003DE0243EF582E43400F583EFF09000F7
:100C09003DE004F090003CE0FFA3E0C39F400B12DD
:0B0C19000247800100E490004DF02233
:10024700900042E0FEA3E0FDEDFF900053EEF0A327
:10025700EFF0900040E0B40141900053E0FEA3E0CE
:10026700FF90002EEEF0A3EFF0E4FCFD7BFF7AFF9A
:10027700F9F81200DCE47BE87A03F9F8120CC8EF0E
:100287002430FFEE34F8FEED34FFFDEC34FFFC9034
:10029700003412020AD200020421900040E0FFB4A9
:1002A7000314900053E0FDA3E0900028CDF0A3EDE8
:1002B700F0D200020421EFB4050D900053E0FFA334
:1002C700E09000080203D3900040E0FFB4070D90D0
:1002D7000053E0FDA3E090000A0203BEEFB4090D4E
:1002E700900053E0FFA3E090000C0203D39000407E
:1002F700E0FFB40B0D900053E0FDA3E09000100267
:1003070003BEEFB40D0D900053E0FFA3E09000147F
:100317000203D3900040E0FFB40F0D900053E0FDBF
:10032700A3E09000160203BEEFB4110D900053E056
:10033700FFA3E090001A0203D3900040E0FFB4133C
:100347000C900053E0FDA3E090001C806AEFB41509
:100357000C900053E0FFA3E0900020806F900040D6
:10036700E0FFB4170C900053E0FDA3E0900022805B
:1003770046EFB4190C900053E0FFA3E090002680ED
:100387004B900040E0FFB4300C900053E0FDA3E039
:100397009000128022EFB4320C900053E0FFA3E0EC
:1003A7009000188027900040E0FFB434119000536C
:1003B700E0FDA3E090001ECDF0A3EDF0805CEFB46C
:1003C7003611900053E0FFA3E0900024CFF0A3EF95
:1003D700F08047900040E0FFB4381B90000EE070BB
:1003E70004A3E0640190000E7005F0A3F0802BE4F5
:1003F700F0A304F08024EFB43A20900004E07004E6
:10040700A3E06401700A900004F0A3F0D297800A79
:0C041700900004E4F0A304F0C297D202AD
:0104230022B6
:03000B00020C776D
:100C7700C0E0C0F0C083C082C0D075D008758ACDEF
:100C8700758CD490006074FFF5F01200C645F070C3
:100C970025B2A790003A308305F0A3048003E4F05F
:100CA700A3F0D202120AD51205CF120718900060DE
:100CB700E4F0A37409F0D0D0D082D083D0F0D0E094
:010CC70032FA
:100DC500438E80758901758ACD758CD4D28CD2A954
:0C0DD500D2AF900060E4F0A37409F0229B
:040D2E00410062001E
:100AD500900062E014601A14602714606E2403709D
:100AE500793082063084032085719000627401F0AC
:100AF5002230820630840320855A9000627402F009
:100B05002220821990003AE07002A3E0600F900065
:100B15002AE4F0A304F0E490005AF0D202208409FC
:100B2500E490002AF0A3F0D20220851890003AE064
:100B35007002A3E0600C90005CE0B41605C29474EA
:100B450004F0D2029000627403F02230820D3084EA
:0C0B55000A308507E4900062F0220022C4
:100D320041005A1441005C1441005B1441005914F3
:1005CF0090005AE01460411460761470030206A084
:1005DF001470030206D124046003020716E490008E
:1005EF005BF0E075F006A42414F582E43400F58383
:1005FF00A3E0FE900059F0E4900030F0A3F09000DB
:10060F0038F0A3CEF00206CA90005BE0FF75F0064B
:10061F00A42414F582E43400F583E0FCA3E04C60DD
:10062F0018EF75F006A42410F582E43400F583E08A
:10063F00FEA3E04E60030206CA90005A7404F02233
:10064F0090005BE0FB75F006A42412F582E4340001
:10065F00F583E0FCA3E0FD900030E0FEA3E0FF1285
:10066F00005FEB75F006A42410F582E43400F583E7
:10067F00E0FCA3E0C39FFFEC9E900032F0A3EFF0ED
:10068F00E490005CF0900000120216000000008061
:10069F002A90005CE06414706F900059E014F090A1
:1006AF000031E004F07006900030E004F090005943
:1006BF00E0D394004005A37402F02290005AE004A6
:1006CF00F02290005BE004F0E0FFC39404502AEFA7
:1006DF0075F006A42414F582E43400F583A3E0FE3C
:1006EF00900059F0E4900030F0A3F0900038F0A3A0
:1006FF00CEF090005A7401F02290005A7414F0E476
:09070F0090002AF0A3F022002260
:1007180090005CE024EA700302084F2416B4060037
:100728004003020851900734F8282873020746024C
:1007380007550207A00207F0020835020843D295C0
:10074800D296C290D291D294D2A502083C900006CB
:10075800E0FEA3E0FFC3900033E09FFF900032E08B
:100768009E900055F0A3EFF0900055E0FEA3E078CE
:1007780003CEC313CE13D8F9FF900057EEF0A3EFC2
:10078800F0D390002DE09F90002CE09E50030208CB
:1007980052D290C29502083C900006E0FEA3E0FF0A
:1007A800C3900033E09FFF900032E09E900055F028
:1007B800A3EFF0900055E0FCA3E0FDAE047803CE73
:1007C800C313CE13D8F9FFC3ED9FFFEC9EFE900034
:1007D80057F0A3EFF0D390002DE09F90002CE09EFF
:1007E8004068C290D295804C900006E0FEA3E0FFDE
:1007F800C3900033E09FFF900032E09EFE900055CA
:10080800F0A3EFF0D390002DE09F90002CE09E40E5
:1008180039D29020803490000EE07004A3E0640187
:100828007004C294800E90005C7416F02220811A25
:10083800D294C2A590005CE004F02220800CD2A5DE
:0A08480090005C7414F022002200FE
:010852002283
:100A5500020907E493A3F8E493A34003F68001F2A7
:100A650008DFF48029E493A3F85407240CC8C333A2
:100A7500C4540F4420C8834004F456800146F6DF71
:100A8500E4800B0102040810204080900D0CE47EE8
:100A9500019360BCA3FF543F30E509541FFEE49366
:100AA500A360010ECF54C025E060A840B8E493A32D
:100AB500FAE493A3F8E493A3C8C582C8CAC583CA58
:100AC500F0A3C8C582C8CAC583CADFE9DEE780BE10
:010D420000B0
:10004600BB010689828A83E0225002E722BBFE02B8
:09005600E32289828A83E49322EB
:10005F00EF8DF0A4A8F0CF8CF0A428CE8DF0A42EB5
:02006F00FE226F
:10007100BC000BBE0029EF8DF084FFADF022E4CC73
:10008100F875F008EF2FFFEE33FEEC33FCEE9DEC3C
:10009100984005FCEE9DFE0FD5F0E9E4CEFD22ED82
:1000A100F8F5F0EE8420D21CFEADF075F008EF2FCC
:1000B100FFED33FD4007985006D5F0F222C398FDBD
:0500C1000FD5F0EA225A
:1000C600A3F8E0C5F025F0F0E582158270021583ED
:0600D600E0C838F0E8224A
:1000DC00E88FF0A4CC8BF0A42CFCE98EF0A42CFCC3
:1000EC008AF0EDA42CFCEA8EF0A4CDA8F08BF0A441
:1000FC002DCC3825F0FDE98FF0A42CCD35F0FCEBA0
:10010C008EF0A4FEA9F0EB8FF0A4CFC5F02ECD3964
:0F011C00FEE43CFCEAA42DCE35F0FDE43CFC22D1
:10012B0075F008758200EF2FFFEE33FECD33CDCC8B
:10013B0033CCC58233C5829BED9AEC99E58298400E
:10014B000CF582EE9BFEED9AFDEC99FC0FD5F0D6EB
:10015B00E4CEFBE4CDFAE4CCF9A88222B800C1B915
:10016B000059BA002DEC8BF084CFCECDFCE5F0CB53
:10017B00F97818EF2FFFEE33FEED33FDEC33FCEB8C
:10018B0033FB10D703994004EB99FB0FD8E5E4F947
:10019B00FA227818EF2FFFEE33FEED33FDEC33FC34
:1001AB00C933C910D7059BE99A4007EC9BFCE99A28
:1001BB00F90FD8E0E4C9FAE4CCFB2275F010EF2F6D
:1001CB00FFEE33FEED33FDCC33CCC833C810D7076D
:1001DB009BEC9AE899400AED9BFDEC9AFCE899F8A8
:0E01EB000FD5F0DAE4CDFBE4CCFAE4C8F9223B
:100CC800C2D5E830E70FB2D5E4C39BFBE49AFAE457
:100CD80099F9E498F8EC30E717B2D5120CFE120136
:100CE80067E4C39BFBE49AFAE499F9E498F8800373
:100CF80012016730D50DE4C39FFFE49EFEE49DFD1D
:040D0800E49CFC2249
:1001F900EB9FF5F0EA9E42F0E99D42F0E89C45F05C
:0102090022D2
:0C020A00ECF0A3EDF0A3EEF0A3EFF02267
:10021600A8828583F0D083D08212022D12022D127D
:10022600022D12022DE473E493A3C583C5F0C583A2
:10023600C8C582C8F0A3C583C5F0C583C8C582C832
:010246002295
:00000001FF
