:03000000020CBF30
:0C0CBF00787FE4F6D8FD758120020D0658
:03000300020B7B72
:100B7B00C0E0C0F0C083C082C0D075D000C000C040
:100B8B0001C002C003C004C005C006C00720A036C8
:100B9B00E4FFFEFDFC900000E0F8A3E0F9A3E0FA0F
:100BAB00A3E0FBD3120498405E900000E0FCA3E0AE
:100BBB00FDA3E0FEA3E024FFFFEE34FFFEED34FFC8
:100BCB00FDEC34FF803A900034E0FCA3E0FDA3E0A1
:100BDB00FEA3E0FF900000E0F8A3E0F9A3E0FAA386
:100BEB00E0FBD3120498501F900000E0FCA3E0FD43
:100BFB00A3E0FEA3E02401FFE43EFEE43DFDE43C64
:100C0B00FC9000001204A9D202D007D006D005D068
:100C1B0004D003D002D001D000D0D0D082D083D06A
:040C2B00F0D0E032F3
:07106900D288D2A8D2AF2209
:1008300090002EE0FCA3E0FD7F017E00120F63908C
:100840000028E0FCA3E0FD7F037E00120F63900010
:1008500008E0FCA3E0FD7F057E00120F6390000A14
:10086000E0FCA3E0FD7F077E00120F6390000CE028
:10087000FCA3E0FD7F097E00120F63900010E0FCF6
:10088000A3E0FD7F0B7E00120F63900012E0FCA33B
:10089000E0FD7F307E00120F63900014E0FCA3E0C7
:1008A000FD7F0D7E00120F63900016E0FCA3E0FDBB
:1008B0007F0F7E00120F63900018E0FCA3E0FD7F25
:1008C000327E00120F6390001AE0FCA3E0FD7F115E
:1008D0007E00120F6390001CE0FCA3E0FD7F137EFE
:1008E00000120F6390001EE0FCA3E0FD7F347E0049
:1008F000120F63900020E0FCA3E0FD7F157E001244
:100900000F63900022E0FCA3E0FD7F177E00120F32
:1009100063900024E0FCA3E0FD7F367E00120F63AD
:10092000900026E0FCA3E0FD7F197E00120F63908B
:10093000002AE0FCA3E0FDE4FFFE120F6390000E2E
:10094000E0FCA3E0FD7F387E00120F63900004E01E
:10095000FCA3E0FD7F3A7E00120F63900032E0FCC2
:10096000A3E0FD7F1B7E00120F63900038E0FCA324
:10097000E0FD7F1D7E00120F6390002CE0FCA3E0E1
:10098000FD7F1F7E00120F63900030E0FCA3E0FDAE
:070990007F217E00020F63CE
:10099700121069121044120FEA120C2F90002EE069
:1009A700FEA3E0FFE4FCFD7BFF7AFFF9F812037B6F
:1009B700E47BE87A03F9F8120EF0EF2430FFEE3407
:1009C700F8FEED34FFFDEC34FFFC9000341204A96F
:1009D700900028E0FEA3E0FF7C037DE81202FE9072
:1009E700002EE0FCA3E0FD120310900006EEF0A33A
:1009F700EFF0D202E47FE87E03FDFC900000E0F810
:100A0700A3E0F9A3E0FAA3E0FB12037BC006C0074B
:100A170090002EE0FEA3E0FBAA06E4F9F8D007D089
:100A27000612040690002CEEF0A3EFF0300205C288
:100A370002120830300005120E0EC20090004BE083
:100A4700B40102801B90004BE0B4020DC2917F58A5
:100A57007E1B120F8FD291801290004BE0B40312CD
:100A6700C2907F587E1B120F8FD290E490004BF0FC
:100A7700808290004BE0FF640470030209FBEF647F
:040A8700050209FB60
:100FB600EF1FAC0670011E4C6010900051E004F06B
:0A0FC60070EE900050E004F080E6A9
:010FD00022FE
:080F8F0090004EEEF0A3EFF01C
:100F9700E4FBFAD390004FE09B90004EE09A400E9E
:0E0FA7007FDE7E01120FB60BBB00010A80E553
:010FB5002219
:100D4B0090004D7401F07FC87E00121003EF64EE2B
:100D5B00704BFFFE121003EF7F00FEC007C0060FA3
:100D6B007E00121003EFFDD0E0FFD0E04D90002E7F
:100D7B00CFF0A3EFF07F027E00121003EF7F00FE97
:100D8B00C007C0067F037E00121003EFFDD0E0FF0B
:100D9B00D0E04D900028CFF0A3EFF08005E4900059
:070DAB004DF090004DE0FF48
:010DB200221E
:100C2F00E490002AF0A3F090000EF0A3F0900004DF
:100C3F00F0A3F0120D4BEF701390002E7403F0A37E
:100C4F0074E8F0900028E4F0A37464F0E4900008D6
:100C5F00F0A3F0A3F0A3F0A3F0A3F0900010F0A383
:100C6F00F0A3F0A3F0A3F0A3F0A3F0A3F0A3F0A3DD
:100C7F00F0A3F0A3F0A3F0A3F0A3F0A3F0A3F0A3CD
:100C8F00F0A3F0A3F0A3F0A3F0A3F0A3F090003231
:100C9F00F0A3F0900038F0A3F090002CF0A3F090A8
:100CAF000030F0A3F09000001204B5000000002205
:100E0E0090004D7401F07F0A7E00120F8FE4FFFEFA
:100E1E0012101B90002EE0FDE4FFFE120FD1900089
:100E2E002EA3E0FD7F017E00120FD1900028E0FD81
:100E3E007F027E00120FD1900028A3E0FD7F037E7B
:100E4E0000120FD17DEE7FC87E00120FD190004DA3
:020E5E00E0FFB3
:010E6000226F
:10103000AE071FEE600DE4FCFD0DED70010C4C6081
:03104000EF80F648
:01104300228A
:0D105300E4F5C7F5C5F5C675C380F5C422E8
:1010030075C78375C5018FC4EEF5C375C65A75C61A
:07101300A500AFC21210534B
:01101A0022B3
:100FD10075C78375C5028FC4EEF5C3AF058FC275A2
:090FE100C65A75C6A500021053A2
:10101B0075C78375C5038FC4EEF5C375C65A75C600
:05102B00A500021053B6
:100E6100C102C10041004B004F003CFFFFFFFFFFEB
:100E7100FFFFFFFFFFFFFFFFFFFF41004C004100AD
:060E81003B0041003A00B5
:0F104400759A50759CFD438E1475AF01D2AF2283
:03004300020F3475
:100F3400C0E0C0F0C083C082C0D075D008E59A304C
:100F4400E008539AFEAF9B120DB3E59A30E10553C6
:0F0F54009AFDC201D0D0D082D083D0F0D0E0324D
:091060002001FDEFD201F59B22F5
:10000E00900060EBF0A3EAF0A3E9F0900060E0FB53
:10001E00A3E0FAA3E0F91202E56017900060A3E4F2
:10002E0075F001120365A9F0FA1202E5FF121060D5
:03003E0080D92244
:100F6300AB07AA067F5A1210607FA51210607F0597
:100F73001210607F82121060EAFF121060AF03123A
:0C0F83001060ECFF121060AF050210605F
:100DB30090004CE014601114601614602224037038
:100DC30043EF645A70448010EFB4A502800A803563
:100DD30090003AEFF0E4A3F090004CE004F022908E
:100DE300003BE0243CF582E43400F583EFF090000F
:100DF3003BE004F090003AE0FFA3E0C39F400B12F6
:0B0E03000046800100E490004CF0224B
:10004600900040E0FEA3E0FDEDFF900052EEF0A32D
:10005600EFF090003EE0B40141900052E0FEA3E0D4
:10006600FF90002EEEF0A3EFF0E4FCFD7BFF7AFF9D
:10007600F9F812037BE47BE87A03F9F8120EF0EF45
:100086002430FFEE34F8FEED34FFFDEC34FFFC9037
:1000960000341204A9D2000202E290003EE0FFB44E
:1000A6000314900052E0FDA3E0900028CDF0A3EDEC
:1000B600F0D2000202E2EFB4050D900052E0FFA379
:1000C600E09000080201D390003EE0FFB4070D90D7
:1000D6000052E0FDA3E090000A0201BDEFB4090D55
:1000E600900052E0FFA3E090000C0201D390003E86
:1000F600E0FFB40B0D900052E0FDA3E0900010026B
:1001060001BDEFB40D0D900052E0FFA3E090001486
:100116000201D390003EE0FFB40F0D900052E0FDC7
:10012600A3E09000160201BDEFB4110D900052E05D
:10013600FFA3E090001A0201D390003EE0FFB41343
:100146000C900052E0FDA3E090001C806AEFB4150D
:100156000C900052E0FFA3E0900020807090003EDB
:10016600E0FFB4170C900052E0FDA3E0900022805F
:1001760046EFB4190C900052E0FFA3E090002680F1
:100186004C90003EE0FFB4300C900052E0FDA3E03E
:100196009000128022EFB4320C900052E0FFA3E0F0
:1001A600900018802890003EE0FFB4341290005270
:1001B600E0FDA3E090001ECDF0A3EDF00202E2EF19
:1001C600B43612900052E0FFA3E0900024CFF0A3D3
:1001D600EFF00202E290003EE0FFB4381D90000E00
:1001E600E07004A3E0640190000E7006F0A3F00234
:1001F60002E2E4F0A304F00202E2EFB43A21900036
:1002060004E07004A3E064019000047008F0A3F019
:10021600D2970202E2E4F0A304F0C2970202E2904F
:10022600003EE0FFB4231590002AE07002A3E060D0
:10023600030202E290004B04F00202E2EFB424163D
:1002460090002AE07002A3E060030202E290004BF5
:100256007402F00202E290003EE0FFB42512900024
:100266002AE07002A3E0707490004B7403F0806C77
:10027600EFB4261290002AE07002A3E0705E9000B0
:100286004B7404F0805690003EE0FFB427129000B5
:100296002AE07002A3E0704490004B7405F0803CA5
:1002A600EFB4283890005A7414F090005FF0E49090
:1002B600002AF0A3F0900032F0A3F0900038F0A3EB
:1002C600F09000001204B500000000E4900030F049
:0E02D600A3F090005BF09000587414F0D20278
:0102E40022F7
:03000B00020EA939
:100EA900C0E0C0F0C083C082C0D075D008758ACDBB
:100EB900758CD4900063E0FF14F0EF701F90005E12
:100EC900E004F0700690005DE004F0B2A7120A8B0E
:100ED9001206BF1204E69000637409F0D0D0D082E4
:070EE900D083D0F0D0E0320D
:100FEA00438E80758901758ACD758CD4D28CD2A92D
:090FFA00D2AF9000637409F022EB
:040E870041006400C2
:100A8B00900064E0146023146033147003020B6A4B
:100A9B0024036003020B793082093084063085030E
:100AAB00020B7A9000647401F022308206308403CA
:100ABB002085079000647402F022020B73208221C0
:100ACB0090002AE4F0A304F090005BE090005AF051
:100ADB00900058E090005FF0E490005DF0A3F0D23E
:100AEB000220845690002AE0FEA3E0FF64014E70C2
:100AFB002090005AE090005BF090005FE09000586F
:100B0B00F090005A7414F090005FF0E490002A808B
:100B1B0024EF64024E702390005BE090005AF0903B
:100B2B000058E090005FF090002AE4F0A304F0D2AC
:100B3B00A4E490005DF0A3F0D20220851B90005F2F
:100B4B00E0B4161220800FC294E490005DF0A3F085
:100B5B0090005F7404F0D2029000647403F02230B2
:100B6B00820D30840A308507E4900064F022002265
:100E8B0041005A1441005B0041005F1441005814AB
:0D0E9B0041005C144100591442005D00004C
:1006BF0090005AE01460411460761470030207969C
:1006CF001470030207CA2404600302082EE490008A
:1006DF005CF0E075F006A42414F582E43400F58391
:1006EF00A3E0FE900059F0E4900030F0A3F09000EA
:1006FF0038F0A3CEF00207C390005CE0FF75F00660
:10070F00A42414F582E43400F583E0FCA3E04C60EC
:10071F0018EF75F006A42410F582E43400F583E099
:10072F00FEA3E04E60030207C390005A7404F02248
:10073F0090005CE0FB75F006A42412F582E434000F
:10074F00F583E0FCA3E0FD900030E0FEA3E0FF1294
:10075F0002FEEB75F006A42410F582E43400F58355
:10076F00E0FCA3E0C39FFFEC9E900032F0A3EFF0FC
:10077F00E490005FF09000001204B50000000090BC
:10078F00005AE00402082A90005FE064146003023C
:10079F00082F900059E014F0900031E004F070063B
:1007AF00900030E004F0900059E0D394004005A38E
:1007BF007402F02290005AE004F02290005CE004F2
:1007CF00F0E0FFC39404502AEF75F006A42414F54B
:1007DF0082E43400F583A3E0FE900059F0E490002A
:1007EF0030F0A3F0900038F0A3CEF090005A7401CF
:1007FF00F02290005A7414F0E490002AF0A3F090C5
:10080F000032F0A3F0900038F0A3F0900000120433
:10081F00B500000000E4900030F0A3F0D2022200F7
:01082F0022A6
:1004E60090005FE0F924EC70030206AE24FE700370
:1004F6000206BB2416B4060040030206BD90050A98
:10050600F828287302051C02052B02057A0205D07D
:10051600020624020665D295D296C290D291D29452
:10052600D2A502065EC290D295900006E0FEA3E038
:10053600FFC3900033E09FFF900032E09E9000548E
:10054600F0A3EFF0900054E0FEA3E07803CEC313CF
:10055600CE13D8F9FF900056EEF0A3EFF0D390003B
:100566002DE09F90002CE09E50030206BEC290C272
:100576009502065EC290C295900006E0FEA3E0FFDB
:10058600C3900033E09FFD900032E09EFC90005443
:10059600F0A3EDF0900054E0FEA3E07803CEC31381
:1005A600CE13D8F9FFC3ED9FFFEC9EFE900056F0E8
:1005B600A3EFF0D390002DE09F90002CE09E500317
:1005C6000206BEC290D29502065EC290900006E078
:1005D600FEA3E0FFC3900033E09FFF900032E09E51
:1005E600FE900054F0A3EFF0D390002DE09F900012
:1005F6002CE09E50030206BED2903080030206BE57
:1006060090000EE07004A3E06401700BC2949000A9
:100616005DF0A3F0A3804490005F7416F022C294AC
:10062600D390005EE094E890005DE0940340229051
:10063600005AE0A3F0900058E9F090005A7414F0C4
:1006460090005FF0C2A490002AE4F0A37402F0D2F6
:1006560002208164D294C2A590005FE004F022C219
:10066600A5D390005EE094E890005DE094034022FC
:1006760090005AE0A3F0900058E9F090005A7414E4
:10068600F090005FF0C2A490002AE4F0A37402F098
:10069600D202208023D2A590005F7414F09000004F
:1006A6001204B50000000022D295D296D290D291C3
:0806B600D294D2A5220022001B
:0106BE002219
:100CCB00020997E493A3F8E493A34003F68001F29F
:100CDB0008DFF48029E493A3F85407240CC8C3332A
:100CEB00C4540F4420C8834004F456800146F6DFF9
:100CFB00E4800B0102040810204080900E61E47E1A
:100D0B00019360BCA3FF543F30E509541FFEE493ED
:100D1B00A360010ECF54C025E060A840B8E493A3B4
:100D2B00FAE493A3F8E493A3C8C582C8CAC583CADF
:100D3B00F0A3C8C582C8CAC583CADFE9DEE780BE97
:010EA8000049
:1002E500BB010689828A83E0225002E722BBFE0217
:0902F500E32289828A83E493224A
:1002FE00EF8DF0A4A8F0CF8CF0A428CE8DF0A42E14
:02030E00FE22CD
:10031000BC000BBE0029EF8DF084FFADF022E4CCD1
:10032000F875F008EF2FFFEE33FEEC33FCEE9DEC9A
:10033000984005FCEE9DFE0FD5F0E9E4CEFD22EDE0
:10034000F8F5F0EE8420D21CFEADF075F008EF2F2A
:10035000FFED33FD4007985006D5F0F222C398FD1B
:050360000FD5F0EA22B8
:10036500A3F8E0C5F025F0F0E5821582700215834B
:06037500E0C838F0E822A8
:10037B00E88FF0A4CC8BF0A42CFCE98EF0A42CFC21
:10038B008AF0EDA42CFCEA8EF0A4CDA8F08BF0A49F
:10039B002DCC3825F0FDE98FF0A42CCD35F0FCEBFE
:1003AB008EF0A4FEA9F0EB8FF0A4CFC5F02ECD39C3
:0F03BB00FEE43CFCEAA42DCE35F0FDE43CFC2230
:1003CA0075F008758200EF2FFFEE33FECD33CDCCEA
:1003DA0033CCC58233C5829BED9AEC99E58298406D
:1003EA000CF582EE9BFEED9AFDEC99FC0FD5F0D64A
:1003FA00E4CEFBE4CDFAE4CCF9A88222B800C1B974
:10040A000059BA002DEC8BF084CFCECDFCE5F0CBB1
:10041A00F97818EF2FFFEE33FEED33FDEC33FCEBEA
:10042A0033FB10D703994004EB99FB0FD8E5E4F9A5
:10043A00FA227818EF2FFFEE33FEED33FDEC33FC92
:10044A00C933C910D7059BE99A4007EC9BFCE99A86
:10045A00F90FD8E0E4C9FAE4CCFB2275F010EF2FCB
:10046A00FFEE33FEED33FDCC33CCC833C810D707CB
:10047A009BEC9AE899400AED9BFDEC9AFCE899F806
:0E048A000FD5F0DAE4CDFBE4CCFAE4C8F92299
:100EF000C2D5E830E70FB2D5E4C39BFBE49AFAE42D
:100F000099F9E498F8EC30E717B2D5120F261204DD
:100F100006E4C39BFBE49AFAE499F9E498F88003A9
:100F200012040630D50DE4C39FFFE49EFEE49DFD50
:040F3000E49CFC221F
:10049800EB9FF5F0EA9E42F0E99D42F0E89C45F0BA
:0104A8002231
:0C04A900ECF0A3EDF0A3EEF0A3EFF022C6
:1004B500A8828583F0D083D0821204CC1204CC129A
:1004C50004CC1204CCE473E493A3C583C5F0C583BF
:1004D500C8C582C8F0A3C583C5F0C583C8C582C891
:0104E50022F4
:00000001FF
