:030000000208CF24
:0C08CF00787FE4F6D8FD75812002091640
:030003000206F4FE
:1006F400C0E0C0F0C083C082C0D075D000C000C0CC
:1007040001C002C003C004C005C006C00720A03653
:10071400E4FFFEFDFC900000E0F8A3E0F9A3E0FA9A
:10072400A3E0FBD31204E7405E900000E0FCA3E0EA
:10073400FDA3E0FEA3E024FFFFEE34FFFEED34FF53
:10074400FDEC34FF803A900030E0FCA3E0FDA3E030
:10075400FEA3E0FF900000E0F8A3E0F9A3E0FAA311
:10076400E0FBD31204E7501F900000E0FCA3E0FD7F
:10077400A3E0FEA3E02401FFE43EFEE43DFDE43CEF
:10078400FC9000001204F8D202D007D006D005D0A5
:1007940004D003D002D001D000D0D0D082D083D0F6
:0407A400F0D0E0327F
:070CDC00D288D2A8D2AF229A
:1001FF0090002AE0FCA3E0FD7F017E00120BD5905A
:10020F000024E0FCA3E0FD7F037E00120BD59000DD
:10021F0004E0FCA3E0FD7F057E00120BD5900006E5
:10022F00E0FCA3E0FD7F077E00120BD5900008E0F5
:10023F00FCA3E0FD7F097E00120BD590000CE0FCC3
:10024F00A3E0FD7F0B7E00120BD590000EE0FCA308
:10025F00E0FD7F307E00120BD5900010E0FCA3E094
:10026F00FD7F0D7E00120BD5900012E0FCA3E0FD88
:10027F007F0F7E00120BD5900014E0FCA3E0FD7FF2
:10028F00327E00120BD5900016E0FCA3E0FD7F112B
:10029F007E00120BD5900018E0FCA3E0FD7F137ECB
:1002AF0000120BD590001AE0FCA3E0FD7F347E0016
:1002BF00120BD590001CE0FCA3E0FD7F157E001211
:1002CF000BD590001EE0FCA3E0FD7F177E00120B04
:1002DF00D5900020E0FCA3E0FD7F367E00120BD509
:1002EF00900022E0FCA3E0FD7F197E00120BD59059
:1002FF000026E07002A3E0700D900036E07002A3BC
:10030F00E07003FD802E900026E07002A3E0700ED7
:10031F00900036E07002A3E060047D01801B900026
:10032F0026E07002A3E0600F900036E07002A3E0B9
:10033F0070057D02FC80057D037C00E4FFFE120B3F
:10034F00D590000AE0FCA3E0FD7F387E00120BD5AC
:10035F0090002EE0FCA3E0FD7F1B7E00120BD590DA
:10036F000034E0FCA3E0FD7F1D7E00120BD5900052
:10037F0028E0FCA3E0FD7F1F7E00120BD590002C20
:0C038F00E0FCA3E0FD7F217E00020BD506
:1007A800120CDC120CB7120C4312083F90002AE01E
:1007B800FEA3E0FFE4FCFD7BFF7AFFF9F81203CA11
:1007C800E47BE87A03F9F8120B2BEF2430FFEE34C0
:1007D800F8FEED34FFFDEC34FFFC9000301204F815
:1007E800E47FE87E03FDFC900000E0F8A3E0F9A3B5
:1007F800E0FAA3E0FB1203CAC006C007900024E099
:10080800FEA3E0FFC390002BE09FFF90002AE09E2C
:10081800AB07FAE4F9F8D007D0061204559000287F
:10082800EEF0A3EFF0300205C2021201FF3000B073
:07083800120A8BC20080A927
:100C2800EF1FAC0670011E4C601090004EE004F0FF
:0A0C380070EE90004DE004F080E63D
:010C4200228F
:080C010090004BEEF0A3EFF0B0
:100C0900E4FBFAD390004CE09B90004BE09A400E35
:0E0C19007FDE7E01120C280BBB00010A80E575
:010C270022AA
:1009C80090004A7401F07FC87E00120C76EF64EE46
:1009D800704BFFFE120C76EF7F00FEC007C0060FBB
:1009E8007E00120C76EFFDD0E0FFD0E04D90002A9B
:1009F800CFF0A3EFF07F027E00120C76EF7F00FEAF
:100A0800C007C0067F037E00120C76EFFDD0E0FF22
:100A1800D0E04D900024CFF0A3EFF08005E49000E3
:070A28004AF090004AE0FFD4
:010A2F0022A4
:10083F00E4900026F0A3F0900036F0A3F090000AA9
:10084F00F0A3F01209C8EF701390002A7403F0A3FD
:10085F0074E8F0900024E4F0A37464F0E4900004D2
:10086F00F0A3F0A3F0A3F0A3F0A3F090000CF0A37B
:10087F00F0A3F0A3F0A3F0A3F0A3F0A3F0A3F0A3D1
:10088F00F0A3F0A3F0A3F0A3F0A3F0A3F0A3F0A3C1
:10089F00F0A3F0A3F0A3F0A3F0A3F0A3F090002E29
:1008AF00F0A3F0900034F0A3F0900028F0A3F090A4
:1008BF00002CF0A3F09000001205040000000022AD
:100A8B0090004A7401F07F0A7E00120C01E4FFFE15
:100A9B00120C8E90002AE0FDE4FFFE120C5D90001C
:100AAB002AA3E0FD7F017E00120C5D900024E0FD87
:100ABB007F027E00120C5D900024A3E0FD7F037E7D
:100ACB0000120C5D7DEE7FC87E00120C5D90004A1B
:020ADB00E0FF3A
:010ADD0022F6
:100CA300AE071FEE600DE4FCFD0DED70010C4C6012
:030CB300EF80F6D9
:010CB600221B
:0D0CC600E4F5C7F5C5F5C675C380F5C42279
:100C760075C78375C5018FC4EEF5C375C65A75C6AB
:070C8600A500AFC2120CC66D
:010C8D002244
:100C5D0075C78375C5028FC4EEF5C3AF058FC27519
:090C6D00C65A75C6A500020CC6AA
:100C8E0075C78375C5038FC4EEF5C375C65A75C691
:050C9E00A500020CC6D8
:100B6F00C102C1004F003AFFFFFFFFFFFFFFFFFF72
:100B7F00FFFFFFFFFFFF4100490041003900410027
:020B8F0038002C
:0F0CB700759A50759CFD438E1475AF01D2AF2214
:03004300020BA607
:100BA600C0E0C0F0C083C082C0D075D008E59A30DE
:100BB600E008539AFEAF9B120A30E59A30E10553DE
:0F0BC6009AFDC201D0D0D082D083D0F0D0E032DF
:090CD3002001FDEFD201F59B2286
:10000E00900055EBF0A3EAF0A3E9F0900055E0FB69
:10001E00A3E0FAA3E0F912039B6017900055A3E446
:10002E0075F0011203B4A9F0FA12039BFF120CD360
:03003E0080D92244
:100BD500AB07AA067F5A120CD37FA5120CD37F054B
:100BE500120CD37F82120CD3EAFF120CD3AF03127F
:0C0BF5000CD3ECFF120CD3AF05020CD3A4
:100A3000900049E0146011146016146022240370C1
:100A400043EF645A70448010EFB4A502800A8035E9
:100A5000900038EFF0E4A3F0900049E004F0229019
:100A60000039E0243AF582E43400F583EFF0900099
:100A700039E004F0900038E0FFA3E0C39F400B1280
:0B0A80000046800100E4900049F022D5
:1000460090003EE0FEA3E0FDEDFF90004FEEF0A332
:10005600EFF090003CE0B4014190004FE0FEA3E0D9
:10006600FF90002AEEF0A3EFF0E4FCFD7BFF7AFFA1
:10007600F9F81203CAE47BE87A03F9F8120B2BEFBE
:100086002430FFEE34F8FEED34FFFDEC34FFFC9037
:1000960000301204F8D2000201FC90003CE0FFB4EC
:1000A600031490004FE0FDA3E0900024CDF0A3EDF3
:1000B600F0D2000201FCEFB4050D90004FE0FFA363
:1000C600E09000040201D290003CE0FFB4070D90DE
:1000D600004FE0FDA3E09000060201BDEFB4090D5C
:1000E60090004FE0FFA3E09000080201D290003C90
:1000F600E0FFB40B0D90004FE0FDA3E090000C0272
:1001060001BDEFB40D0D90004FE0FFA3E09000108D
:100116000201D290003CE0FFB40F0D90004FE0FDCD
:10012600A3E09000120201BDEFB4110D90004FE064
:10013600FFA3E09000160201D290003CE0FFB4134A
:100146000C90004FE0FDA3E0900018806AEFB41514
:100156000C90004FE0FFA3E090001C806F90003CE5
:10016600E0FFB4170C90004FE0FDA3E090001E8066
:1001760046EFB4190C90004FE0FFA3E090002280F8
:100186004B90003CE0FFB4300C90004FE0FDA3E044
:1001960090000E8022EFB4320C90004FE0FFA3E0F7
:1001A600900014802790003CE0FFB4341190004F7B
:1001B600E0FDA3E090001ACDF0A3EDF08038EFB497
:1001C600361190004FE0FFA3E0900020CFF0A3EFA0
:1001D600F0802390003CE0B4381C90000AE07004E4
:1001E600A3E06401700890000AF0A3F08008900074
:0801F6000AE4F0A304F0D202B8
:0101FE0022DE
:03000B00020ADE08
:100ADE00C0E0C0F0C083C082C0D075D008758ACD8A
:100AEE00758CD490005874FFF5F01203B445F07075
:100AFE0021900058F0A37409F0900036E43083067C
:100B0E00F0A304F08003F0A3F012095B12061A1290
:0D0B1E000535D0D0D082D083D0F0D0E032A9
:100C4300438E80758901758ACD758CD4D28CD2A9D7
:0A0C5300D2AFE4900058F0A3F022A5
:040B910041005A00C5
:10095B0090005AE014601A14602714604F2403703F
:10096B005A30820630840320855290005A7401F06D
:10097B002230820630840320853B90005A7402F0AB
:10098B0022208217900036E07002A3E0600D9000E9
:10099B0026E4F0A304F0E4900052F0208407E490E6
:1009AB000026F0A3F090005A7403F02230820D3031
:0D09BB00840A308507E490005AF0220022E3
:100B950041005214410054144100531441005114B2
:10061A00900052E014602F1460661460771470031F
:10062A000206BE240460030206F2E4900053F0E0DE
:10063A0075F006A42410F582E43400F583A3E09053
:10064A000051F0A3806A900053E0FF75F006A424DD
:10065A0010F582E43400F583E0FCA3E04C601AEF65
:10066A0075F006A4240CF582E43400F583E0FEA3B9
:10067A00E04E600590005280379000527404F022D8
:10068A00E4900054F090000012050400000000906D
:10069A000052801C900054E06414704D900051E0A8
:1006AA0014F0E0D394004005A37402F022900052A3
:1006BA00E004F022900053E004F0E0FF75F006A495
:1006CA002410F582E43400F583A3E0900051F0EFA2
:1006DA00C394045005A37401F0229000527414F0DC
:0A06EA00E4900026F0A3F0220022A5
:10053500900054E014602714605B1470030205D624
:1005450014700302060214700302060E24056003EC
:10055500020618D295D296C290D291020605900055
:1005650053E075F006A4240CF582E43400F583E02D
:10057500FEA3E07803CEC313CE13D8F9FDAC06D3A2
:10058500900029E09D900028E09C5003020619D2B6
:1005950090C295806D900053E075F006A4240CF58B
:1005A50082E43400F583E0FCA3E0FDAE047803CEDD
:1005B500C313CE13D8F9FFC3ED9FFDEC9EFCD3907A
:1005C5000029E09D900028E09C4049C290D295808A
:1005D50031900053E075F006A4240CF582E4340054
:1005E500F583E0FEA3E0FFD3900029E09F9000286B
:1005F500E09E4020D29020801BC29480052081146B
:10060500D294900054E004F02220800890005474A5
:0406150014F02200BB
:0106190022BE
:1008DB000207A8E493A3F8E493A34003F68001F284
:1008EB0008DFF48029E493A3F85407240CC8C3331E
:1008FB00C4540F4420C8834004F456800146F6DFED
:10090B00E4800B0102040810204080900B6FE47E02
:10091B00019360BCA3FF543F30E509541FFEE493E1
:10092B00A360010ECF54C025E060A840B8E493A3A8
:10093B00FAE493A3F8E493A3C8C582C8CAC583CAD3
:10094B00F0A3C8C582C8CAC583CADFE9DEE780BE8B
:010BA500004F
:10039B00BB010689828A83E0225002E722BBFE0260
:0903AB00E32289828A83E4932293
:1003B400A3F8E0C5F025F0F0E582158270021583FC
:0603C400E0C838F0E82259
:1003CA00E88FF0A4CC8BF0A42CFCE98EF0A42CFCD2
:1003DA008AF0EDA42CFCEA8EF0A4CDA8F08BF0A450
:1003EA002DCC3825F0FDE98FF0A42CCD35F0FCEBAF
:1003FA008EF0A4FEA9F0EB8FF0A4CFC5F02ECD3974
:0F040A00FEE43CFCEAA42DCE35F0FDE43CFC22E0
:1004190075F008758200EF2FFFEE33FECD33CDCC9A
:1004290033CCC58233C5829BED9AEC99E58298401D
:100439000CF582EE9BFEED9AFDEC99FC0FD5F0D6FA
:10044900E4CEFBE4CDFAE4CCF9A88222B800C1B924
:100459000059BA002DEC8BF084CFCECDFCE5F0CB62
:10046900F97818EF2FFFEE33FEED33FDEC33FCEB9B
:1004790033FB10D703994004EB99FB0FD8E5E4F956
:10048900FA227818EF2FFFEE33FEED33FDEC33FC43
:10049900C933C910D7059BE99A4007EC9BFCE99A37
:1004A900F90FD8E0E4C9FAE4CCFB2275F010EF2F7C
:1004B900FFEE33FEED33FDCC33CCC833C810D7077C
:1004C9009BEC9AE899400AED9BFDEC9AFCE899F8B7
:0E04D9000FD5F0DAE4CDFBE4CCFAE4C8F9224A
:100B2B00C2D5E830E70FB2D5E4C39BFBE49AFAE4F5
:100B3B0099F9E498F8EC30E717B2D5120B6112046F
:100B4B0055E4C39BFBE49AFAE499F9E498F8800323
:100B5B0012045530D50DE4C39FFFE49EFEE49DFDCA
:040B6B00E49CFC22E8
:1004E700EB9FF5F0EA9E42F0E99D42F0E89C45F06B
:0104F70022E2
:0C04F800ECF0A3EDF0A3EEF0A3EFF02277
:10050400A8828583F0D083D08212051B12051B12AA
:10051400051B12051BE473E493A3C583C5F0C583CF
:10052400C8C582C8F0A3C583C5F0C583C8C582C841
:0105340022A4
:00000001FF
