:0300000002057383
:0C057300787FE4F6D8FD7581200205BAFF
:03000300020746AB
:10074600C0E0C0F0C083C082C0D075D000C000C079
:1007560004C005C006C007900000E0FCA3E0FDA3AE
:10076600E0FEA3E020A41024FFFFEE34FFFEED34EC
:10077600FFFDEC34FF800B2401FFE43EFEE43DFD6B
:10078600E43CFC900000120192D007D006D005D0C0
:0E07960004D000D0D0D082D083D0F0D0E0329A
:0709B100D288D2A8D2AF22C8
:1001CF00900020E0FCA3E0FD7F017E001208AA90C2
:1001DF00001AE0FCA3E0FD7F037E001208AA900046
:1001EF0004E0FCA3E0FD7F057E001208AA90000644
:1001FF00E0FCA3E0FD7F077E001208AA900008E054
:10020F00FCA3E0FD7F097E001208AA90000AE0FC23
:10021F00A3E0FD7F0B7E001208AA90000CE0FCA368
:10022F00E0FD7F0D7E001208AA90000EE0FCA3E017
:10023F00FD7F0F7E001208AA900010E0FCA3E0FDE6
:10024F007F117E001208AA900012E0FCA3E0FD7F50
:10025F00137E001208AA900014E0FCA3E0FD7F15A6
:10026F007E001208AA900016E0FCA3E0FD7F177E27
:10027F00001208AA900018E0FCA3E0FD7F197E0091
:10028F001208AA90001CE07002A3E0700D900028E5
:10029F00E07002A3E07003FD802E90001CE070025E
:1002AF00A3E0700E900028E07002A3E060047D01CF
:1002BF00801B90001CE07002A3E0600F900028E00C
:1002CF007002A3E070057D02FC80057D037C00E4D5
:1002DF00FFFE1208AA900024E0FCA3E0FD7F1B7E26
:1002EF00001208AA900026E0FCA3E0FD7F1D7E000F
:1002FF001208AA90001EE0FCA3E0FD7F1F7E0012F3
:10030F0008AA900022E0FCA3E0FD7F217E000208F6
:01031F00AA33
:1006DC001209B112098C1205FFE47FE87E03FDFCC0
:1006EC00900000E0F8A3E0F9A3E0FAA3E0FB12000D
:1006FC0075C006C007900020E0FEA3E0FBAA06E44C
:10070C00F9F8D007D00612010090001EEEF0A3EF0E
:10071C00F01201CF300002C200B2A730830A900061
:10072C0028E4F0A304F08007E4900028F0A3F01272
:0A073C00066F120405120320809FCF
:1008FD00EF1FAC0670011E4C6010900044E004F038
:0A090D0070EE900043E004F080E675
:0109170022BD
:0808D600900045EEF0A3EFF0E5
:1008DE00E4FBFAD3900046E09B900045E09A400E70
:0E08EE007FDE7E011208FD0BBB00010A80E5D3
:0108FC0022D9
:020006007F0178
:0100080022D5
:1005FF00E490001CF0A3F0900028F0A3F0900020EE
:10060F007403F0A374E8F090001AE4F0A37464F09C
:10061F00E4900004F0A3F0A3F0A3F0A3F0A3F0A3E1
:10062F00F0A3F0A3F0A3F0A3F0A3F0A3F0A3F0A323
:10063F00F0A3F0A3F0A3F0A3F0A3F0A3F0A3F09026
:10064F000024F0A3F0A3F0A3F090001EF0A3F0900D
:10065F000022F0A3F090000012019E000000002283
:0209B8007F01BD
:0109BA00221A
:10097800AE071FEE600DE4FCFD0DED70010C4C6040
:03098800EF80F607
:01098B002249
:0D099B00E4F5C7F5C5F5C675C380F5C422A7
:10094B0075C78375C5018FC4EEF5C375C65A75C6D9
:07095B00A500AFC212099BC9
:010962002272
:1009320075C78375C5028FC4EEF5C3AF058FC27547
:09094200C65A75C6A50002099B06
:1009630075C78375C5038FC4EEF5C375C65A75C6BF
:05097300A50002099B34
:10000E00C1004F002CFFFFFFFFFFFFFFFFFFFFFFB1
:10001E00FFFFFFFF41003B0041002B0041002A0083
:0F098C00759A50759CFD758E1475AF01D2AF2210
:0300430002087B35
:10087B00C0E0C0F0C083C082C0D075D008E59A300C
:10088B00E008539AFEAF9B1207A4E59A30E105539B
:0F089B009AFDC201D0D0D082D083D0F0D0E0320D
:0909A8002001FDEFD201F59B22B4
:10084800900040EBF0A3EAF0A3E9F0900040E0FB51
:10085800A3E0FAA3E0F91200466017900040A3E471
:1008680075F00112005FA9F0FA120046FF1209A8FC
:0308780080D92202
:1008AA00AB07AA067F5A1209A87FA51209A87F05D5
:1008BA001209A87F821209A8EAFF1209A8AF031237
:0C08CA0009A8ECFF1209A8AF050209A85C
:1007A40090003BE01460111460161460222403705E
:1007B40043EF645A70448010EFB4A502800A803578
:1007C40090002AEFF0E4A3F090003BE004F02290C4
:1007D400002BE0242CF582E43400F583EFF0900044
:1007E4002BE004F090002AE0FFA3E0C39F400B122B
:0B07F40004CE800100E490003BF022E6
:1004CE00900030E0FEA3E0FDEDFF90002EE0FDB4C5
:1004DE0001059000208075EDB4030590001A806C24
:1004EE0090002EE0FDB40505900004805FEDB4078A
:1004FE0005900006805690002EE0FDB40905900090
:10050E00088049EDB40B0590000A804090002EE063
:10051E00FDB40D0590000C8033EDB40F0590000E68
:10052E00802A90002EE0FDB41105900010801DED84
:10053E00B41305900012801490002EE0FDB4150542
:10054E009000148007EDB4170A900016EEF0A3EF9A
:10055E00F0800F90002EE0B41908900018EEF0A372
:04056E00EFF0D200D8
:010572002266
:03000B000207FFEA
:1007FF00C0E0C0F0C083C082C0D075D008758ACD6C
:10080F00758CD490004774FFF5F012005F45F070BF
:10081F001D900047F0A37409F0B2A7900028E430B0
:10082F008306F0A304F08003F0A3F012066FD0D07C
:09083F00D082D083D0F0D0E03269
:10091800758E80758901758ACD758CD4D28CD2A9D3
:0A092800D2AFE4900047F0A3F022E4
:04002E004100490044
:10066F00900049E014601A14602714604F2403703F
:10067F005A3082063084032085529000497401F06D
:10068F002230820630840320853B9000497402F0AB
:10069F0022208217900028E07002A3E0600D9000E6
:1006AF001CE4F0A304F0E490003DF0208407E490F4
:1006BF00001CF0A3F09000497403F02230820D303B
:0D06CF00840A308507E4900049F0220022E3
:1000320041003D1441003F1441003E1441003C1474
:1004050090003DE014602F14606614606D14700355
:1004150002049F240460030204CCE490003EF0E053
:1004250025E025E0240CF582E43400F583A3E09073
:10043500003CF0A3806090003EE0FF25E025E0242D
:100445000CF582E43400F583E0FCA3E04C601AEF80
:1004550025E025E0240AF582E43400F583E0FEA3D7
:10046500E04E600590003D802D90003D7404F02223
:10047500E490003FF090003D801C90003FE0641444
:10048500704690003CE014F0E0D394004005A3745E
:1004950002F02290003DE004F02290003EE004F0DE
:1004A500E0FF25E025E0240CF582E43400F583A384
:1004B500E090003CF0EFC394045005A37401F022D2
:0904C50090003D7414F0220022A5
:1003200090003FE014602714605B1470030203C167
:100330001470030203ED1470030203F92405600333
:10034000020403D295D296C290D2910203F090009B
:100350003EE025E025E0240AF582E43400F583E060
:10036000FEA3E07803CEC313CE13D8F9FDAC06D3B9
:1003700090001FE09D90001EE09C5003020404D2F8
:1003800090C295806D90003EE025E025E0240AF5BE
:1003900082E43400F583E0FCA3E0FDAE047803CEF4
:1003A000C313CE13D8F9FFC3ED9FFDEC9EFCD39091
:1003B000001FE09D90001EE09C4049C290D29580B5
:1003C0003190003EE025E025E0240AF582E4340087
:1003D000F583E0FEA3E0FFD390001FE09F90001E96
:1003E000E09E4020D29020801BC294800520811482
:1003F000D29490003FE004F02220800890003F74E7
:0404000014F02200D2
:0104040022D5
:10057F000206DCE493A3F8E493A34003F68001F2B0
:10058F0008DFF48029E493A3F85407240CC8C3337D
:10059F00C4540F4420C8834004F456800146F6DF4C
:1005AF00E4800B010204081020408090000EE47ECE
:1005BF00019360BCA3FF543F30E509541FFEE49341
:1005CF00A360010ECF54C025E060A840B8E493A308
:1005DF00FAE493A3F8E493A3C8C582C8CAC583CA33
:1005EF00F0A3C8C582C8CAC583CADFE9DEE780BEEB
:0100420000BD
:10004600BB010689828A83E0225002E722BBFE02B8
:09005600E32289828A83E49322EB
:10005F00A3F8E0C5F025F0F0E58215827002158354
:06006F00E0C838F0E822B1
:10007500E88FF0A4CC8BF0A42CFCE98EF0A42CFC2A
:100085008AF0EDA42CFCEA8EF0A4CDA8F08BF0A4A8
:100095002DCC3825F0FDE98FF0A42CCD35F0FCEB07
:1000A5008EF0A4FEA9F0EB8FF0A4CFC5F02ECD39CC
:0F00B500FEE43CFCEAA42DCE35F0FDE43CFC2239
:1000C40075F008758200EF2FFFEE33FECD33CDCCF3
:1000D40033CCC58233C5829BED9AEC99E582984076
:1000E4000CF582EE9BFEED9AFDEC99FC0FD5F0D653
:1000F400E4CEFBE4CDFAE4CCF9A88222B800C1B97D
:100104000059BA002DEC8BF084CFCECDFCE5F0CBBA
:10011400F97818EF2FFFEE33FEED33FDEC33FCEBF3
:1001240033FB10D703994004EB99FB0FD8E5E4F9AE
:10013400FA227818EF2FFFEE33FEED33FDEC33FC9B
:10014400C933C910D7059BE99A4007EC9BFCE99A8F
:10015400F90FD8E0E4C9FAE4CCFB2275F010EF2FD4
:10016400FFEE33FEED33FDCC33CCC833C810D707D4
:100174009BEC9AE899400AED9BFDEC9AFCE899F80F
:0E0184000FD5F0DAE4CDFBE4CCFAE4C8F922A2
:0C019200ECF0A3EDF0A3EEF0A3EFF022E0
:10019E00A8828583F0D083D0821201B51201B512E8
:1001AE0001B51201B5E473E493A3C583C5F0C5830D
:1001BE00C8C582C8F0A3C583C5F0C583C8C582C8AB
:0101CE00220E
:00000001FF
