:03000000021D2AB4
:0C1D2A00787FE4F6D8FD75810F021D7172
:08000300D295D296C29680FC52
:10046700B6A8CAB1C9E8D6C33A00BCD320D2BB00EC
:10047700B7D620D6D300BCF520D2BB00CEB400C976
:10048700E800D6C300B7D600D6D300BDF8003100C8
:1004970032003300340035003600B3F600B1A32034
:1004A70020B4E600B7B52020BBD800B1A320B4E63E
:1004B70020B3C920B9A600B1A320B4E620CAA7205B
:1004C700B0DC00B1A320B4E620D6D02E2E2E00C17A
:1004D700AACFB5C8CB3AC2BDD6BEB6AB00C1AACF6C
:1004E700B5B5E7BBB03A2031333536373430323320
:1004F700363700D7B4CCAC00D7D4B6AF00CAD6B61F
:10050700AF00BBFAD0B5B1DBB6AFD7F73A00BFD56E
:10051700CFD0003C2D2D2D002D2D2D3E00CFF2C923
:10052700CF00CFF2CFC200B4EDCEF300BFD500CFDE
:10053700D000BECD00D0F700C3A600C2B500B6A854
:10054700CAB1C9E8D6C300CAD6B6AF2FD7D4B6AF9B
:1005570000C8A1CFFBCFC2B0E000CFC2B0E0B0B4BB
:10056700BCFC00B9D820BBFA20D6D02E2E2E00B95D
:10057700D820BBFA20B3C920B9A600B2E2CAD4B3C7
:10058700CCD0F2B2B7CFFE202020202C20CEBAC18B
:10059700E9BEEA2020CEBAC1E9BEEAB9FEB9FE201B
:1005A700202020B2FAC6B7D0CDBAC53A2043483387
:1005B7003230323430422D322020352E37B4E733F3
:1005C700323078323430B5E3D5F320D6A7B3D652DC
:1005D70041383830332F524138383036BFD8D6C635
:1005E7002CD6A7B3D63556BACD332E3356B5E7D169
:1005F700B92020D6A7B3D6B4A5C3FE2CBCFCC5CC66
:10060700C9A8C3E8B9A6C4DC2020202020202020C8
:100617002020202020202020202020CFD4CABED771
:10062700D6D0CDBFC9B7C5B4F3B5BD3332783332F1
:10063700A1A2343878343820BBF2363478363420E7
:10064700202020C4DABDA8B4D6CCE5D7D6D0CED3E7
:10065700EBD0D0BEE0C9E8B6A8202020202020207B
:100667002020202020202020202020D6A7B3D6C657
:10067700C1C4BBCBAEC6BDBEEDB6AFBCB0B4B9D678
:10068700B1BEEDB6AFB9A6C4DC20202020202020C3
:10069700202020B9E2B1EAA1A2B7B4B0D7A1A2C97C
:1006A700C1CBB8B9A6C4DCA3ACB9E2B1EAB8DFB62E
:1006B700C8D3EBBFEDB6C8BFC9B5F7D6A7B3D6CE7B
:1006C700C4D7D6D3EBBBE6CDBCC1BDD6D6BBECBA3F
:1006D700CDCFD4CABEC4A3CABD202020202020204D
:1006E700202020000718204040808080E018040266
:1006F70002010101808080404020180701010102AA
:10070700020418E0071F3F7F7FFFFFFFE0F8FCFEB2
:10071700FEFFFFFFFFFFFF7F7F3F1F07FFFFFFFE7C
:10072700FEFCF8E01824428181422418183C7EFF21
:10073700FF7E3C18FFFFFFFFFFFFFFFF000001FCEC
:100747007FFC6618663066607FFE7E7A665A66DAD8
:0C0757007EB27FB2676600CE018C00000D
:0C21FE00AC07122362AF041221E87FB08E
:10220A00C2A5D2A4D2A2C2A38F80C2A3D2A3D2A5AE
:01221A0022A1
:06226C007F0F12220AFFA1
:1022720030A6FDC2A5D2A4C2A28F80C2A3D2A3D28D
:02228200A52293
:0A21BC007FFF12220A1222727FC375
:1021C600C2A5D2A2D2A48F80C2A3D2A37580FFC219
:0921D600A2D2A3D2A4C2A4AF80DE
:0121DF0022DD
:1019E000C2A77F327E0012214AD2A77F327E001228
:1019F000214AE4FF12220A7F041222727F0112227E
:101A00000A7F081222727F0312226E12226C7F104C
:101A100012226E7F1112226E7F1212220A1F1222D0
:101A2000727F2012220A7F271222727F2112220A3D
:101A30007F271222727F3012220A7FEF1222727FDA
:101A40003112220A7FEF1222727F4012226E7F50E3
:101A500012226E7F6012226E7F6112226E7F6212EE
:101A6000226E7F7012226E7F7112226E7F7212229E
:101A70006E7F8012226E7F9012220A7F8012227265
:101A80007FE012226E7FF012226E7FF112220AFF97
:031A9000022272BD
:0821E00090005DE0FFE92AFD1B
:1021E800AE077F6012220AAF061222727F70122297
:0621F8000AAF050222728D
:10234D00E4FF1221C6AE07EE54F7FEE4FF12220A97
:05235D00AF0602227230
:10236200E4FF1221C6AE07EE4408FEE4FF12220A81
:05237200AF060222721B
:1022B3007F121221C6AE07EE549F4410FE7F121206
:0622C300220AFF02227254
:1022C9007F121221C6AE07EE54BF4430FE7F1212B0
:0622D900220AFF0222723E
:1022DF007F121221C6AE07EE54F74404FE7F12128E
:0622EF00220AFF02227228
:1022F5007F121221C6AE07EE54FD4401FE7F121275
:06230500220AFF02227211
:10230B007F121221C6AE07EE54FE4402FE7F12125C
:06231B00220AFF022272FB
:10229C0012234D7FE012220AE4FF1222727FF01209
:0722AC00220A7FA802227242
:10237700E4FF1221C6AE07EE54FEFEE4FF12220A66
:05238700AF0602227206
:09221B001222F512229C12237715
:102224007F101221C6AE07EE54DFFE7F1012220A81
:04223400FF02227211
:10205A00EF24FE601314601914601F240370247F98
:10206A00F112220AE4FF80187FF112220A7F5080BF
:10207A000F7FF112220A7FA080067FF112220A1F27
:04208A00122272228A
:0F1FD100E075F005A404FF7BFF7A04798C7D7422
:101FE000900074EBF0A3EAF0A3E9F01221FE900058
:101FF00074E0FBA3E0FAA3E0F9121201601790006D
:1020000074A3E475F001121285A9F0FA121201FF0F
:0620100012227280D922A9
:0923DD0075F00A842430FB7D60D8
:0823E6001221FEAF0302227276
:101865009000607430F0A37401F07B147D507F0A02
:0718750090005DEFF0A905F2
:10187C0012234DE4FA900060E0FFEAC39F4003029C
:10188C001928EA701A1221E0E4FCECC39B40030215
:10189C0019247FB012220A7FFF1222720C80EBEA0D
:1018AC00D394004054900060E014FFEA9F504A909B
:1018BC00005DE0FFE92AFD122205900061E0601B4B
:1018CC007F801222727C01EB14FFECC39F5008E462
:1018DC00FF1222720C80F07F0180197FFF1222729E
:1018EC007C01EB14FFECC39F50087FFF1222720C9B
:1018FC0080F07FFF122272801F900060E0146A70EB
:10190C00171221E0E4FCECC39B500D7FB012220AAD
:0C191C007FFF1222720C80EE0A0218817C
:01192800229C
:041EB300A3F07B011C
:0B1EB700900049EFF0A3EDF0A3EBF06A
:101EC20012234DE4900050F090004CE0FF9000503F
:101ED200E0C39F5042E4FC90004BE0FFECC39F50F4
:101EE2002E900049E02CFF900050E0FE90004AE066
:101EF2002EFD12220590004DE0FBA3E475F00112C5
:101F02001285A9F0FA121201FF1222720C80C890F7
:071F12000050E004F080B173
:011F190022A5
:1015AF009000657440F0A37401F07B167D487F09AD
:1015BF00900062EFF0A3EDF0A3EBF0900066E090E7
:1015CF000062700302167EE0FFA3E0FDA3E0FBA321
:1015DF00E0900060F0A37401F0121875900062E0C3
:1015EF00FFA3E0FD90004C7408F0A374FFF0A37408
:1015FF0006F074EB121EB3900062E0FF900065E0FE
:10160F00FE900063E02E24F8FD90004C7408F0A3C8
:10161F0074FFF0A37406F074FB121EB3900064E025
:10162F00FF900062E02F14FFA3E0FD90004C7408C0
:10163F00F0A374FFF0A37406F0A374F3F07B011210
:10164F001EB7900064E0FF900062E02F14FF90003F
:10165F0065E0FE900063E02E24F8FD90004C7408C6
:10166F00F0A374FFF0A37407F0A3740302172AE02A
:10167F00FFA3E0FDA3E0FBA3E0900060F0E4A3F084
:10168F00121875900062E0FFA3E0FD90004C740803
:10169F00F0A374FFF0A37407F0A3740BF07B011297
:1016AF001EB7900062E0FF900065E0FE900063E0DF
:1016BF002E24F8FD90004C7408F0A374FFF0A3746F
:1016CF0007F0A3741BF07B01121EB7900064E0FFBC
:1016DF00900062E02F14FFA3E0FD90004C7408F01F
:1016EF00A374FFF0A37407F0A37413F07B01121E11
:1016FF00B7900064E0FF900062E02F14FF90006548
:10170F00E0FE900063E02E24F8FD90004C7408F08A
:10171F00A374FFF0A37407F0A37423F07B01121ED0
:02172F00B722DF
:1023A1007FC01221C6AE07EE4480FE7FC012220A12
:0423B100FF02227293
:1023B5007FC41221C6AE07EE4480FE7FC412220AF6
:0423C500FF0222727F
:102321007FC41221C6AE07EE54FE4402FE7FC412E2
:06233100220AFF022272E5
:102337007FC41221C6AE07EE44014402FE7FC412D9
:06234700220AFF022272CF
:10217100EF2458FFEE34FCFEE434FFFDE434FFFCB1
:10218100E47B407A01F9F812129B7BB47AFC79FF67
:0521910078FF1220168A
:012196002226
:10219700EF2480FFEE34FCFEE434FFFDE434FFFC63
:1021A700E47BF0FAF9F812129B7BEC7AFC79FF7862
:0421B700FF122016DD
:0121BB002201
:100CFC00E4F9900000E06003020D98D3EF9400EE4D
:100D0C0094004027EF9460EE9400501FED94D0ECCB
:100D1C0094004017ED94F0EC9400500F900007E015
:100D2C0064016003020F8009020F80D3EF9468EE18
:100D3C009400401DEF94D0EE94005015ED94D0EC3F
:100D4C009400400DED94F0EC940050057902020FE4
:100D5C0080D3EF94D8EE94005003020F80EF9438B8
:100D6C00EE94014003020F80ED94D0EC94005003FC
:100D7C00020F80ED94F0EC94004003020F80900081
:100D8C0007E06003020F807903020F80900000E0FF
:100D9C0064037032D3EF94D8EE94005003020F80AA
:100DAC00EF9438EE94014003020F80ED94D0EC9454
:100DBC00005003020F80ED94F0EC94004003020FFE
:100DCC00807904020F80900000E064016003020F40
:100DDC0056D3EF9428EE9400401DEF9448EE940007
:100DEC005015ED944AEC9400400DED94AEEC94004B
:100DFC0050057905020F80D3EF9450EE9400401DFE
:100E0C00EF9470EE94005015ED944AEC9400400D64
:100E1C00ED94AEEC940050057906020F80D3EF945C
:100E2C0078EE9400401DEF9498EE94005015ED94DC
:100E3C004AEC9400400DED94AEEC9400500579070B
:100E4C00020F80D3EF94A0EE9400401DEF94C0EEFF
:100E5C0094005015ED944AEC9400400DED94AEECDA
:100E6C00940050057908020F80D3EF94C8EE9400DB
:100E7C00401DEF94E8EE94005015ED944AEC94006C
:100E8C00400DED94AEEC940050057909020F80D31F
:100E9C00EF94F0EE9400401DEF9410EE9401501579
:100EAC00ED944AEC9400400DED94AEEC940050059A
:100EBC00790A020F80D3EF94A0EE9400401DEF94BA
:100ECC00D8EE94005015ED940CEC9400400DED947C
:100EDC003CEC94005005790B020F80D3EF94E8EEB4
:100EEC009400401CEF9420EE94015014ED940CEC03
:100EFC009400400CED943CEC94005004790C8074FC
:100F0C00D3EF9470EE9400401CEF94D0EE9400500C
:100F1C0014ED94D0EC9400400CED94F0EC94005053
:100F2C0004790D804FD3EF94D8EE94004046EF94A3
:100F3C0038EE9401503EED94D0EC94004036ED9494
:100F4C00F0EC9400502E790E802A900000E0B40250
:100F5C0023D3EF94D8EE9400401AEF9438EE94011A
:100F6C005012ED94D0EC9400400AED94F0EC940007
:060F7C005002790FAF01E5
:010F8200224C
:10173100E4900052F0FE7FC412220A7F81122272CD
:101741007FFF12220A1222727F0F1221C6EF20E3BD
:101751000302185FE4FD7F0F1221C6EF7003FE80C4
:101761000BEDB431027E010DEDB432EAEE700302ED
:1017710018531223217F647E001222381223377FEF
:10178100647E001222387FC11221C6AE077FFF128C
:10179100220A1222727FC21221C6900051EFF0126A
:1017A10021BCEF5403FD1221BCEF540CF97FFF1251
:1017B100220A122272AF067E00EF7802C333CE33C3
:1017C100CED8F9FFED5403FDEF4DFDAC069000516D
:1017D100E07E007802C333CE33CED8F9FBAA067E71
:1017E10000E9540C7802CEC313CE13D8F9FFEE4AA8
:1017F100FEEF4BFF900053EEF0A3EFF0C3ED94B476
:10180100EC9403504DED945EEC94004045900053F0
:10181100E0FEA3E0FF94B0EE94035036EF945CEE4B
:101821009400402EAE04AF05122171900055EEF0E8
:10183100A3EFF0900053E0FEA3E0FF122197AD0764
:10184100AC06900055E0FEA3E0FF120CFC900052A4
:10185100EFF07F0F1221C6EF54FEFE12226C9000B2
:0318610052E0FF53
:011864002261
:050F8300900077EFF083
:100F880012230B12229C9000657430F0A37401F0B8
:100F98007B077D0C7F141215BF9000657430F0A399
:100FA8007401F07B077D0C7F1D1215BFE49000785B
:100FB800F0900078E0FFC394085043EF75F008A460
:100FC8002410F582E43400F583E09000786010E0A6
:100FD80075F005A4FF9000607464F0E4A3800FE04E
:100FE80075F005A4FF9000607464F0A37401F07BB1
:100FF800047D4A121875900078E004F080B39000E0
:1010080000E0B401139000657420F0A37401F07B34
:101018000C7DD07F0E1215BF9000657420F0A3746C
:1010280001F07B0C7DD07F1B1215BF900077E0602C
:10103800031215AF12221B7BFF7A0479677D087FA4
:1010480001121FE07BFF7A0479717D127F15121F50
:10105800E07BFF7A0479777D267F15121FE07BFFFE
:101068007A04797D7D127F1E121FE07BFF7A047956
:10107800777D267F1E121FE07BFF7A0479837D60CF
:101088007F01121FE07BFF7A0479867D747F01124D
:101098001FE07BFF7A0479897D887F01121FE09029
:1010A80000787401F0900078E0FB75F008A4240E35
:1010B800F582E43400F583E0FEA3E0FF7C007D3C8C
:1010C80012121A900079EFF0FEEB75F005A404FFF8
:1010D800EE1223DD900078E075F005A42402FFA34A
:1010E800E075F00A84E5F02430FB1223E6900078DE
:1010F800121FD1900078E075F005A404FF7BFF7AF9
:1011080004798F7D88121FE0900078E004F0E0C336
:10111800940740917BFF7A0479837D607F24121FB6
:10112800E07BFF7A0479867D747F24121FE07BFFC1
:101138007A0479897D887F24121FE07BFF7A0479FD
:10114800927DB47F01121FE07BFF7A0479957F06B8
:10115800121FE07BFF7A0479977F0B121FE07BFF59
:101168007A0479997F10121FE07BFF7A04799B7FBC
:1011780015121FE07BFF7A04799D7F1A121FE07B0E
:10118800FF7A04799F7F1F121FE07BFF7A0479A101
:101198007F24121FE0900000E0B4010D7BFF7A0469
:1011A80079A47DD87F11121FE07BFF7A0479AB7D8B
:1011B800D87F1E121FE0900077E0603790006574BA
:1011C80040F0E4A31215B8121865900077E0B40156
:1011D800087BFF7A0479B28013900077E07BFFB434
:1011E80002067A0479BE80047A0479CA7D607F0E8B
:0911F800121FE01222DF0222C9DD
:10208E0012230B12222412229C1222F51222241247
:10209E00229C1222B37F0112205A7BFF7A0479D63A
:1020AE007D357F04121FE07BFF7A0479E47D537F38
:0420BE0004021FE019
:05001E0090007DEFF0F1
:1000230012230B12229C9000607420F0A37401F041
:100033007B08E4FDFF1218759000607420F0A37430
:1000430001F0E4FD7F08121875E490007EF0900043
:100053007EE0FFC39408504DEF75F005A42402FF22
:1000630090004C7408F0A374FFF0A37407F0A3741A
:100073002BF07B017D2A121EB790007EE075F00500
:10008300A42402FF90004C7408F0A374FFF0A3743F
:1000930007F0A3742BF07B017D3A121EB790007E0C
:1000A300E004F080A9900004E0FF20E02590000325
:1000B300E0700BEFC31375F005A4240280249000B5
:1000C30003E064027060A3E0C31375F005A4240287
:1000D300803A900003E07023A3E0C31375F005A4F6
:1000E3002404FF90004C7408F0A374FFF0A374077A
:1000F300F0A37433F07B017D2A8028900003E0B4E1
:100103000224A3E0C31375F005A42404FF90004C5C
:100113007408F0A374FFF0A37407F0A37433F07BA7
:10012300017D3A121EB7E490007EF090007EE0FF5E
:10013300C394085043EF75F008A42409F582E4340E
:1001430000F583E090007E6010E075F005A4FF9059
:1001530000607464F0E4A3800FE075F005A4FF90E1
:1001630000607464F0A37401F07B047D4A12187577
:1001730090007EE004F080B390007DE0702D90004D
:1001830007E0B401139000657420F0A37401F07BC1
:100193000C7DD0E4FF1215BF9000657420F0A374AA
:1001A30001F07B0D7DD07F0D1215BF900007E0702D
:1001B3001B90007DE0640260139000657420F0A33F
:1001C3007401F07B0C7DD07F1B1215BF90007DE086
:1001D30060031215AF12221B7BFF7A0479FA7D08A4
:1001E3007F02121FE0900007E07BFF70067A04791C
:1001F300FF80067A0579047D087F0A121FE07BFFE2
:100203007A0579097D087F16121FE0900002E01439
:10021300601514601A14601F146024240470287B72
:10022300FF7A05791580267BFF7A05791A801E7B74
:10023300FF7A05791F80167BFF7A057924800E7B70
:10024300FF7A05792980067BFF7A05792E7D087F61
:1002530022121FE0E490007EF090007EE0FFC39442
:1002630008400302038AEF75F008A42409F582E429
:100273003400F583E0702890007EE075F005A40457
:10028300FF7BFF7A0579337D64121FE090007EE0E7
:1002930075F005A404FF7BFF7A05793602037C9091
:1002A300007EE0FF75F008A42409F582E43400F52C
:1002B30083E064027025EF75F005A404FF7BFF7AE9
:1002C3000579397D64121FE090007EE075F005A486
:1002D30004FF7BFF7A05793C02037C90007EE0FFFC
:1002E30060726407606EE075F008A4240CF582E484
:1002F3003400F583E0FCA3E0FDEF75F008A4240AC5
:10030300F582E43400F583E0FEA3E0C39DFFEE9C99
:10031300FE7C007D3C12121AAA0790007EE075F065
:1003230005A404FFEA1223DDE075F005A42402FF0F
:10033300EA75F00A84E5F02430FB1223E6121FD19C
:1003430090007EE075F005A404FF7BFF7A04798FAB
:100353007D88802790007EE075F005A404FF7BFF75
:100363007A05793F7D64121FE090007EE075F00509
:10037300A404FF7BFF7A0579427D84121FE090007D
:100383007EE004F002025C7BFF7A0479927DB47F05
:1003930001121FE07BFF7A0479957F06121FE07B31
:1003A300FF7A0479977F0B121FE07BFF7A04799918
:1003B3007F10121FE07BFF7A04799B7F15121FE0E9
:1003C3007BFF7A04799D7F1A121FE07BFF7A047901
:1003D3009F7F1F121FE07BFF7A0479A17F24121FE6
:1003E300E090007DE07021900007E0B4010D7BFFF9
:1003F3007A0579457DD87F02121FE07BFF7A057964
:100403004E7DD87F0F121FE090007DE0B401087B82
:10041300FF7A057958801290007DE07013900007F1
:10042300E0700D7BFF7A0579617DD87F1D121FE097
:1004330090007DE060289000657440F0E4A31215FD
:10044300B812186590007DE07BFFB401067A057948
:100453006A80047A0579767D607F0E121FE012228E
:04046300DF0222C9C9
:101F7E001222F5122377122224900002E01460152B
:101F8E0014601A14601F146024240470287BFF7AD6
:101F9E0005791580267BFF7A05791A801E7BFF7ADC
:101FAE0005791F80167BFF7A057924800E7BFF7AD8
:101FBE0005792980067BFF7A05792E7D087F22120E
:031FCE001FE022EF
:101C9B00AD0712230BED1212EA1CC3011CD3021D5C
:101CAB0017031D17041CE40B1CF50C1D060D1D174B
:101CBB000E1D170F00001D299000657420F0E4A382
:101CCB00F07B0C7DD0FF80539000657420F0E4A373
:101CDB00F07B0D7DD07F0D80429000657430F0E479
:101CEB00A3F07B077D0C7F1480319000657430F07E
:101CFB00E4A3F07B077D0C7F1D8020900065742092
:101D0B00F0E4A3F07B0C7DD07F0E800F9000657408
:0F1D1B0020F0E4A3F07B0C7DD07F1B1215BF22BC
:10223800EF1FAC0670011E4C6010900080E004F0A7
:0A22480070EE90007FE004F080E6E5
:012252002269
:08214A00900081EEF0A3EFF01C
:10215200E4FBFAD3900082E09B900081E09A400E6B
:0E2162007FDE7E011222380BBB00010A80E5F1
:01217000224C
:101BF10090006EE4F0A304F07F0A1223C97F007EF7
:101C010001122284EF64EE6003021C8D90006CF0DF
:101C1100A3F090006CE0FEA3E0FFC39408EE9400F3
:101C21005060EF25E0FFEE33FE122284EF7F00FECD
:101C3100C007C00690006DE025E0FF90006CE03326
:101C4100FEEF2401FFE43EFE122284EFFDD0E0FC12
:101C5100D0E04DFD90006CE0FEA3E07803C333CEED
:101C610033CED8F9240AF58274003EF583ECF0A353
:101C7100EDF090006DE004F0709890006CE004F0DD
:101C8100809090006EE4F0A304F08007E490006E71
:091C9100F0A3F090006EA3E0FF47
:011C9A002227
:101B4500E4900007F0900000F0FFEF75F008A42482
:101B550009F582E43400F5837401F0EF75F008A40B
:101B6500240CF582E43400F583E4F0A3F00FEFB420
:101B750008D8E4900011F0900019F0121BF1EF70F5
:101B85004E90000A7407F0A304F09000127402F05E
:101B9500A374D0F090001A7402F0A374D0F09000F2
:101BA500227401F0A3742CF090002A7401F0A37440
:101BB5002CF09000327401F0A3742CF090003A746C
:101BC50001F0A3742CF09000427407F0A304F0E434
:101BD500900002F0A37402F0E4A3F0900006F090E8
:0B1BE5000008F0900001F0900005F0F7
:011BF00022D2
:1013DE00900072E4F0A304F07F0A1223C9E4FFFE2A
:1013EE0012238CE4900070F0A3F0900070E0FEA346
:1013FE00E0FFC3EE9402501E122284EFF46007E465
:10140E00900072F0A3F0900071E004F070DC900098
:10141E0070E004F080D47F0A1223C9E4900070F0CB
:10142E00A3F0900070E0FCA3E0FD25E0FFEC33FE9E
:10143E00C006C007EDAE047803C333CE33CED8F961
:10144E00240EF58274003EF583E0FDD007D006121F
:10145E002253900070E0FCA3E0FD25E0FFEC33FE8C
:10146E00EF2401FFE43EFEC006C007EDAE04780394
:10147E00C333CE33CED8F9240EF58274003EF583F5
:10148E00A3E0FDD007D006122253900071E004F0C5
:10149E007006900070E004F0C3900071E094089024
:1014AE000070E0940050030214307DEE7F007E0148
:1014BE001222537F0A1223C9E4900070F0A3F09019
:1014CE000070E0FEA3E0FFC39408EE9400507CEFA2
:1014DE0025E0FFEE33FE122284AD07900070E0FA95
:1014EE00A3E0FBAE027803C333CE33CED8F9240E7D
:1014FE00F58274003EF583E06D6007E4900072F0B3
:10150E00A3F0EB25E0FFEA33FEEF2401FFE43EFEFD
:10151E00122284AD07900070E0FEA3E07803C3337F
:10152E00CE33CED8F9240EF58274003EF583A3E0B7
:10153E006D6007E4900072F0A3F0900071E004F08B
:10154E007006900070E004F00214CDE4900070F08C
:10155E00A3F0900070E0FEA3E0FFC39408EE9400A9
:10156E005038EF7803C333CE33CED8F9FF240EF5BF
:10157E008274003EF583E0FCA3E0FD740A2FF58231
:10158E0074003EF583ECF0A3EDF0900071E004F0F2
:10159E0070C0900070E004F080B8900072A3E0FF7D
:0115AE00221A
:1023C900AE071FEE600DE4FCFD0DED70010C4C60D5
:0323D900EF80F69C
:0123DC0022DE
:0D000E00E4F5C7F5C5F5C675C380F5C4223D
:1022840075C78375C5018FC4EEF5C375C65A75C687
:07229400A500AFC212000E0D
:01229B002220
:1022530075C78375C5028FC4EEF5C3AF058FC2750D
:09226300C65A75C6A50002000E62
:10238C0075C78375C5038FC4EEF5C375C65A75C67C
:05239C00A50002000E87
:10192900E4FBEB75F008A42409F582E43400F5839F
:10193900E0FF64016008EF640260030219D6EB75E9
:10194900F008A4240CF582E43400F583E475F00171
:1019590012126FEB75F008A4240AF582E43400F53D
:1019690083E0FEA3E0FFEB75F008A4240CF582E404
:101979003400F583E0FCA3E0C39FEC9E402CEB60B0
:101989001764076013EB75F008A42409F582E434A1
:1019990000F5837402F08012EB75F008A4240CF5AD
:1019A90082E43400F583E4F0A3F0EB75F008A42495
:1019B9000CF582E43400F583E0FEA3E0FF7C007DB2
:1019C9003C12121AED4C700590000804F00BEB6400
:0619D90008600302192B57
:0119DF0022E5
:03000B000220C20E
:1020C200C0E0C0F0C083C082C0D075D008758A203D
:1020D200758CD190007AE004F0900006E0FF640273
:1020E2006004EFB40103121A93D0D0D082D083D00F
:0420F200F0D0E03218
:03001B00021E4082
:101E4000C0E0C0F0C083C082C0D075D008758BA040
:101E5000758D1590007CE004F0900000E064046053
:101E60004790007CE0B4C828E4F01219299000598A
:101E7000E004F07006900058E004F090007BE0046D
:101E8000F0E0B4050B9000087403F090007BE4F0E0
:101E900090007CE020E011900007E07005120A4FEE
:101EA00080031223F9121F1AD0D0D082D083D0F031
:031EB000D0E0324D
:10212200758EC0758911758A20758CD1D28CD2A911
:10213200758BA0758D15D28ED2ABD2AFE490007C98
:08214200F090007AF0A3F022F6
:0420F6004100830022
:101A9300900083E0FF700930B403021B4404F0227A
:101AA300EF6401704920B444900006E0FFB4021AC9
:101AB300900004E004F09000087401F0900004E04A
:101AC300D3940E4020740EF0801BEFB401179000E6
:101AD30004E014F09000087401F0900004E0D39443
:101AE300C84002E4F09000837402F022804E90001C
:101AF30083E0B4020730B4497403F02230B4429057
:101B03000006E0FFB4021A900004E004F09000081D
:101B13007401F0900004E0D3940E4020740EF08022
:101B23001BEFB40117900004E014F0900008740157
:101B3300F0900004E0D394C84002E4F0E490008302
:021B4300F0228E
:1020FA0041005A6442005B000241005764420058A2
:02210A000000D3
:1007630090005AE0B40C004003020A4D900776F85B
:1007730028287302079A0207A602083A02086202AF
:1007830008940208A80208E60208F1020995020982
:10079300BF0209F3020A0BE4900058F0A3F0D294CD
:1007A3000208ED900005EFF0D3900059E094029019
:1007B3000058E094005003020A4E900004E0FED378
:1007C3009F4036C2A0D2A1900001E0FCB40106C252
:1007D30092D293800EECB40206D292C2938004D2DA
:1007E30092D2939000067401F0900002F0900008FA
:1007F300E06003020A4E020984EEC39F5036D2A082
:10080300C2A1900001E0FEB40106C292D293800E11
:10081300EEB40206D292C2938004D292D293900095
:10082300067402F0900002F0900008E06003020AF0
:100833004E020984020988900004E06F6003020AF3
:100843004ED2A0D2A1D292D293900058F0A3F090AE
:100853000002F0900008E070357402F00209BAD388
:10086300900059E09402900058E094005003020A6B
:100873004E900004E06F6003C29422D294D2A0D2BF
:10088300A1D292D293900008E070037402F002099F
:10089300BAC2909000027403F0900008E0700374F1
:1008A30002F00209BA30B103020A4ED290E490007A
:1008B30003F0900002F0EFC313FE75F008A42409BF
:1008C300F582E43400F583E4F0EE75F008A4240C1B
:1008D300F582E43400F583E4F0A3F090000804F01B
:1008E300020990E4900058F0A3F0A3020A079000D5
:1008F30005EDF090005BE0FEA3E0FFD3900059E02C
:100903009F900058E09E5003020A4E900004E0FFBF
:10091300D39D4035C2A0D2A1900001E0FEB40106F0
:10092300C292D293800EEEB40206D292C293800496
:10093300D292D2939000067401F0900002F09000DE
:1009430008E06003020A4E8038EFC39D5037D2A0FF
:10095300C2A1900001E0FFB40106C292D293800EBF
:10096300EFB40206D292C2938004D292D293900043
:10097300067402F0900002F0900008E06003020A9F
:100983004E7402F022D2A0D2A1D292D29390005AF6
:100993008072900004E06D6003020A4ED2A0D2A1DF
:1009A300D292D293900058F0A3F0900002F09000FE
:1009B30008E070037402F090005A8048D390005905
:1009C300E09402900058E094005003020A4E900015
:1009D30004E06D6003C29422D294D2A0D2A1D29239
:1009E300D293900008E070037402F090005A8014D0
:1009F300C2919000027404F0900008E07003740246
:100A0300F090005AE004F02220B240D2919000030B
:100A13007402F0E4900002F0EDC313FF75F008A434
:100A23002409F582E43400F5837401F0EF75F008CE
:100A3300A4240CF582E43400F583E4F0A3F09000E1
:0C0A43000804F090005A7464F0220022B5
:101DB600900057E014601214603514605D240370BF
:101DC60077E4900058F0A38049D3900059E094023C
:101DD600900058E094004061C2A09000067401F0A3
:101DE600900002F0900008E070297402F080242030
:101DF600B047E4900058F0A3F0D2A0D2A19000061C
:101E0600F0900002F0900008E070037402F0E49095
:101E16000004F0900057E004F022D3900059E094BB
:101E260002900058E094004010E4F0A3F090000403
:0A1E3600F09000577464F0220022BF
:0B23EE00D2A0D2A1D290D291D29222B4
:10210C0041006B004100680042006900004100671B
:01211C0000C2
:100A4F00900004E0FE900005E0FDD39E4005ED9E72
:100A5F00FF800C900005E0FF900004E0C39FFFEFC4
:100A6F00D3940240089000017401F08005E49000D7
:100A7F0001F090006BE01212EA0AB0000AB7010A07
:100A8F00C8020ADD030AF2040B07050B1B060B2F26
:100A9F00070B55080B69090B7D0A0B961400000C08
:100AAF00FAE4900057020C33121DB6900057E06421
:100ABF00646003020CFB020B8F7D0E7F0C12076329
:100ACF0090005AE064646003020CFB020B8F7D0CF4
:100ADF007F0A12076390005AE064646003020CFB04
:100AEF00020B8F7D0A7F0812076390005AE064643F
:100AFF006003020CFB020B8F7D087F0612076390C9
:100B0F00005AE064646003020CFB80747D067F046E
:100B1F0012076390005AE064646003020CFB80606C
:100B2F007D067F0212076390005AE064646003023F
:100B3F000CFB90006B7414F0900000E064036003F2
:100B4F00020CFB020C577D04E4FF12076390005A5E
:100B5F00E064646003020CFB80267D02E4FF120751
:100B6F006390005AE064646003020CFB8012E4FDA2
:100B7F007F0E12076390005AE064646003020CFB5F
:100B8F0090006B7414F022900019E0FF701B90001E
:100B9F0009E0B40214E490005AF090005BF0A374E3
:100BAF0002F090006B7408F022900011E0FE701BB1
:100BBF00900009E0B40214E490005AF090005BF04A
:100BCF00A37402F090006B7409F022900009E0709A
:100BDF001B900041E0B40214E490005AF090005BC7
:100BEF00F0A37402F090006B740AF022900041E0C1
:100BFF007019900039E0B40212E490005AF090009E
:100C0F005BF0A37402F090006BF022900039E0705B
:100C1F001A900031E0B40213E490005AF090005B98
:100C2F00F0A37402F090006B04F022900031E0709A
:100C3F001B900029E0B40214E490005AF090005B7E
:100C4F00F0A3743CF090006B7404F022900029E044
:100C5F00701B900021E0B40214E490005AF0900051
:100C6F005BF0A37402F090006B7405F022900021EA
:100C7F00E07079EFB40206EEB40102805A900011D1
:100C8F00E0B40209900019E0B40102802F90001126
:100C9F00E0FF64027022900019E0B4021B90001C68
:100CAF00E0FCA3E0FDD3900015E09D900014E09CC4
:100CBF00E490005A40258008EFB40214E490005AE3
:100CCF00F090005BF0A3743CF090006B7407F0227F
:100CDF00900019E0B40215E490005AF090005BF018
:0C0CEF00A3743CF090006B7406F022002F
:010CFB0022D6
:0923F90090006B7414F00223EE55
:04211D0041008400F9
:101F1A00900084E01460171460211460492403704F
:101F2A005130950320964C9000847401F02230952C
:101F3A00032096389000847402F02220950F9000B6
:101F4A0041E0B401087402F090000814F020960FE2
:101F5A00900009E0B401087402F090000814F090AF
:101F6A0000847403F02230950A309607E4900084C6
:041F7A00F02200222F
:101D3600020003E493A3F8E493A34003F68001F2C0
:101D460008DFF48029E493A3F85407240CC8C333AE
:101D5600C4540F4420C8834004F456800146F6DF7D
:101D6600E4800B01020408102040809020F6E47EF7
:101D7600019360BCA3FF543F30E509541FFEE49372
:101D8600A360010ECF54C025E060A840B8E493A339
:101D9600FAE493A3F8E493A3C8C582C8CAC583CA64
:101DA600F0A3C8C582C8CAC583CADFE9DEE780BE1C
:0121210000BD
:10120100BB010689828A83E0225002E722BBFE02EB
:09121100E32289828A83E493221E
:10121A00BC000BBE0029EF8DF084FFADF022E4CCB8
:10122A00F875F008EF2FFFEE33FEEC33FCEE9DEC81
:10123A00984005FCEE9DFE0FD5F0E9E4CEFD22EDC7
:10124A00F8F5F0EE8420D21CFEADF075F008EF2F11
:10125A00FFED33FD4007985006D5F0F222C398FD02
:05126A000FD5F0EA229F
:10126F00C5F0F8A3E028F0C5F0F8E582158270020A
:06127F001583E038F022A7
:10128500A3F8E0C5F025F0F0E5821582700215831C
:06129500E0C838F0E82279
:10129B00E88FF0A4CC8BF0A42CFCE98EF0A42CFCF2
:1012AB008AF0EDA42CFCEA8EF0A4CDA8F08BF0A470
:1012BB002DCC3825F0FDE98FF0A42CCD35F0FCEBCF
:1012CB008EF0A4FEA9F0EB8FF0A4CFC5F02ECD3994
:0F12DB00FEE43CFCEAA42DCE35F0FDE43CFC2201
:10201600C2D5E830E70FB2D5E4C39BFBE49AFAE4F5
:1020260099F9E498F8EC30E717B2D512204C121360
:102036004CE4C39BFBE49AFAE499F9E498F880032C
:1020460012134C30D50DE4C39FFFE49EFEE49DFDC4
:04205600E49CFC22E8
:1012EA00D083D082F8E4937012740193700DA3A393
:1012FA0093F8740193F5828883E4737402936860A7
:06130A00EFA3A3A380DFA6
:1013100075F008758200EF2FFFEE33FECD33CDCC94
:1013200033CCC58233C5829BED9AEC99E582984017
:101330000CF582EE9BFEED9AFDEC99FC0FD5F0D6F4
:10134000E4CEFBE4CDFAE4CCF9A88222B800C1B91E
:101350000059BA002DEC8BF084CFCECDFCE5F0CB5C
:10136000F97818EF2FFFEE33FEED33FDEC33FCEB95
:1013700033FB10D703994004EB99FB0FD8E5E4F950
:10138000FA227818EF2FFFEE33FEED33FDEC33FC3D
:10139000C933C910D7059BE99A4007EC9BFCE99A31
:1013A000F90FD8E0E4C9FAE4CCFB2275F010EF2F76
:1013B000FFEE33FEED33FDCC33CCC833C810D70776
:1013C0009BEC9AE899400AED9BFDEC9AFCE899F8B1
:0E13D0000FD5F0DAE4CDFBE4CCFAE4C8F92244
:00000001FF
